{
  "address": "0x0ac2b4eFaD1e6020f098394422504eC1895BeaA8",
  "abi": [
    {
      "inputs": [],
      "stateMutability": "nonpayable",
      "type": "constructor"
    },
    {
      "anonymous": false,
      "inputs": [
        {
          "indexed": true,
          "internalType": "address",
          "name": "owner",
          "type": "address"
        },
        {
          "indexed": true,
          "internalType": "address",
          "name": "spender",
          "type": "address"
        },
        {
          "indexed": false,
          "internalType": "uint256",
          "name": "value",
          "type": "uint256"
        }
      ],
      "name": "Approval",
      "type": "event"
    },
    {
      "anonymous": false,
      "inputs": [
        {
          "indexed": true,
          "internalType": "bytes32",
          "name": "role",
          "type": "bytes32"
        },
        {
          "indexed": true,
          "internalType": "bytes32",
          "name": "previousAdminRole",
          "type": "bytes32"
        },
        {
          "indexed": true,
          "internalType": "bytes32",
          "name": "newAdminRole",
          "type": "bytes32"
        }
      ],
      "name": "RoleAdminChanged",
      "type": "event"
    },
    {
      "anonymous": false,
      "inputs": [
        {
          "indexed": true,
          "internalType": "bytes32",
          "name": "role",
          "type": "bytes32"
        },
        {
          "indexed": true,
          "internalType": "address",
          "name": "account",
          "type": "address"
        },
        {
          "indexed": true,
          "internalType": "address",
          "name": "sender",
          "type": "address"
        }
      ],
      "name": "RoleGranted",
      "type": "event"
    },
    {
      "anonymous": false,
      "inputs": [
        {
          "indexed": true,
          "internalType": "bytes32",
          "name": "role",
          "type": "bytes32"
        },
        {
          "indexed": true,
          "internalType": "address",
          "name": "account",
          "type": "address"
        },
        {
          "indexed": true,
          "internalType": "address",
          "name": "sender",
          "type": "address"
        }
      ],
      "name": "RoleRevoked",
      "type": "event"
    },
    {
      "anonymous": false,
      "inputs": [
        {
          "indexed": true,
          "internalType": "address",
          "name": "from",
          "type": "address"
        },
        {
          "indexed": true,
          "internalType": "address",
          "name": "to",
          "type": "address"
        },
        {
          "indexed": false,
          "internalType": "uint256",
          "name": "value",
          "type": "uint256"
        }
      ],
      "name": "Transfer",
      "type": "event"
    },
    {
      "anonymous": false,
      "inputs": [
        {
          "indexed": true,
          "internalType": "address",
          "name": "previousWhitelister",
          "type": "address"
        },
        {
          "indexed": true,
          "internalType": "address",
          "name": "newWhitelister",
          "type": "address"
        }
      ],
      "name": "WhitelisterTransferred",
      "type": "event"
    },
    {
      "inputs": [],
      "name": "DEFAULT_ADMIN_ROLE",
      "outputs": [
        {
          "internalType": "bytes32",
          "name": "",
          "type": "bytes32"
        }
      ],
      "stateMutability": "view",
      "type": "function"
    },
    {
      "inputs": [],
      "name": "EMERGENCY_WITHDRAW_ROLE",
      "outputs": [
        {
          "internalType": "bytes32",
          "name": "",
          "type": "bytes32"
        }
      ],
      "stateMutability": "view",
      "type": "function"
    },
    {
      "inputs": [],
      "name": "MINTER_ROLE",
      "outputs": [
        {
          "internalType": "bytes32",
          "name": "",
          "type": "bytes32"
        }
      ],
      "stateMutability": "view",
      "type": "function"
    },
    {
      "inputs": [],
      "name": "_lgePairAddress",
      "outputs": [
        {
          "internalType": "address",
          "name": "",
          "type": "address"
        }
      ],
      "stateMutability": "view",
      "type": "function"
    },
    {
      "inputs": [],
      "name": "_lgeTimestamp",
      "outputs": [
        {
          "internalType": "uint256",
          "name": "",
          "type": "uint256"
        }
      ],
      "stateMutability": "view",
      "type": "function"
    },
    {
      "inputs": [
        {
          "internalType": "uint256",
          "name": "",
          "type": "uint256"
        }
      ],
      "name": "_lgeWhitelistRounds",
      "outputs": [
        {
          "internalType": "uint256",
          "name": "duration",
          "type": "uint256"
        },
        {
          "internalType": "uint256",
          "name": "amountMax",
          "type": "uint256"
        }
      ],
      "stateMutability": "view",
      "type": "function"
    },
    {
      "inputs": [],
      "name": "_whitelister",
      "outputs": [
        {
          "internalType": "address",
          "name": "",
          "type": "address"
        }
      ],
      "stateMutability": "view",
      "type": "function"
    },
    {
      "inputs": [
        {
          "internalType": "address",
          "name": "owner",
          "type": "address"
        },
        {
          "internalType": "address",
          "name": "spender",
          "type": "address"
        }
      ],
      "name": "allowance",
      "outputs": [
        {
          "internalType": "uint256",
          "name": "",
          "type": "uint256"
        }
      ],
      "stateMutability": "view",
      "type": "function"
    },
    {
      "inputs": [
        {
          "internalType": "address",
          "name": "spender",
          "type": "address"
        },
        {
          "internalType": "uint256",
          "name": "amount",
          "type": "uint256"
        }
      ],
      "name": "approve",
      "outputs": [
        {
          "internalType": "bool",
          "name": "",
          "type": "bool"
        }
      ],
      "stateMutability": "nonpayable",
      "type": "function"
    },
    {
      "inputs": [
        {
          "internalType": "address",
          "name": "account",
          "type": "address"
        }
      ],
      "name": "balanceOf",
      "outputs": [
        {
          "internalType": "uint256",
          "name": "",
          "type": "uint256"
        }
      ],
      "stateMutability": "view",
      "type": "function"
    },
    {
      "inputs": [
        {
          "internalType": "address",
          "name": "pairAddress",
          "type": "address"
        },
        {
          "internalType": "uint256[]",
          "name": "durations",
          "type": "uint256[]"
        },
        {
          "internalType": "uint256[]",
          "name": "amountsMax",
          "type": "uint256[]"
        }
      ],
      "name": "createLGEWhitelist",
      "outputs": [],
      "stateMutability": "nonpayable",
      "type": "function"
    },
    {
      "inputs": [],
      "name": "decimals",
      "outputs": [
        {
          "internalType": "uint8",
          "name": "",
          "type": "uint8"
        }
      ],
      "stateMutability": "view",
      "type": "function"
    },
    {
      "inputs": [
        {
          "internalType": "address",
          "name": "spender",
          "type": "address"
        },
        {
          "internalType": "uint256",
          "name": "subtractedValue",
          "type": "uint256"
        }
      ],
      "name": "decreaseAllowance",
      "outputs": [
        {
          "internalType": "bool",
          "name": "",
          "type": "bool"
        }
      ],
      "stateMutability": "nonpayable",
      "type": "function"
    },
    {
      "inputs": [
        {
          "internalType": "address",
          "name": "token",
          "type": "address"
        }
      ],
      "name": "emergencyWithdraw",
      "outputs": [],
      "stateMutability": "nonpayable",
      "type": "function"
    },
    {
      "inputs": [],
      "name": "getLGEWhitelistRound",
      "outputs": [
        {
          "internalType": "uint256",
          "name": "",
          "type": "uint256"
        },
        {
          "internalType": "uint256",
          "name": "",
          "type": "uint256"
        },
        {
          "internalType": "uint256",
          "name": "",
          "type": "uint256"
        },
        {
          "internalType": "uint256",
          "name": "",
          "type": "uint256"
        },
        {
          "internalType": "uint256",
          "name": "",
          "type": "uint256"
        }
      ],
      "stateMutability": "view",
      "type": "function"
    },
    {
      "inputs": [
        {
          "internalType": "bytes32",
          "name": "role",
          "type": "bytes32"
        }
      ],
      "name": "getRoleAdmin",
      "outputs": [
        {
          "internalType": "bytes32",
          "name": "",
          "type": "bytes32"
        }
      ],
      "stateMutability": "view",
      "type": "function"
    },
    {
      "inputs": [
        {
          "internalType": "bytes32",
          "name": "role",
          "type": "bytes32"
        },
        {
          "internalType": "uint256",
          "name": "index",
          "type": "uint256"
        }
      ],
      "name": "getRoleMember",
      "outputs": [
        {
          "internalType": "address",
          "name": "",
          "type": "address"
        }
      ],
      "stateMutability": "view",
      "type": "function"
    },
    {
      "inputs": [
        {
          "internalType": "bytes32",
          "name": "role",
          "type": "bytes32"
        }
      ],
      "name": "getRoleMemberCount",
      "outputs": [
        {
          "internalType": "uint256",
          "name": "",
          "type": "uint256"
        }
      ],
      "stateMutability": "view",
      "type": "function"
    },
    {
      "inputs": [
        {
          "internalType": "bytes32",
          "name": "role",
          "type": "bytes32"
        },
        {
          "internalType": "address",
          "name": "account",
          "type": "address"
        }
      ],
      "name": "grantRole",
      "outputs": [],
      "stateMutability": "nonpayable",
      "type": "function"
    },
    {
      "inputs": [
        {
          "internalType": "bytes32",
          "name": "role",
          "type": "bytes32"
        },
        {
          "internalType": "address",
          "name": "account",
          "type": "address"
        }
      ],
      "name": "hasRole",
      "outputs": [
        {
          "internalType": "bool",
          "name": "",
          "type": "bool"
        }
      ],
      "stateMutability": "view",
      "type": "function"
    },
    {
      "inputs": [
        {
          "internalType": "address",
          "name": "spender",
          "type": "address"
        },
        {
          "internalType": "uint256",
          "name": "addedValue",
          "type": "uint256"
        }
      ],
      "name": "increaseAllowance",
      "outputs": [
        {
          "internalType": "bool",
          "name": "",
          "type": "bool"
        }
      ],
      "stateMutability": "nonpayable",
      "type": "function"
    },
    {
      "inputs": [
        {
          "internalType": "address",
          "name": "to",
          "type": "address"
        },
        {
          "internalType": "uint256",
          "name": "amount",
          "type": "uint256"
        }
      ],
      "name": "mint",
      "outputs": [],
      "stateMutability": "nonpayable",
      "type": "function"
    },
    {
      "inputs": [
        {
          "internalType": "uint256",
          "name": "index",
          "type": "uint256"
        },
        {
          "internalType": "uint256",
          "name": "duration",
          "type": "uint256"
        },
        {
          "internalType": "uint256",
          "name": "amountMax",
          "type": "uint256"
        }
      ],
      "name": "modifyLGEWhitelist",
      "outputs": [],
      "stateMutability": "nonpayable",
      "type": "function"
    },
    {
      "inputs": [],
      "name": "name",
      "outputs": [
        {
          "internalType": "string",
          "name": "",
          "type": "string"
        }
      ],
      "stateMutability": "view",
      "type": "function"
    },
    {
      "inputs": [
        {
          "internalType": "bytes32",
          "name": "role",
          "type": "bytes32"
        },
        {
          "internalType": "address",
          "name": "account",
          "type": "address"
        }
      ],
      "name": "renounceRole",
      "outputs": [],
      "stateMutability": "nonpayable",
      "type": "function"
    },
    {
      "inputs": [],
      "name": "renounceWhitelister",
      "outputs": [],
      "stateMutability": "nonpayable",
      "type": "function"
    },
    {
      "inputs": [
        {
          "internalType": "bytes32",
          "name": "role",
          "type": "bytes32"
        },
        {
          "internalType": "address",
          "name": "account",
          "type": "address"
        }
      ],
      "name": "revokeRole",
      "outputs": [],
      "stateMutability": "nonpayable",
      "type": "function"
    },
    {
      "inputs": [
        {
          "internalType": "bytes4",
          "name": "interfaceId",
          "type": "bytes4"
        }
      ],
      "name": "supportsInterface",
      "outputs": [
        {
          "internalType": "bool",
          "name": "",
          "type": "bool"
        }
      ],
      "stateMutability": "view",
      "type": "function"
    },
    {
      "inputs": [],
      "name": "symbol",
      "outputs": [
        {
          "internalType": "string",
          "name": "",
          "type": "string"
        }
      ],
      "stateMutability": "view",
      "type": "function"
    },
    {
      "inputs": [],
      "name": "totalSupply",
      "outputs": [
        {
          "internalType": "uint256",
          "name": "",
          "type": "uint256"
        }
      ],
      "stateMutability": "view",
      "type": "function"
    },
    {
      "inputs": [
        {
          "internalType": "address",
          "name": "recipient",
          "type": "address"
        },
        {
          "internalType": "uint256",
          "name": "amount",
          "type": "uint256"
        }
      ],
      "name": "transfer",
      "outputs": [
        {
          "internalType": "bool",
          "name": "",
          "type": "bool"
        }
      ],
      "stateMutability": "nonpayable",
      "type": "function"
    },
    {
      "inputs": [
        {
          "internalType": "address",
          "name": "sender",
          "type": "address"
        },
        {
          "internalType": "address",
          "name": "recipient",
          "type": "address"
        },
        {
          "internalType": "uint256",
          "name": "amount",
          "type": "uint256"
        }
      ],
      "name": "transferFrom",
      "outputs": [
        {
          "internalType": "bool",
          "name": "",
          "type": "bool"
        }
      ],
      "stateMutability": "nonpayable",
      "type": "function"
    },
    {
      "inputs": [
        {
          "internalType": "address",
          "name": "newWhitelister",
          "type": "address"
        }
      ],
      "name": "transferWhitelister",
      "outputs": [],
      "stateMutability": "nonpayable",
      "type": "function"
    }
  ],
  "transactionHash": "0xc7e2d13b90eb3323aa0810d478154d200a537a238e1aa83b5b27fcddd66d9862",
  "args": [],
  "numDeployments": 1,
  "solcInputHash": "eb88810e24653895a8685e8526ff3fd5",
  "bytecode": "0x60806040523480156200001157600080fd5b506040518060400160405280600981526020016805465737445524332360bc1b8152506040518060400160405280600681526020016505445524332360d41b815250620000636200015e60201b60201c565b600380546001600160a01b0319166001600160a01b0392909216919091179055815162000098906009906020850190620003a4565b508051620000ae906008906020840190620003a4565b50506007805460ff1916601217905550620000cb60003362000162565b620000f77f9f2df0fed2c77648de5860a4cc508cd0818c85b8b8a1ab4ceeef8d981c8956a63362000162565b620001237f66f144ecd65ad16d38ecdba8687842af4bc05fde66fe3d999569a3006349785f3362000162565b62000158336200013560075460ff1690565b6200014290600a620004ae565b6200015290633b9aca006200056d565b620001a5565b620005e2565b3390565b6200017982826200028e60201b62000df51760201c565b6000828152600b60209081526040909120620001a091839062000e7b62000332821b17901c565b505050565b6001600160a01b038216620002005760405162461bcd60e51b815260206004820152601f60248201527f42455032303a206d696e7420746f20746865207a65726f206164647265737300604482015260640160405180910390fd5b80600660008282546200021491906200044a565b90915550506001600160a01b03821660009081526004602052604081208054839290620002439084906200044a565b90915550506040518181526001600160a01b038316906000907fddf252ad1be2c89b69c2b068fc378daa952ba7f163c4a11628f55a4df523b3ef9060200160405180910390a35b5050565b6000828152600a602090815260408083206001600160a01b038516845290915290205460ff166200028a576000828152600a602090815260408083206001600160a01b03851684529091529020805460ff19166001179055620002ee3390565b6001600160a01b0316816001600160a01b0316837f2f8788117e7eff1d82e926ec794901d17c78024a50270940304540a733656f0d60405160405180910390a45050565b600062000349836001600160a01b03841662000352565b90505b92915050565b60008181526001830160205260408120546200039b575081546001818101845560008481526020808220909301849055845484825282860190935260409020919091556200034c565b5060006200034c565b828054620003b2906200058f565b90600052602060002090601f016020900481019282620003d6576000855562000421565b82601f10620003f157805160ff191683800117855562000421565b8280016001018555821562000421579182015b828111156200042157825182559160200191906001019062000404565b506200042f92915062000433565b5090565b5b808211156200042f576000815560010162000434565b60008219821115620004605762000460620005cc565b500190565b600181815b80851115620004a65781600019048211156200048a576200048a620005cc565b808516156200049857918102915b93841c93908002906200046a565b509250929050565b60006200034960ff841683600082620004ca575060016200034c565b81620004d9575060006200034c565b8160018114620004f25760028114620004fd576200051d565b60019150506200034c565b60ff841115620005115762000511620005cc565b50506001821b6200034c565b5060208310610133831016604e8410600b841016171562000542575081810a6200034c565b6200054e838362000465565b8060001904821115620005655762000565620005cc565b029392505050565b60008160001904831182151516156200058a576200058a620005cc565b500290565b600181811c90821680620005a457607f821691505b60208210811415620005c657634e487b7160e01b600052602260045260246000fd5b50919050565b634e487b7160e01b600052601160045260246000fd5b6121f480620005f26000396000f3fe608060405234801561001057600080fd5b50600436106101fb5760003560e01c80636ff1c9bc1161011a578063a457c2d7116100ad578063d5215d111161007c578063d5215d1114610491578063d5391393146104a4578063d547741f146104cb578063da91b76e146104de578063dd62ed3e146104e757600080fd5b8063a457c2d714610430578063a77cac7a14610443578063a9059cbb1461046b578063ca15c8731461047e57600080fd5b806391d14854116100e957806391d148541461040557806395d89b41146104185780639ad3a7ba14610420578063a217fddf1461042857600080fd5b80636ff1c9bc146103a357806370a08231146103b65780638d876ecd146103df5780639010d07c146103f257600080fd5b80632f2ff15d1161019257806340c10f191161016157806340c10f191461032b578063494488981461033e578063532f1fed146103695780635622fd901461037c57600080fd5b80632f2ff15d146102dd578063313ce567146102f057806336568abe14610305578063395093511461031857600080fd5b80631b29b0cd116101ce5780631b29b0cd1461026257806323b872dd14610292578063248a9ca3146102a55780632e15e5c7146102c857600080fd5b806301ffc9a71461020057806306fdde0314610228578063095ea7b31461023d57806318160ddd14610250575b600080fd5b61021361020e366004611ee8565b610520565b60405190151581526020015b60405180910390f35b61023061054b565b60405161021f9190611fe4565b61021361024b366004611e44565b6105dd565b6006545b60405190815260200161021f565b61026a6105f3565b604080519586526020860194909452928401919091526060830152608082015260a00161021f565b6102136102a0366004611d8b565b6106c7565b6102546102b3366004611e8d565b6000908152600a602052604090206001015490565b6102db6102d6366004611d3f565b610731565b005b6102db6102eb366004611ea5565b610770565b60075460405160ff909116815260200161021f565b6102db610313366004611ea5565b61079b565b610213610326366004611e44565b610819565b6102db610339366004611e44565b61084f565b600254610351906001600160a01b031681565b6040516001600160a01b03909116815260200161021f565b6102db610377366004611dc6565b610884565b6102547f66f144ecd65ad16d38ecdba8687842af4bc05fde66fe3d999569a3006349785f81565b6102db6103b1366004611d3f565b6109d4565b6102546103c4366004611d3f565b6001600160a01b031660009081526004602052604090205490565b6102db6103ed366004611f28565b610ad7565b610351610400366004611ec7565b610c68565b610213610413366004611ea5565b610c80565b610230610cab565b6102db610cba565b610254600081565b61021361043e366004611e44565b610d2e565b610456610451366004611e8d565b610d7d565b6040805192835260208301919091520161021f565b610213610479366004611e44565b610dab565b61025461048c366004611e8d565b610db8565b600354610351906001600160a01b031681565b6102547f9f2df0fed2c77648de5860a4cc508cd0818c85b8b8a1ab4ceeef8d981c8956a681565b6102db6104d9366004611ea5565b610dcf565b61025460015481565b6102546104f5366004611d59565b6001600160a01b03918216600090815260056020908152604080832093909416825291909152205490565b60006001600160e01b03198216635a05180f60e01b1480610545575061054582610e90565b92915050565b60606009805461055a906120df565b80601f0160208091040260200160405190810160405280929190818152602001828054610586906120df565b80156105d35780601f106105a8576101008083540402835291602001916105d3565b820191906000526020600020905b8154815290600101906020018083116105b657829003601f168201915b5050505050905090565b60006105ea338484610ec5565b50600192915050565b60008060008060008060015411156106b05760015460005b6000548110156106ad57600080828154811061063757634e487b7160e01b600052603260045260246000fd5b90600052602060002090600402019050806000015483610657919061204e565b925082421161069a5761066b82600161204e565b815460018301543360009081526003909401602052604090932054919950975092955093509091506106c09050565b50806106a58161211a565b91505061060b565b50505b5060009350839250829150819050805b9091929394565b60006106d4848484610fea565b61072684336107218560405180606001604052806028815260200161214c602891396001600160a01b038a166000908152600560209081526040808320338452909152902054919061117b565b610ec5565b5060015b9392505050565b6003546001600160a01b031633146107645760405162461bcd60e51b815260040161075b90612017565b60405180910390fd5b61076d816111a7565b50565b6000828152600a602052604090206001015461078c8133611265565b61079683836112c9565b505050565b6001600160a01b038116331461080b5760405162461bcd60e51b815260206004820152602f60248201527f416363657373436f6e74726f6c3a2063616e206f6e6c792072656e6f756e636560448201526e103937b632b9903337b91039b2b63360891b606482015260840161075b565b61081582826112eb565b5050565b3360008181526005602090815260408083206001600160a01b038716845290915281205490916105ea918590610721908661130d565b7f9f2df0fed2c77648de5860a4cc508cd0818c85b8b8a1ab4ceeef8d981c8956a661087a8133611265565b6107968383611319565b6003546001600160a01b031633146108ae5760405162461bcd60e51b815260040161075b90612017565b8281146108f45760405162461bcd60e51b8152602060048201526014602482015273496e76616c69642077686974656c69737428732960601b604482015260640161075b565b600280546001600160a01b0319166001600160a01b03871617905582156109cd57610920600080611c9e565b60005b838110156109cb57600080546001810182559080526004027f290decd9548b62a8d60345a988386fc84ba6bc95484008f6362f93160ef3e5630185858381811061097d57634e487b7160e01b600052603260045260246000fd5b60200291909101358255508383838181106109a857634e487b7160e01b600052603260045260246000fd5b9050602002013581600101819055505080806109c39061211a565b915050610923565b505b5050505050565b7f66f144ecd65ad16d38ecdba8687842af4bc05fde66fe3d999569a3006349785f6109ff8133611265565b6040516370a0823160e01b81523060048201526000906001600160a01b038416906370a082319060240160206040518083038186803b158015610a4157600080fd5b505afa158015610a55573d6000803e3d6000fd5b505050506040513d601f19601f82011682018060405250810190610a799190611f10565b905060008111610ac35760405162461bcd60e51b81526020600482015260156024820152744e6f20746f6b656e7320746f20776974686472617760581b604482015260640161075b565b6107966001600160a01b03841633836113f8565b6003546001600160a01b03163314610b015760405162461bcd60e51b815260040161075b90612017565b6000548310610b425760405162461bcd60e51b815260206004820152600d60248201526c092dcecc2d8d2c840d2dcc8caf609b1b604482015260640161075b565b60008111610b865760405162461bcd60e51b8152602060048201526011602482015270092dcecc2d8d2c840c2dadeeadce89ac2f607b1b604482015260640161075b565b60008381548110610ba757634e487b7160e01b600052603260045260246000fd5b9060005260206000209060040201600001548214610bf3578160008481548110610be157634e487b7160e01b600052603260045260246000fd5b60009182526020909120600490910201555b60008381548110610c1457634e487b7160e01b600052603260045260246000fd5b9060005260206000209060040201600101548114610796578060008481548110610c4e57634e487b7160e01b600052603260045260246000fd5b906000526020600020906004020160010181905550505050565b6000828152600b6020526040812061072a908361144a565b6000918252600a602090815260408084206001600160a01b0393909316845291905290205460ff1690565b60606008805461055a906120df565b6003546001600160a01b03163314610ce45760405162461bcd60e51b815260040161075b90612017565b6003546040516000916001600160a01b0316907f4e78506f3260e366dc9440ee0b4eca2d03aa91536b7605deb90e873d3fc4e5b4908390a3600380546001600160a01b0319169055565b60006105ea33846107218560405180606001604052806025815260200161219a602591393360009081526005602090815260408083206001600160a01b038d168452909152902054919061117b565b60008181548110610d8d57600080fd5b60009182526020909120600490910201805460019091015490915082565b60006105ea338484610fea565b6000818152600b6020526040812061054590611456565b6000828152600a6020526040902060010154610deb8133611265565b61079683836112eb565b610dff8282610c80565b610815576000828152600a602090815260408083206001600160a01b03851684529091529020805460ff19166001179055610e373390565b6001600160a01b0316816001600160a01b0316837f2f8788117e7eff1d82e926ec794901d17c78024a50270940304540a733656f0d60405160405180910390a45050565b600061072a836001600160a01b038416611460565b60006001600160e01b03198216637965db0b60e01b148061054557506301ffc9a760e01b6001600160e01b0319831614610545565b6001600160a01b038316610f275760405162461bcd60e51b8152602060048201526024808201527f42455032303a20617070726f76652066726f6d20746865207a65726f206164646044820152637265737360e01b606482015260840161075b565b6001600160a01b038216610f885760405162461bcd60e51b815260206004820152602260248201527f42455032303a20617070726f766520746f20746865207a65726f206164647265604482015261737360f01b606482015260840161075b565b6001600160a01b0383811660008181526005602090815260408083209487168084529482529182902085905590518481527f8c5be1e5ebec7d5bd14f71427d1e84f3dd0314c0f7b2291e5b200ac8c7c3b92591015b60405180910390a3505050565b6001600160a01b03831661104e5760405162461bcd60e51b815260206004820152602560248201527f42455032303a207472616e736665722066726f6d20746865207a65726f206164604482015264647265737360d81b606482015260840161075b565b6001600160a01b0382166110b05760405162461bcd60e51b815260206004820152602360248201527f42455032303a207472616e7366657220746f20746865207a65726f206164647260448201526265737360e81b606482015260840161075b565b6110bb8383836114af565b6110f881604051806060016040528060268152602001612174602691396001600160a01b038616600090815260046020526040902054919061117b565b6001600160a01b038085166000908152600460205260408082209390935590841681522054611127908261130d565b6001600160a01b0380841660008181526004602052604090819020939093559151908516907fddf252ad1be2c89b69c2b068fc378daa952ba7f163c4a11628f55a4df523b3ef90610fdd9085815260200190565b6000818484111561119f5760405162461bcd60e51b815260040161075b9190611fe4565b505050900390565b6001600160a01b0381166112095760405162461bcd60e51b815260206004820152602360248201527f4e65772077686974656c697374657220697320746865207a65726f206164647260448201526265737360e81b606482015260840161075b565b6003546040516001600160a01b038084169216907f4e78506f3260e366dc9440ee0b4eca2d03aa91536b7605deb90e873d3fc4e5b490600090a3600380546001600160a01b0319166001600160a01b0392909216919091179055565b61126f8282610c80565b61081557611287816001600160a01b031660146116a1565b6112928360206116a1565b6040516020016112a3929190611f6f565b60408051601f198184030181529082905262461bcd60e51b825261075b91600401611fe4565b6112d38282610df5565b6000828152600b602052604090206107969082610e7b565b6112f58282611883565b6000828152600b6020526040902061079690826118ea565b600061072a828461204e565b6001600160a01b03821661136f5760405162461bcd60e51b815260206004820152601f60248201527f42455032303a206d696e7420746f20746865207a65726f206164647265737300604482015260640161075b565b8060066000828254611381919061204e565b90915550506001600160a01b038216600090815260046020526040812080548392906113ae90849061204e565b90915550506040518181526001600160a01b038316906000907fddf252ad1be2c89b69c2b068fc378daa952ba7f163c4a11628f55a4df523b3ef9060200160405180910390a35050565b604080516001600160a01b038416602482015260448082018490528251808303909101815260649091019091526020810180516001600160e01b031663a9059cbb60e01b1790526107969084906118ff565b600061072a83836119d1565b6000610545825490565b60008181526001830160205260408120546114a757508154600181810184556000848152602080822090930184905584548482528286019093526040902091909155610545565b506000610545565b6002546001600160a01b031615806114c75750600054155b156114d157505050565b6001541580156114ef57506002546001600160a01b03848116911614155b801561150857506002546001600160a01b038381169116145b80156115145750600081115b1561151e57426001555b6002546001600160a01b03848116911614801561154957506002546001600160a01b03838116911614155b156107965760006115586105f3565b505050509050600081111561169b57600080611575600184612085565b8154811061159357634e487b7160e01b600052603260045260246000fd5b600091825260208083206001600490930201918201546001600160a01b038816845260038301909152604083205491935011156115f7576001600160a01b038516600090815260038301602052604090205460018301546115f49190612085565b90505b808411156116535760405162461bcd60e51b815260206004820152602360248201527f4c4745202d20416d6f756e742065786365656473206d6178696d756d20616d6f6044820152621d5b9d60ea1b606482015260840161075b565b6001600160a01b038516600090815260038301602052604090205461167990859061204e565b6001600160a01b03861660009081526003909301602052604090922091909155505b50505050565b606060006116b0836002612066565b6116bb90600261204e565b67ffffffffffffffff8111156116e157634e487b7160e01b600052604160045260246000fd5b6040519080825280601f01601f19166020018201604052801561170b576020820181803683370190505b509050600360fc1b8160008151811061173457634e487b7160e01b600052603260045260246000fd5b60200101906001600160f81b031916908160001a905350600f60fb1b8160018151811061177157634e487b7160e01b600052603260045260246000fd5b60200101906001600160f81b031916908160001a9053506000611795846002612066565b6117a090600161204e565b90505b6001811115611834576f181899199a1a9b1b9c1cb0b131b232b360811b85600f16601081106117e257634e487b7160e01b600052603260045260246000fd5b1a60f81b82828151811061180657634e487b7160e01b600052603260045260246000fd5b60200101906001600160f81b031916908160001a90535060049490941c9361182d816120c8565b90506117a3565b50831561072a5760405162461bcd60e51b815260206004820181905260248201527f537472696e67733a20686578206c656e67746820696e73756666696369656e74604482015260640161075b565b61188d8282610c80565b15610815576000828152600a602090815260408083206001600160a01b0385168085529252808320805460ff1916905551339285917ff6391f5c32d9c69d2a47ea670b442974b53935d1edc7fd64eb21e047a839171b9190a45050565b600061072a836001600160a01b038416611a09565b6000611954826040518060400160405280602081526020017f5361666545524332303a206c6f772d6c6576656c2063616c6c206661696c6564815250856001600160a01b0316611b269092919063ffffffff16565b80519091501561079657808060200190518101906119729190611e6d565b6107965760405162461bcd60e51b815260206004820152602a60248201527f5361666545524332303a204552433230206f7065726174696f6e20646964206e6044820152691bdd081cdd58d8d9595960b21b606482015260840161075b565b60008260000182815481106119f657634e487b7160e01b600052603260045260246000fd5b9060005260206000200154905092915050565b60008181526001830160205260408120548015611b1c576000611a2d600183612085565b8554909150600090611a4190600190612085565b9050818114611ac2576000866000018281548110611a6f57634e487b7160e01b600052603260045260246000fd5b9060005260206000200154905080876000018481548110611aa057634e487b7160e01b600052603260045260246000fd5b6000918252602080832090910192909255918252600188019052604090208390555b8554869080611ae157634e487b7160e01b600052603160045260246000fd5b600190038181906000526020600020016000905590558560010160008681526020019081526020016000206000905560019350505050610545565b6000915050610545565b6060611b358484600085611b3d565b949350505050565b606082471015611b9e5760405162461bcd60e51b815260206004820152602660248201527f416464726573733a20696e73756666696369656e742062616c616e636520666f6044820152651c8818d85b1b60d21b606482015260840161075b565b843b611bec5760405162461bcd60e51b815260206004820152601d60248201527f416464726573733a2063616c6c20746f206e6f6e2d636f6e7472616374000000604482015260640161075b565b600080866001600160a01b03168587604051611c089190611f53565b60006040518083038185875af1925050503d8060008114611c45576040519150601f19603f3d011682016040523d82523d6000602084013e611c4a565b606091505b5091509150611c5a828286611c65565b979650505050505050565b60608315611c7457508161072a565b825115611c845782518084602001fd5b8160405162461bcd60e51b815260040161075b9190611fe4565b508054600082556004029060005260206000209081019061076d91905b80821115611cd55760008082556001820155600401611cbb565b5090565b80356001600160a01b0381168114611cf057600080fd5b919050565b60008083601f840112611d06578182fd5b50813567ffffffffffffffff811115611d1d578182fd5b6020830191508360208260051b8501011115611d3857600080fd5b9250929050565b600060208284031215611d50578081fd5b61072a82611cd9565b60008060408385031215611d6b578081fd5b611d7483611cd9565b9150611d8260208401611cd9565b90509250929050565b600080600060608486031215611d9f578081fd5b611da884611cd9565b9250611db660208501611cd9565b9150604084013590509250925092565b600080600080600060608688031215611ddd578081fd5b611de686611cd9565b9450602086013567ffffffffffffffff80821115611e02578283fd5b611e0e89838a01611cf5565b90965094506040880135915080821115611e26578283fd5b50611e3388828901611cf5565b969995985093965092949392505050565b60008060408385031215611e56578182fd5b611e5f83611cd9565b946020939093013593505050565b600060208284031215611e7e578081fd5b8151801515811461072a578182fd5b600060208284031215611e9e578081fd5b5035919050565b60008060408385031215611eb7578182fd5b82359150611d8260208401611cd9565b60008060408385031215611ed9578182fd5b50508035926020909101359150565b600060208284031215611ef9578081fd5b81356001600160e01b03198116811461072a578182fd5b600060208284031215611f21578081fd5b5051919050565b600080600060608486031215611f3c578283fd5b505081359360208301359350604090920135919050565b60008251611f6581846020870161209c565b9190910192915050565b7f416363657373436f6e74726f6c3a206163636f756e7420000000000000000000815260008351611fa781601785016020880161209c565b7001034b99036b4b9b9b4b733903937b6329607d1b6017918401918201528351611fd881602884016020880161209c565b01602801949350505050565b602081526000825180602084015261200381604085016020870161209c565b601f01601f19169190910160400192915050565b6020808252601d908201527f43616c6c6572206973206e6f74207468652077686974656c6973746572000000604082015260600190565b6000821982111561206157612061612135565b500190565b600081600019048311821515161561208057612080612135565b500290565b60008282101561209757612097612135565b500390565b60005b838110156120b757818101518382015260200161209f565b8381111561169b5750506000910152565b6000816120d7576120d7612135565b506000190190565b600181811c908216806120f357607f821691505b6020821081141561211457634e487b7160e01b600052602260045260246000fd5b50919050565b600060001982141561212e5761212e612135565b5060010190565b634e487b7160e01b600052601160045260246000fdfe42455032303a207472616e7366657220616d6f756e74206578636565647320616c6c6f77616e636542455032303a207472616e7366657220616d6f756e7420657863656564732062616c616e636542455032303a2064656372656173656420616c6c6f77616e63652062656c6f77207a65726fa26469706673582212208bd8c1272321fe09a2531577ceece292b911354f85cfc0f20e0cca31d90eb6e664736f6c63430008040033",
  "devdoc": {
    "kind": "dev",
    "methods": {
      "allowance(address,address)": {
        "details": "See {BEP20-allowance}."
      },
      "approve(address,uint256)": {
        "details": "See {BEP20-approve}. Requirements: - `spender` cannot be the zero address."
      },
      "balanceOf(address)": {
        "details": "See {BEP20-balanceOf}."
      },
      "decimals()": {
        "details": "Returns the token decimals."
      },
      "decreaseAllowance(address,uint256)": {
        "details": "Atomically decreases the allowance granted to `spender` by the caller. This is an alternative to {approve} that can be used as a mitigation for problems described in {BEP20-approve}. Emits an {Approval} event indicating the updated allowance. Requirements: - `spender` cannot be the zero address. - `spender` must have allowance for the caller of at least `subtractedValue`."
      },
      "getRoleAdmin(bytes32)": {
        "details": "Returns the admin role that controls `role`. See {grantRole} and {revokeRole}. To change a role's admin, use {_setRoleAdmin}."
      },
      "getRoleMember(bytes32,uint256)": {
        "details": "Returns one of the accounts that have `role`. `index` must be a value between 0 and {getRoleMemberCount}, non-inclusive. Role bearers are not sorted in any particular way, and their ordering may change at any point. WARNING: When using {getRoleMember} and {getRoleMemberCount}, make sure you perform all queries on the same block. See the following https://forum.openzeppelin.com/t/iterating-over-elements-on-enumerableset-in-openzeppelin-contracts/2296[forum post] for more information."
      },
      "getRoleMemberCount(bytes32)": {
        "details": "Returns the number of accounts that have `role`. Can be used together with {getRoleMember} to enumerate all bearers of a role."
      },
      "grantRole(bytes32,address)": {
        "details": "Grants `role` to `account`. If `account` had not been already granted `role`, emits a {RoleGranted} event. Requirements: - the caller must have ``role``'s admin role."
      },
      "hasRole(bytes32,address)": {
        "details": "Returns `true` if `account` has been granted `role`."
      },
      "increaseAllowance(address,uint256)": {
        "details": "Atomically increases the allowance granted to `spender` by the caller. This is an alternative to {approve} that can be used as a mitigation for problems described in {BEP20-approve}. Emits an {Approval} event indicating the updated allowance. Requirements: - `spender` cannot be the zero address."
      },
      "name()": {
        "details": "Returns the token name."
      },
      "renounceRole(bytes32,address)": {
        "details": "Revokes `role` from the calling account. Roles are often managed via {grantRole} and {revokeRole}: this function's purpose is to provide a mechanism for accounts to lose their privileges if they are compromised (such as when a trusted device is misplaced). If the calling account had been revoked `role`, emits a {RoleRevoked} event. Requirements: - the caller must be `account`."
      },
      "revokeRole(bytes32,address)": {
        "details": "Revokes `role` from `account`. If `account` had been granted `role`, emits a {RoleRevoked} event. Requirements: - the caller must have ``role``'s admin role."
      },
      "supportsInterface(bytes4)": {
        "details": "See {IERC165-supportsInterface}."
      },
      "symbol()": {
        "details": "Returns the token symbol."
      },
      "totalSupply()": {
        "details": "See {BEP20-totalSupply}."
      },
      "transfer(address,uint256)": {
        "details": "See {BEP20-transfer}. Requirements: - `recipient` cannot be the zero address. - the caller must have a balance of at least `amount`."
      },
      "transferFrom(address,address,uint256)": {
        "details": "See {BEP20-transferFrom}. Emits an {Approval} event indicating the updated allowance. This is not required by the EIP. See the note at the beginning of {BEP20}; Requirements: - `sender` and `recipient` cannot be the zero address. - `sender` must have a balance of at least `amount`. - the caller must have allowance for `sender`'s tokens of at least `amount`."
      }
    },
    "version": 1
  },
  "userdoc": {
    "kind": "user",
    "methods": {},
    "version": 1
  },
  "storageLayout": {
    "storage": [
      {
        "astId": 3757,
        "contract": "contracts/TestERC20.sol:TestERC20",
        "label": "_lgeWhitelistRounds",
        "offset": 0,
        "slot": "0",
        "type": "t_array(t_struct(WhitelistRound)3753_storage)dyn_storage"
      },
      {
        "astId": 3759,
        "contract": "contracts/TestERC20.sol:TestERC20",
        "label": "_lgeTimestamp",
        "offset": 0,
        "slot": "1",
        "type": "t_uint256"
      },
      {
        "astId": 3761,
        "contract": "contracts/TestERC20.sol:TestERC20",
        "label": "_lgePairAddress",
        "offset": 0,
        "slot": "2",
        "type": "t_address"
      },
      {
        "astId": 3763,
        "contract": "contracts/TestERC20.sol:TestERC20",
        "label": "_whitelister",
        "offset": 0,
        "slot": "3",
        "type": "t_address"
      },
      {
        "astId": 2428,
        "contract": "contracts/TestERC20.sol:TestERC20",
        "label": "_balances",
        "offset": 0,
        "slot": "4",
        "type": "t_mapping(t_address,t_uint256)"
      },
      {
        "astId": 2434,
        "contract": "contracts/TestERC20.sol:TestERC20",
        "label": "_allowances",
        "offset": 0,
        "slot": "5",
        "type": "t_mapping(t_address,t_mapping(t_address,t_uint256))"
      },
      {
        "astId": 2436,
        "contract": "contracts/TestERC20.sol:TestERC20",
        "label": "_totalSupply",
        "offset": 0,
        "slot": "6",
        "type": "t_uint256"
      },
      {
        "astId": 2438,
        "contract": "contracts/TestERC20.sol:TestERC20",
        "label": "_decimals",
        "offset": 0,
        "slot": "7",
        "type": "t_uint8"
      },
      {
        "astId": 2440,
        "contract": "contracts/TestERC20.sol:TestERC20",
        "label": "_symbol",
        "offset": 0,
        "slot": "8",
        "type": "t_string_storage"
      },
      {
        "astId": 2442,
        "contract": "contracts/TestERC20.sol:TestERC20",
        "label": "_name",
        "offset": 0,
        "slot": "9",
        "type": "t_string_storage"
      },
      {
        "astId": 24,
        "contract": "contracts/TestERC20.sol:TestERC20",
        "label": "_roles",
        "offset": 0,
        "slot": "10",
        "type": "t_mapping(t_bytes32,t_struct(RoleData)19_storage)"
      },
      {
        "astId": 327,
        "contract": "contracts/TestERC20.sol:TestERC20",
        "label": "_roleMembers",
        "offset": 0,
        "slot": "11",
        "type": "t_mapping(t_bytes32,t_struct(AddressSet)2120_storage)"
      }
    ],
    "types": {
      "t_address": {
        "encoding": "inplace",
        "label": "address",
        "numberOfBytes": "20"
      },
      "t_array(t_bytes32)dyn_storage": {
        "base": "t_bytes32",
        "encoding": "dynamic_array",
        "label": "bytes32[]",
        "numberOfBytes": "32"
      },
      "t_array(t_struct(WhitelistRound)3753_storage)dyn_storage": {
        "base": "t_struct(WhitelistRound)3753_storage",
        "encoding": "dynamic_array",
        "label": "struct LGEWhitelisted.WhitelistRound[]",
        "numberOfBytes": "32"
      },
      "t_bool": {
        "encoding": "inplace",
        "label": "bool",
        "numberOfBytes": "1"
      },
      "t_bytes32": {
        "encoding": "inplace",
        "label": "bytes32",
        "numberOfBytes": "32"
      },
      "t_mapping(t_address,t_bool)": {
        "encoding": "mapping",
        "key": "t_address",
        "label": "mapping(address => bool)",
        "numberOfBytes": "32",
        "value": "t_bool"
      },
      "t_mapping(t_address,t_mapping(t_address,t_uint256))": {
        "encoding": "mapping",
        "key": "t_address",
        "label": "mapping(address => mapping(address => uint256))",
        "numberOfBytes": "32",
        "value": "t_mapping(t_address,t_uint256)"
      },
      "t_mapping(t_address,t_uint256)": {
        "encoding": "mapping",
        "key": "t_address",
        "label": "mapping(address => uint256)",
        "numberOfBytes": "32",
        "value": "t_uint256"
      },
      "t_mapping(t_bytes32,t_struct(AddressSet)2120_storage)": {
        "encoding": "mapping",
        "key": "t_bytes32",
        "label": "mapping(bytes32 => struct EnumerableSet.AddressSet)",
        "numberOfBytes": "32",
        "value": "t_struct(AddressSet)2120_storage"
      },
      "t_mapping(t_bytes32,t_struct(RoleData)19_storage)": {
        "encoding": "mapping",
        "key": "t_bytes32",
        "label": "mapping(bytes32 => struct AccessControl.RoleData)",
        "numberOfBytes": "32",
        "value": "t_struct(RoleData)19_storage"
      },
      "t_mapping(t_bytes32,t_uint256)": {
        "encoding": "mapping",
        "key": "t_bytes32",
        "label": "mapping(bytes32 => uint256)",
        "numberOfBytes": "32",
        "value": "t_uint256"
      },
      "t_string_storage": {
        "encoding": "bytes",
        "label": "string",
        "numberOfBytes": "32"
      },
      "t_struct(AddressSet)2120_storage": {
        "encoding": "inplace",
        "label": "struct EnumerableSet.AddressSet",
        "members": [
          {
            "astId": 2119,
            "contract": "contracts/TestERC20.sol:TestERC20",
            "label": "_inner",
            "offset": 0,
            "slot": "0",
            "type": "t_struct(Set)1819_storage"
          }
        ],
        "numberOfBytes": "64"
      },
      "t_struct(RoleData)19_storage": {
        "encoding": "inplace",
        "label": "struct AccessControl.RoleData",
        "members": [
          {
            "astId": 16,
            "contract": "contracts/TestERC20.sol:TestERC20",
            "label": "members",
            "offset": 0,
            "slot": "0",
            "type": "t_mapping(t_address,t_bool)"
          },
          {
            "astId": 18,
            "contract": "contracts/TestERC20.sol:TestERC20",
            "label": "adminRole",
            "offset": 0,
            "slot": "1",
            "type": "t_bytes32"
          }
        ],
        "numberOfBytes": "64"
      },
      "t_struct(Set)1819_storage": {
        "encoding": "inplace",
        "label": "struct EnumerableSet.Set",
        "members": [
          {
            "astId": 1814,
            "contract": "contracts/TestERC20.sol:TestERC20",
            "label": "_values",
            "offset": 0,
            "slot": "0",
            "type": "t_array(t_bytes32)dyn_storage"
          },
          {
            "astId": 1818,
            "contract": "contracts/TestERC20.sol:TestERC20",
            "label": "_indexes",
            "offset": 0,
            "slot": "1",
            "type": "t_mapping(t_bytes32,t_uint256)"
          }
        ],
        "numberOfBytes": "64"
      },
      "t_struct(WhitelistRound)3753_storage": {
        "encoding": "inplace",
        "label": "struct LGEWhitelisted.WhitelistRound",
        "members": [
          {
            "astId": 3742,
            "contract": "contracts/TestERC20.sol:TestERC20",
            "label": "duration",
            "offset": 0,
            "slot": "0",
            "type": "t_uint256"
          },
          {
            "astId": 3744,
            "contract": "contracts/TestERC20.sol:TestERC20",
            "label": "amountMax",
            "offset": 0,
            "slot": "1",
            "type": "t_uint256"
          },
          {
            "astId": 3748,
            "contract": "contracts/TestERC20.sol:TestERC20",
            "label": "addresses",
            "offset": 0,
            "slot": "2",
            "type": "t_mapping(t_address,t_bool)"
          },
          {
            "astId": 3752,
            "contract": "contracts/TestERC20.sol:TestERC20",
            "label": "purchased",
            "offset": 0,
            "slot": "3",
            "type": "t_mapping(t_address,t_uint256)"
          }
        ],
        "numberOfBytes": "128"
      },
      "t_uint256": {
        "encoding": "inplace",
        "label": "uint256",
        "numberOfBytes": "32"
      },
      "t_uint8": {
        "encoding": "inplace",
        "label": "uint8",
        "numberOfBytes": "1"
      }
    }
  }
}