{
  "address": "0xAF0946EB2217cD93060C1712708a333A649ab94A",
  "abi": [
    {
      "inputs": [
        {
          "internalType": "address",
          "name": "multiSigWalletAddress",
          "type": "address"
        }
      ],
      "stateMutability": "nonpayable",
      "type": "constructor"
    },
    {
      "anonymous": false,
      "inputs": [
        {
          "indexed": true,
          "internalType": "address",
          "name": "owner",
          "type": "address"
        },
        {
          "indexed": true,
          "internalType": "address",
          "name": "spender",
          "type": "address"
        },
        {
          "indexed": false,
          "internalType": "uint256",
          "name": "value",
          "type": "uint256"
        }
      ],
      "name": "Approval",
      "type": "event"
    },
    {
      "anonymous": false,
      "inputs": [
        {
          "indexed": true,
          "internalType": "address",
          "name": "burner",
          "type": "address"
        },
        {
          "indexed": false,
          "internalType": "uint256",
          "name": "burnAmount",
          "type": "uint256"
        }
      ],
      "name": "Burned",
      "type": "event"
    },
    {
      "anonymous": false,
      "inputs": [
        {
          "indexed": true,
          "internalType": "address",
          "name": "delegator",
          "type": "address"
        },
        {
          "indexed": true,
          "internalType": "address",
          "name": "fromDelegate",
          "type": "address"
        },
        {
          "indexed": true,
          "internalType": "address",
          "name": "toDelegate",
          "type": "address"
        }
      ],
      "name": "DelegateChanged",
      "type": "event"
    },
    {
      "anonymous": false,
      "inputs": [
        {
          "indexed": true,
          "internalType": "address",
          "name": "delegate",
          "type": "address"
        },
        {
          "indexed": false,
          "internalType": "uint256",
          "name": "previousBalance",
          "type": "uint256"
        },
        {
          "indexed": false,
          "internalType": "uint256",
          "name": "newBalance",
          "type": "uint256"
        }
      ],
      "name": "DelegateVotesChanged",
      "type": "event"
    },
    {
      "anonymous": false,
      "inputs": [
        {
          "indexed": true,
          "internalType": "address",
          "name": "minter",
          "type": "address"
        },
        {
          "indexed": true,
          "internalType": "address",
          "name": "receiver",
          "type": "address"
        },
        {
          "indexed": false,
          "internalType": "uint256",
          "name": "mintAmount",
          "type": "uint256"
        }
      ],
      "name": "Minted",
      "type": "event"
    },
    {
      "anonymous": false,
      "inputs": [
        {
          "indexed": true,
          "internalType": "bytes32",
          "name": "role",
          "type": "bytes32"
        },
        {
          "indexed": true,
          "internalType": "bytes32",
          "name": "previousAdminRole",
          "type": "bytes32"
        },
        {
          "indexed": true,
          "internalType": "bytes32",
          "name": "newAdminRole",
          "type": "bytes32"
        }
      ],
      "name": "RoleAdminChanged",
      "type": "event"
    },
    {
      "anonymous": false,
      "inputs": [
        {
          "indexed": true,
          "internalType": "bytes32",
          "name": "role",
          "type": "bytes32"
        },
        {
          "indexed": true,
          "internalType": "address",
          "name": "account",
          "type": "address"
        },
        {
          "indexed": true,
          "internalType": "address",
          "name": "sender",
          "type": "address"
        }
      ],
      "name": "RoleGranted",
      "type": "event"
    },
    {
      "anonymous": false,
      "inputs": [
        {
          "indexed": true,
          "internalType": "bytes32",
          "name": "role",
          "type": "bytes32"
        },
        {
          "indexed": true,
          "internalType": "address",
          "name": "account",
          "type": "address"
        },
        {
          "indexed": true,
          "internalType": "address",
          "name": "sender",
          "type": "address"
        }
      ],
      "name": "RoleRevoked",
      "type": "event"
    },
    {
      "anonymous": false,
      "inputs": [
        {
          "indexed": true,
          "internalType": "address",
          "name": "from",
          "type": "address"
        },
        {
          "indexed": true,
          "internalType": "address",
          "name": "to",
          "type": "address"
        },
        {
          "indexed": false,
          "internalType": "uint256",
          "name": "value",
          "type": "uint256"
        }
      ],
      "name": "Transfer",
      "type": "event"
    },
    {
      "anonymous": false,
      "inputs": [
        {
          "indexed": true,
          "internalType": "address",
          "name": "previousWhitelister",
          "type": "address"
        },
        {
          "indexed": true,
          "internalType": "address",
          "name": "newWhitelister",
          "type": "address"
        }
      ],
      "name": "WhitelisterTransferred",
      "type": "event"
    },
    {
      "inputs": [],
      "name": "DEFAULT_ADMIN_ROLE",
      "outputs": [
        {
          "internalType": "bytes32",
          "name": "",
          "type": "bytes32"
        }
      ],
      "stateMutability": "view",
      "type": "function"
    },
    {
      "inputs": [],
      "name": "DELEGATION_TYPEHASH",
      "outputs": [
        {
          "internalType": "bytes32",
          "name": "",
          "type": "bytes32"
        }
      ],
      "stateMutability": "view",
      "type": "function"
    },
    {
      "inputs": [],
      "name": "DOMAIN_TYPEHASH",
      "outputs": [
        {
          "internalType": "bytes32",
          "name": "",
          "type": "bytes32"
        }
      ],
      "stateMutability": "view",
      "type": "function"
    },
    {
      "inputs": [],
      "name": "MINTER_ROLE",
      "outputs": [
        {
          "internalType": "bytes32",
          "name": "",
          "type": "bytes32"
        }
      ],
      "stateMutability": "view",
      "type": "function"
    },
    {
      "inputs": [],
      "name": "_lgePairAddress",
      "outputs": [
        {
          "internalType": "address",
          "name": "",
          "type": "address"
        }
      ],
      "stateMutability": "view",
      "type": "function"
    },
    {
      "inputs": [],
      "name": "_lgeTimestamp",
      "outputs": [
        {
          "internalType": "uint256",
          "name": "",
          "type": "uint256"
        }
      ],
      "stateMutability": "view",
      "type": "function"
    },
    {
      "inputs": [
        {
          "internalType": "uint256",
          "name": "",
          "type": "uint256"
        }
      ],
      "name": "_lgeWhitelistRounds",
      "outputs": [
        {
          "internalType": "uint256",
          "name": "duration",
          "type": "uint256"
        },
        {
          "internalType": "uint256",
          "name": "amountMax",
          "type": "uint256"
        }
      ],
      "stateMutability": "view",
      "type": "function"
    },
    {
      "inputs": [],
      "name": "_whitelister",
      "outputs": [
        {
          "internalType": "address",
          "name": "",
          "type": "address"
        }
      ],
      "stateMutability": "view",
      "type": "function"
    },
    {
      "inputs": [
        {
          "internalType": "address",
          "name": "owner",
          "type": "address"
        },
        {
          "internalType": "address",
          "name": "spender",
          "type": "address"
        }
      ],
      "name": "allowance",
      "outputs": [
        {
          "internalType": "uint256",
          "name": "",
          "type": "uint256"
        }
      ],
      "stateMutability": "view",
      "type": "function"
    },
    {
      "inputs": [
        {
          "internalType": "address",
          "name": "spender",
          "type": "address"
        },
        {
          "internalType": "uint256",
          "name": "amount",
          "type": "uint256"
        }
      ],
      "name": "approve",
      "outputs": [
        {
          "internalType": "bool",
          "name": "",
          "type": "bool"
        }
      ],
      "stateMutability": "nonpayable",
      "type": "function"
    },
    {
      "inputs": [
        {
          "internalType": "address",
          "name": "account",
          "type": "address"
        }
      ],
      "name": "balanceOf",
      "outputs": [
        {
          "internalType": "uint256",
          "name": "",
          "type": "uint256"
        }
      ],
      "stateMutability": "view",
      "type": "function"
    },
    {
      "inputs": [
        {
          "internalType": "uint256",
          "name": "amount",
          "type": "uint256"
        }
      ],
      "name": "burn",
      "outputs": [],
      "stateMutability": "nonpayable",
      "type": "function"
    },
    {
      "inputs": [],
      "name": "cap",
      "outputs": [
        {
          "internalType": "uint256",
          "name": "",
          "type": "uint256"
        }
      ],
      "stateMutability": "view",
      "type": "function"
    },
    {
      "inputs": [
        {
          "internalType": "address",
          "name": "",
          "type": "address"
        },
        {
          "internalType": "uint32",
          "name": "",
          "type": "uint32"
        }
      ],
      "name": "checkpoints",
      "outputs": [
        {
          "internalType": "uint256",
          "name": "fromBlock",
          "type": "uint256"
        },
        {
          "internalType": "uint256",
          "name": "votes",
          "type": "uint256"
        }
      ],
      "stateMutability": "view",
      "type": "function"
    },
    {
      "inputs": [
        {
          "internalType": "address",
          "name": "pairAddress",
          "type": "address"
        },
        {
          "internalType": "uint256[]",
          "name": "durations",
          "type": "uint256[]"
        },
        {
          "internalType": "uint256[]",
          "name": "amountsMax",
          "type": "uint256[]"
        }
      ],
      "name": "createLGEWhitelist",
      "outputs": [],
      "stateMutability": "nonpayable",
      "type": "function"
    },
    {
      "inputs": [],
      "name": "decimals",
      "outputs": [
        {
          "internalType": "uint8",
          "name": "",
          "type": "uint8"
        }
      ],
      "stateMutability": "view",
      "type": "function"
    },
    {
      "inputs": [
        {
          "internalType": "address",
          "name": "spender",
          "type": "address"
        },
        {
          "internalType": "uint256",
          "name": "subtractedValue",
          "type": "uint256"
        }
      ],
      "name": "decreaseAllowance",
      "outputs": [
        {
          "internalType": "bool",
          "name": "",
          "type": "bool"
        }
      ],
      "stateMutability": "nonpayable",
      "type": "function"
    },
    {
      "inputs": [
        {
          "internalType": "address",
          "name": "delegatee",
          "type": "address"
        }
      ],
      "name": "delegate",
      "outputs": [],
      "stateMutability": "nonpayable",
      "type": "function"
    },
    {
      "inputs": [
        {
          "internalType": "address",
          "name": "delegatee",
          "type": "address"
        },
        {
          "internalType": "uint256",
          "name": "nonce",
          "type": "uint256"
        },
        {
          "internalType": "uint256",
          "name": "expiry",
          "type": "uint256"
        },
        {
          "internalType": "uint8",
          "name": "v",
          "type": "uint8"
        },
        {
          "internalType": "bytes32",
          "name": "r",
          "type": "bytes32"
        },
        {
          "internalType": "bytes32",
          "name": "s",
          "type": "bytes32"
        }
      ],
      "name": "delegateBySig",
      "outputs": [],
      "stateMutability": "nonpayable",
      "type": "function"
    },
    {
      "inputs": [
        {
          "internalType": "address",
          "name": "delegator",
          "type": "address"
        }
      ],
      "name": "delegates",
      "outputs": [
        {
          "internalType": "address",
          "name": "",
          "type": "address"
        }
      ],
      "stateMutability": "view",
      "type": "function"
    },
    {
      "inputs": [
        {
          "internalType": "address",
          "name": "account",
          "type": "address"
        }
      ],
      "name": "getCurrentVotes",
      "outputs": [
        {
          "internalType": "uint256",
          "name": "",
          "type": "uint256"
        }
      ],
      "stateMutability": "view",
      "type": "function"
    },
    {
      "inputs": [],
      "name": "getLGEWhitelistRound",
      "outputs": [
        {
          "internalType": "uint256",
          "name": "",
          "type": "uint256"
        },
        {
          "internalType": "uint256",
          "name": "",
          "type": "uint256"
        },
        {
          "internalType": "uint256",
          "name": "",
          "type": "uint256"
        },
        {
          "internalType": "uint256",
          "name": "",
          "type": "uint256"
        },
        {
          "internalType": "bool",
          "name": "",
          "type": "bool"
        },
        {
          "internalType": "uint256",
          "name": "",
          "type": "uint256"
        }
      ],
      "stateMutability": "view",
      "type": "function"
    },
    {
      "inputs": [
        {
          "internalType": "address",
          "name": "account",
          "type": "address"
        },
        {
          "internalType": "uint256",
          "name": "blockNumber",
          "type": "uint256"
        }
      ],
      "name": "getPriorVotes",
      "outputs": [
        {
          "internalType": "uint256",
          "name": "",
          "type": "uint256"
        }
      ],
      "stateMutability": "view",
      "type": "function"
    },
    {
      "inputs": [
        {
          "internalType": "bytes32",
          "name": "role",
          "type": "bytes32"
        }
      ],
      "name": "getRoleAdmin",
      "outputs": [
        {
          "internalType": "bytes32",
          "name": "",
          "type": "bytes32"
        }
      ],
      "stateMutability": "view",
      "type": "function"
    },
    {
      "inputs": [
        {
          "internalType": "bytes32",
          "name": "role",
          "type": "bytes32"
        },
        {
          "internalType": "address",
          "name": "account",
          "type": "address"
        }
      ],
      "name": "grantRole",
      "outputs": [],
      "stateMutability": "nonpayable",
      "type": "function"
    },
    {
      "inputs": [
        {
          "internalType": "bytes32",
          "name": "role",
          "type": "bytes32"
        },
        {
          "internalType": "address",
          "name": "account",
          "type": "address"
        }
      ],
      "name": "hasRole",
      "outputs": [
        {
          "internalType": "bool",
          "name": "",
          "type": "bool"
        }
      ],
      "stateMutability": "view",
      "type": "function"
    },
    {
      "inputs": [
        {
          "internalType": "address",
          "name": "spender",
          "type": "address"
        },
        {
          "internalType": "uint256",
          "name": "addedValue",
          "type": "uint256"
        }
      ],
      "name": "increaseAllowance",
      "outputs": [
        {
          "internalType": "bool",
          "name": "",
          "type": "bool"
        }
      ],
      "stateMutability": "nonpayable",
      "type": "function"
    },
    {
      "inputs": [
        {
          "internalType": "address",
          "name": "to",
          "type": "address"
        },
        {
          "internalType": "uint256",
          "name": "amount",
          "type": "uint256"
        }
      ],
      "name": "mint",
      "outputs": [],
      "stateMutability": "nonpayable",
      "type": "function"
    },
    {
      "inputs": [
        {
          "internalType": "uint256",
          "name": "index",
          "type": "uint256"
        },
        {
          "internalType": "uint256",
          "name": "duration",
          "type": "uint256"
        },
        {
          "internalType": "uint256",
          "name": "amountMax",
          "type": "uint256"
        },
        {
          "internalType": "address[]",
          "name": "addresses",
          "type": "address[]"
        },
        {
          "internalType": "bool",
          "name": "enabled",
          "type": "bool"
        }
      ],
      "name": "modifyLGEWhitelist",
      "outputs": [],
      "stateMutability": "nonpayable",
      "type": "function"
    },
    {
      "inputs": [],
      "name": "name",
      "outputs": [
        {
          "internalType": "string",
          "name": "",
          "type": "string"
        }
      ],
      "stateMutability": "view",
      "type": "function"
    },
    {
      "inputs": [
        {
          "internalType": "address",
          "name": "",
          "type": "address"
        }
      ],
      "name": "nonces",
      "outputs": [
        {
          "internalType": "uint256",
          "name": "",
          "type": "uint256"
        }
      ],
      "stateMutability": "view",
      "type": "function"
    },
    {
      "inputs": [
        {
          "internalType": "address",
          "name": "",
          "type": "address"
        }
      ],
      "name": "numCheckpoints",
      "outputs": [
        {
          "internalType": "uint32",
          "name": "",
          "type": "uint32"
        }
      ],
      "stateMutability": "view",
      "type": "function"
    },
    {
      "inputs": [
        {
          "internalType": "bytes32",
          "name": "role",
          "type": "bytes32"
        },
        {
          "internalType": "address",
          "name": "account",
          "type": "address"
        }
      ],
      "name": "renounceRole",
      "outputs": [],
      "stateMutability": "nonpayable",
      "type": "function"
    },
    {
      "inputs": [],
      "name": "renounceWhitelister",
      "outputs": [],
      "stateMutability": "nonpayable",
      "type": "function"
    },
    {
      "inputs": [
        {
          "internalType": "bytes32",
          "name": "role",
          "type": "bytes32"
        },
        {
          "internalType": "address",
          "name": "account",
          "type": "address"
        }
      ],
      "name": "revokeRole",
      "outputs": [],
      "stateMutability": "nonpayable",
      "type": "function"
    },
    {
      "inputs": [
        {
          "internalType": "bytes4",
          "name": "interfaceId",
          "type": "bytes4"
        }
      ],
      "name": "supportsInterface",
      "outputs": [
        {
          "internalType": "bool",
          "name": "",
          "type": "bool"
        }
      ],
      "stateMutability": "view",
      "type": "function"
    },
    {
      "inputs": [],
      "name": "symbol",
      "outputs": [
        {
          "internalType": "string",
          "name": "",
          "type": "string"
        }
      ],
      "stateMutability": "view",
      "type": "function"
    },
    {
      "inputs": [],
      "name": "totalSupply",
      "outputs": [
        {
          "internalType": "uint256",
          "name": "",
          "type": "uint256"
        }
      ],
      "stateMutability": "view",
      "type": "function"
    },
    {
      "inputs": [
        {
          "internalType": "address",
          "name": "recipient",
          "type": "address"
        },
        {
          "internalType": "uint256",
          "name": "amount",
          "type": "uint256"
        }
      ],
      "name": "transfer",
      "outputs": [
        {
          "internalType": "bool",
          "name": "",
          "type": "bool"
        }
      ],
      "stateMutability": "nonpayable",
      "type": "function"
    },
    {
      "inputs": [
        {
          "internalType": "address",
          "name": "sender",
          "type": "address"
        },
        {
          "internalType": "address",
          "name": "recipient",
          "type": "address"
        },
        {
          "internalType": "uint256",
          "name": "amount",
          "type": "uint256"
        }
      ],
      "name": "transferFrom",
      "outputs": [
        {
          "internalType": "bool",
          "name": "",
          "type": "bool"
        }
      ],
      "stateMutability": "nonpayable",
      "type": "function"
    },
    {
      "inputs": [
        {
          "internalType": "address",
          "name": "newWhitelister",
          "type": "address"
        }
      ],
      "name": "transferWhitelister",
      "outputs": [],
      "stateMutability": "nonpayable",
      "type": "function"
    }
  ],
  "transactionHash": "0xd4197e7af24b3e2c58551e150aec221cedeef394eb65a934ca7a941e2bce0a34",
  "args": [
    "0xD38236aA1a354ca8022Ee0e13dBDD9EC172ae11d"
  ],
  "numDeployments": 1,
  "solcInputHash": "dbb8e80ac49193827a9351a9f490cc48",
  "bytecode": "0x60a06040523480156200001157600080fd5b5060405162003106380380620031068339810160408190526200003491620003c9565b6040518060400160405280601181526020017011d85b1858dd1a58c8145d58591c985b9d607a1b81525060405180604001604052806002815260200161475160f01b815250620000896200017f60201b60201c565b600380546001600160a01b0319166001600160a01b03929092169190911790558151620000be90600990602085019062000323565b508051620000d490600890602084019062000323565b50506007805460ff1916601217905550620000f160008262000183565b6200011d7f9f2df0fed2c77648de5860a4cc508cd0818c85b8b8a1ab4ceeef8d981c8956a68262000183565b60075460ff166200013090600a6200045d565b62000141906402540be4006200051c565b60805262000178336200015660075460ff1690565b6200016390600a6200045d565b6200017290620f42406200051c565b6200020e565b5062000591565b3390565b6200018f8282620002f6565b6200020a576000828152600a602090815260408083206001600160a01b03851684529091529020805460ff19166001179055620001c93390565b6001600160a01b0316816001600160a01b0316837f2f8788117e7eff1d82e926ec794901d17c78024a50270940304540a733656f0d60405160405180910390a45b5050565b6001600160a01b038216620002695760405162461bcd60e51b815260206004820152601f60248201527f42455032303a206d696e7420746f20746865207a65726f206164647265737300604482015260640160405180910390fd5b80600660008282546200027d9190620003f9565b90915550506001600160a01b03821660009081526004602052604081208054839290620002ac908490620003f9565b90915550506040518181526001600160a01b038316906000907fddf252ad1be2c89b69c2b068fc378daa952ba7f163c4a11628f55a4df523b3ef9060200160405180910390a35050565b6000828152600a602090815260408083206001600160a01b038516845290915290205460ff165b92915050565b82805462000331906200053e565b90600052602060002090601f016020900481019282620003555760008555620003a0565b82601f106200037057805160ff1916838001178555620003a0565b82800160010185558215620003a0579182015b82811115620003a057825182559160200191906001019062000383565b50620003ae929150620003b2565b5090565b5b80821115620003ae5760008155600101620003b3565b600060208284031215620003db578081fd5b81516001600160a01b0381168114620003f2578182fd5b9392505050565b600082198211156200040f576200040f6200057b565b500190565b600181815b80851115620004555781600019048211156200043957620004396200057b565b808516156200044757918102915b93841c939080029062000419565b509250929050565b6000620003f260ff84168360008262000479575060016200031d565b8162000488575060006200031d565b8160018114620004a15760028114620004ac57620004cc565b60019150506200031d565b60ff841115620004c057620004c06200057b565b50506001821b6200031d565b5060208310610133831016604e8410600b8410161715620004f1575081810a6200031d565b620004fd838362000414565b80600019048211156200051457620005146200057b565b029392505050565b60008160001904831182151516156200053957620005396200057b565b500290565b600181811c908216806200055357607f821691505b602082108114156200057557634e487b7160e01b600052602260045260246000fd5b50919050565b634e487b7160e01b600052601160045260246000fd5b608051612b52620005b46000396000818161038d0152610a110152612b526000f3fe608060405234801561001057600080fd5b50600436106102535760003560e01c80635c19a95c11610146578063a77cac7a116100c3578063d539139311610087578063d5391393146105d6578063d547741f146105fd578063da91b76e14610610578063dd62ed3e14610619578063e7a324dc14610652578063f1127ed81461067957600080fd5b8063a77cac7a14610562578063a9059cbb1461058a578063b4b5ea571461059d578063c3cda520146105b0578063d5215d11146105c357600080fd5b806391d148541161010a57806391d148541461052457806395d89b41146105375780639ad3a7ba1461053f578063a217fddf14610547578063a457c2d71461054f57600080fd5b80635c19a95c1461047a5780636fcfff451461048d57806370a08231146104c8578063782d6fe1146104f15780637ecebe001461050457600080fd5b8063313ce567116101d457806342966c681161019857806342966c68146103ea57806344ade3c5146103fd5780634944889814610410578063532f1fed1461043b578063587cde1e1461044e57600080fd5b8063313ce56714610376578063355274ea1461038b57806336568abe146103b157806339509351146103c457806340c10f19146103d757600080fd5b806320606b701161021b57806320606b70146102f157806323b872dd14610318578063248a9ca31461032b5780632e15e5c71461034e5780632f2ff15d1461036357600080fd5b806301ffc9a71461025857806306fdde0314610280578063095ea7b31461029557806318160ddd146102a85780631b29b0cd146102ba575b600080fd5b61026b6102663660046127b4565b6106ab565b60405190151581526020015b60405180910390f35b6102886106e2565b60405161027791906128c6565b61026b6102a33660046126b5565b610774565b6006545b604051908152602001610277565b6102c261078a565b6040805196875260208701959095529385019290925260608401521515608083015260a082015260c001610277565b6102ac7f8cad95687ba82c2ce50e74f7b754645e5117c3a5bec8151c0726d5857980a86681565b61026b6103263660046125fc565b610877565b6102ac61033936600461277a565b6000908152600a602052604090206001015490565b61036161035c3660046125b0565b6108c1565b005b610361610371366004612792565b610900565b60075460405160ff9091168152602001610277565b7f00000000000000000000000000000000000000000000000000000000000000006102ac565b6103616103bf366004612792565b61092b565b61026b6103d23660046126b5565b6109a9565b6103616103e53660046126b5565b6109e4565b6103616103f836600461277a565b610ae2565b61036161040b3660046127dc565b610b4a565b600254610423906001600160a01b031681565b6040516001600160a01b039091168152602001610277565b610361610449366004612637565b610d8f565b61042361045c3660046125b0565b6001600160a01b039081166000908152600b60205260409020541690565b6103616104883660046125b0565b610edf565b6104b361049b3660046125b0565b600d6020526000908152604090205463ffffffff1681565b60405163ffffffff9091168152602001610277565b6102ac6104d63660046125b0565b6001600160a01b031660009081526004602052604090205490565b6102ac6104ff3660046126b5565b610ee9565b6102ac6105123660046125b0565b600e6020526000908152604090205481565b61026b610532366004612792565b611139565b610288611164565b610361611173565b6102ac600081565b61026b61055d3660046126b5565b6111e7565b61057561057036600461277a565b611236565b60408051928352602083019190915201610277565b61026b6105983660046126b5565b611264565b6102ac6105ab3660046125b0565b6112a2565b6103616105be3660046126de565b611317565b600354610423906001600160a01b031681565b6102ac7f9f2df0fed2c77648de5860a4cc508cd0818c85b8b8a1ab4ceeef8d981c8956a681565b61036161060b366004612792565b6115d3565b6102ac60015481565b6102ac6106273660046125ca565b6001600160a01b03918216600090815260056020908152604080832093909416825291909152205490565b6102ac7fe48329057bfd03d55e49b547132e39cffd9c1820ad7b9d4c5307691425d15adf81565b61057561068736600461273c565b600c6020908152600092835260408084209091529082529020805460019091015482565b60006001600160e01b03198216637965db0b60e01b14806106dc57506301ffc9a760e01b6001600160e01b03198316145b92915050565b6060600980546106f190612a3d565b80601f016020809104026020016040519081016040528092919081815260200182805461071d90612a3d565b801561076a5780601f1061073f5761010080835404028352916020019161076a565b820191906000526020600020905b81548152906001019060200180831161074d57829003601f168201915b5050505050905090565b60006107813384846115f9565b50600192915050565b6000806000806000806000600154111561085c5760015460005b6000548110156108595760008082815481106107d057634e487b7160e01b600052603260045260246000fd5b906000526020600020906004020190508060000154836107f09190612930565b925082421161084657610804826001612930565b815460018301543360009081526002850160209081526040808320546003909701909152902054929b5090995093975092955060ff16935090915061086f9050565b508061085181612a78565b9150506107a4565b50505b5060009450849350839250829150819050805b909192939495565b6000610884848484611715565b506001600160a01b038085166000908152600b60205260408082205486841683529120546108b79291821691168461176f565b5060019392505050565b6003546001600160a01b031633146108f45760405162461bcd60e51b81526004016108eb906128f9565b60405180910390fd5b6108fd816118ce565b50565b6000828152600a602052604090206001015461091c813361198c565b61092683836119f0565b505050565b6001600160a01b038116331461099b5760405162461bcd60e51b815260206004820152602f60248201527f416363657373436f6e74726f6c3a2063616e206f6e6c792072656e6f756e636560448201526e103937b632b9903337b91039b2b63360891b60648201526084016108eb565b6109a58282611a76565b5050565b3360008181526005602090815260408083206001600160a01b038716845290915281205490916107819185906109df9086611add565b6115f9565b7f9f2df0fed2c77648de5860a4cc508cd0818c85b8b8a1ab4ceeef8d981c8956a6610a0f813361198c565b7f000000000000000000000000000000000000000000000000000000000000000082610a3a60065490565b610a449190612930565b1115610a925760405162461bcd60e51b815260206004820152601960248201527f42455032304361707065643a204361702065786365656465640000000000000060448201526064016108eb565b610a9c8383611ae9565b6040518281526001600160a01b0384169033907f9d228d69b5fdb8d273a2336f8fb8612d039631024ea9bf09c424a9503aa078f0906020015b60405180910390a3505050565b610aec3382611bc8565b336000908152600b6020526040812054610b12916001600160a01b03909116908361176f565b60405181815233907f696de425f79f4a40bc6d2122ca50507f0efbeabbff86a84871b7196ab8ea8df79060200160405180910390a250565b6003546001600160a01b03163314610b745760405162461bcd60e51b81526004016108eb906128f9565b6000548610610bb55760405162461bcd60e51b815260206004820152600d60248201526c092dcecc2d8d2c840d2dcc8caf609b1b60448201526064016108eb565b60008411610bf95760405162461bcd60e51b8152602060048201526011602482015270092dcecc2d8d2c840c2dadeeadce89ac2f607b1b60448201526064016108eb565b60008681548110610c1a57634e487b7160e01b600052603260045260246000fd5b9060005260206000209060040201600001548514610c66578460008781548110610c5457634e487b7160e01b600052603260045260246000fd5b60009182526020909120600490910201555b60008681548110610c8757634e487b7160e01b600052603260045260246000fd5b9060005260206000209060040201600101548414610cd7578360008781548110610cc157634e487b7160e01b600052603260045260246000fd5b9060005260206000209060040201600101819055505b60005b82811015610d86578160008881548110610d0457634e487b7160e01b600052603260045260246000fd5b90600052602060002090600402016002016000868685818110610d3757634e487b7160e01b600052603260045260246000fd5b9050602002016020810190610d4c91906125b0565b6001600160a01b031681526020810191909152604001600020805460ff191691151591909117905580610d7e81612a78565b915050610cda565b50505050505050565b6003546001600160a01b03163314610db95760405162461bcd60e51b81526004016108eb906128f9565b828114610dff5760405162461bcd60e51b8152602060048201526014602482015273496e76616c69642077686974656c69737428732960601b60448201526064016108eb565b600280546001600160a01b0319166001600160a01b0387161790558215610ed857610e2b60008061250f565b60005b83811015610ed657600080546001810182559080526004027f290decd9548b62a8d60345a988386fc84ba6bc95484008f6362f93160ef3e56301858583818110610e8857634e487b7160e01b600052603260045260246000fd5b6020029190910135825550838383818110610eb357634e487b7160e01b600052603260045260246000fd5b905060200201358160010181905550508080610ece90612a78565b915050610e2e565b505b5050505050565b6108fd3382611d16565b6000438210610f485760405162461bcd60e51b815260206004820152602560248201527f47513a3a6765745072696f72566f7465733a206e6f74207965742064657465726044820152641b5a5b995960da1b60648201526084016108eb565b6001600160a01b0383166000908152600d602052604090205463ffffffff1680610f765760009150506106dc565b6001600160a01b0384166000908152600c602052604081208491610f9b6001856129d5565b63ffffffff16815260208101919091526040016000205411611001576001600160a01b0384166000908152600c6020526040812090610fdb6001846129d5565b63ffffffff1663ffffffff168152602001908152602001600020600101549150506106dc565b6001600160a01b0384166000908152600c602090815260408083208380529091529020548310156110365760009150506106dc565b6000806110446001846129d5565b90505b8163ffffffff168163ffffffff161115611102576000600261106984846129d5565b6110739190612970565b61107d90836129d5565b6001600160a01b0388166000908152600c6020908152604080832063ffffffff851684528252918290208251808401909352805480845260019091015491830191909152919250908714156110dc576020015194506106dc9350505050565b80518711156110ed578193506110fb565b6110f86001836129d5565b92505b5050611047565b506001600160a01b0385166000908152600c6020908152604080832063ffffffff9094168352929052206001015491505092915050565b6000918252600a602090815260408084206001600160a01b0393909316845291905290205460ff1690565b6060600880546106f190612a3d565b6003546001600160a01b0316331461119d5760405162461bcd60e51b81526004016108eb906128f9565b6003546040516000916001600160a01b0316907f4e78506f3260e366dc9440ee0b4eca2d03aa91536b7605deb90e873d3fc4e5b4908390a3600380546001600160a01b0319169055565b600061078133846109df85604051806060016040528060258152602001612af8602591393360009081526005602090815260408083206001600160a01b038d1684529091529020549190611d96565b6000818154811061124657600080fd5b60009182526020909120600490910201805460019091015490915082565b60006112708383611dc2565b50336000908152600b6020526040808220546001600160a01b038681168452919092205461078192821691168461176f565b6001600160a01b0381166000908152600d602052604081205463ffffffff16806112cd576000611310565b6001600160a01b0383166000908152600c60205260408120906112f16001846129d5565b63ffffffff1663ffffffff168152602001908152602001600020600101545b9392505050565b60007f8cad95687ba82c2ce50e74f7b754645e5117c3a5bec8151c0726d5857980a8666113426106e2565b805190602001206113504690565b60408051602080820195909552808201939093526060830191909152306080808401919091528151808403909101815260a0830182528051908401207fe48329057bfd03d55e49b547132e39cffd9c1820ad7b9d4c5307691425d15adf60c08401526001600160a01b038b1660e084015261010083018a90526101208084018a90528251808503909101815261014084019092528151919093012061190160f01b610160830152610162820183905261018282018190529192506000906101a20160408051601f198184030181528282528051602091820120600080855291840180845281905260ff8a169284019290925260608301889052608083018790529092509060019060a0016020604051602081039080840390855afa15801561147c573d6000803e3d6000fd5b5050604051601f1901519150506001600160a01b0381166114eb5760405162461bcd60e51b8152602060048201526024808201527f47513a3a64656c656761746542795369673a20696e76616c6964207369676e616044820152637475726560e01b60648201526084016108eb565b6001600160a01b0381166000908152600e6020526040812080549161150f83612a78565b9190505589146115615760405162461bcd60e51b815260206004820181905260248201527f47513a3a64656c656761746542795369673a20696e76616c6964206e6f6e636560448201526064016108eb565b874211156115bd5760405162461bcd60e51b8152602060048201526024808201527f47513a3a64656c656761746542795369673a207369676e6174757265206578706044820152631a5c995960e21b60648201526084016108eb565b6115c7818b611d16565b50505050505050505050565b6000828152600a60205260409020600101546115ef813361198c565b6109268383611a76565b6001600160a01b03831661165b5760405162461bcd60e51b8152602060048201526024808201527f42455032303a20617070726f76652066726f6d20746865207a65726f206164646044820152637265737360e01b60648201526084016108eb565b6001600160a01b0382166116bc5760405162461bcd60e51b815260206004820152602260248201527f42455032303a20617070726f766520746f20746865207a65726f206164647265604482015261737360f01b60648201526084016108eb565b6001600160a01b0383811660008181526005602090815260408083209487168084529482529182902085905590518481527f8c5be1e5ebec7d5bd14f71427d1e84f3dd0314c0f7b2291e5b200ac8c7c3b9259101610ad5565b6000611722848484611dcb565b6108b784336109df85604051806060016040528060288152602001612aaa602891396001600160a01b038a1660009081526005602090815260408083203384529091529020549190611d96565b816001600160a01b0316836001600160a01b0316141580156117915750600081115b15610926576001600160a01b03831615611834576001600160a01b0383166000908152600d602052604081205463ffffffff1690816117d1576000611814565b6001600160a01b0385166000908152600c60205260408120906117f56001856129d5565b63ffffffff1663ffffffff168152602001908152602001600020600101545b905060006118228285611f5c565b905061183086848484611f68565b5050505b6001600160a01b03821615610926576001600160a01b0382166000908152600d602052604081205463ffffffff16908161186f5760006118b2565b6001600160a01b0384166000908152600c60205260408120906118936001856129d5565b63ffffffff1663ffffffff168152602001908152602001600020600101545b905060006118c08285611add565b9050610ed685848484611f68565b6001600160a01b0381166119305760405162461bcd60e51b815260206004820152602360248201527f4e65772077686974656c697374657220697320746865207a65726f206164647260448201526265737360e81b60648201526084016108eb565b6003546040516001600160a01b038084169216907f4e78506f3260e366dc9440ee0b4eca2d03aa91536b7605deb90e873d3fc4e5b490600090a3600380546001600160a01b0319166001600160a01b0392909216919091179055565b6119968282611139565b6109a5576119ae816001600160a01b031660146120cc565b6119b98360206120cc565b6040516020016119ca929190612851565b60408051601f198184030181529082905262461bcd60e51b82526108eb916004016128c6565b6119fa8282611139565b6109a5576000828152600a602090815260408083206001600160a01b03851684529091529020805460ff19166001179055611a323390565b6001600160a01b0316816001600160a01b0316837f2f8788117e7eff1d82e926ec794901d17c78024a50270940304540a733656f0d60405160405180910390a45050565b611a808282611139565b156109a5576000828152600a602090815260408083206001600160a01b0385168085529252808320805460ff1916905551339285917ff6391f5c32d9c69d2a47ea670b442974b53935d1edc7fd64eb21e047a839171b9190a45050565b60006113108284612930565b6001600160a01b038216611b3f5760405162461bcd60e51b815260206004820152601f60248201527f42455032303a206d696e7420746f20746865207a65726f20616464726573730060448201526064016108eb565b8060066000828254611b519190612930565b90915550506001600160a01b03821660009081526004602052604081208054839290611b7e908490612930565b90915550506040518181526001600160a01b038316906000907fddf252ad1be2c89b69c2b068fc378daa952ba7f163c4a11628f55a4df523b3ef9060200160405180910390a35050565b6001600160a01b038216611c285760405162461bcd60e51b815260206004820152602160248201527f42455032303a206275726e2066726f6d20746865207a65726f206164647265736044820152607360f81b60648201526084016108eb565b6001600160a01b03821660009081526004602052604090205481811015611c9c5760405162461bcd60e51b815260206004820152602260248201527f42455032303a206275726e20616d6f756e7420657863656564732062616c616e604482015261636560f01b60648201526084016108eb565b6001600160a01b0383166000908152600460205260408120838303905560068054849290611ccb9084906129be565b90915550506040518281526000906001600160a01b038516907fddf252ad1be2c89b69c2b068fc378daa952ba7f163c4a11628f55a4df523b3ef9060200160405180910390a3505050565b6001600160a01b038281166000818152600b6020818152604080842080546004845282862054949093528787166001600160a01b03198416811790915590519190951694919391928592917f3134e8a2e6d97e929a7e54011ea5485d7d196dd5f0ba4d4ef95803e8e3fc257f9190a4611d9082848361176f565b50505050565b60008184841115611dba5760405162461bcd60e51b81526004016108eb91906128c6565b505050900390565b60006107813384845b6001600160a01b038316611e2f5760405162461bcd60e51b815260206004820152602560248201527f42455032303a207472616e736665722066726f6d20746865207a65726f206164604482015264647265737360d81b60648201526084016108eb565b6001600160a01b038216611e915760405162461bcd60e51b815260206004820152602360248201527f42455032303a207472616e7366657220746f20746865207a65726f206164647260448201526265737360e81b60648201526084016108eb565b611e9c8383836122ae565b611ed981604051806060016040528060268152602001612ad2602691396001600160a01b0386166000908152600460205260409020549190611d96565b6001600160a01b038085166000908152600460205260408082209390935590841681522054611f089082611add565b6001600160a01b0380841660008181526004602052604090819020939093559151908516907fddf252ad1be2c89b69c2b068fc378daa952ba7f163c4a11628f55a4df523b3ef90610ad59085815260200190565b600061131082846129be565b4363ffffffff841615801590611fb757506001600160a01b0385166000908152600c602052604081208291611f9e6001886129d5565b63ffffffff168152602081019190915260400160002054145b15612000576001600160a01b0385166000908152600c602052604081208391611fe16001886129d5565b63ffffffff168152602081019190915260400160002060010155612081565b60408051808201825282815260208082018581526001600160a01b0389166000908152600c835284812063ffffffff8a168252909252929020905181559051600191820155612050908590612948565b6001600160a01b0386166000908152600d60205260409020805463ffffffff191663ffffffff929092169190911790555b60408051848152602081018490526001600160a01b038716917fdec2bacdd2f05b59de34da9b523dff8be42e5e38e818c82fdb0bae774387a724910160405180910390a25050505050565b606060006120db83600261299f565b6120e6906002612930565b67ffffffffffffffff81111561210c57634e487b7160e01b600052604160045260246000fd5b6040519080825280601f01601f191660200182016040528015612136576020820181803683370190505b509050600360fc1b8160008151811061215f57634e487b7160e01b600052603260045260246000fd5b60200101906001600160f81b031916908160001a905350600f60fb1b8160018151811061219c57634e487b7160e01b600052603260045260246000fd5b60200101906001600160f81b031916908160001a90535060006121c084600261299f565b6121cb906001612930565b90505b600181111561225f576f181899199a1a9b1b9c1cb0b131b232b360811b85600f166010811061220d57634e487b7160e01b600052603260045260246000fd5b1a60f81b82828151811061223157634e487b7160e01b600052603260045260246000fd5b60200101906001600160f81b031916908160001a90535060049490941c9361225881612a26565b90506121ce565b5083156113105760405162461bcd60e51b815260206004820181905260248201527f537472696e67733a20686578206c656e67746820696e73756666696369656e7460448201526064016108eb565b6002546001600160a01b031615806122c65750600054155b156122d057505050565b6001541580156122ee57506002546001600160a01b03848116911614155b801561230757506002546001600160a01b038381169116145b80156123135750600081115b1561231d57426001555b6002546001600160a01b03848116911614801561234857506002546001600160a01b03838116911614155b1561092657600061235761078a565b505050505090506000811115611d90576000806123756001846129be565b8154811061239357634e487b7160e01b600052603260045260246000fd5b600091825260208083206001600160a01b03881684526002600490930201918201905260409091205490915060ff1661240e5760405162461bcd60e51b815260206004820152601e60248201527f4c4745202d204275796572206973206e6f742077686974656c6973746564000060448201526064016108eb565b60018101546001600160a01b038516600090815260038301602052604081205490911115612463576001600160a01b0385166000908152600383016020526040902054600183015461246091906129be565b90505b808411156124c25760405162461bcd60e51b815260206004820152602660248201527f4c4745202d20416d6f756e7420657863656564732077686974656c697374206d6044820152656178696d756d60d01b60648201526084016108eb565b6001600160a01b03851660009081526003830160205260409020546124e8908590612930565b6001600160a01b038616600090815260039093016020526040909220919091555050505050565b50805460008255600402906000526020600020908101906108fd91905b80821115612546576000808255600182015560040161252c565b5090565b80356001600160a01b038116811461256157600080fd5b919050565b60008083601f840112612577578182fd5b50813567ffffffffffffffff81111561258e578182fd5b6020830191508360208260051b85010111156125a957600080fd5b9250929050565b6000602082840312156125c1578081fd5b6113108261254a565b600080604083850312156125dc578081fd5b6125e58361254a565b91506125f36020840161254a565b90509250929050565b600080600060608486031215612610578081fd5b6126198461254a565b92506126276020850161254a565b9150604084013590509250925092565b60008060008060006060868803121561264e578081fd5b6126578661254a565b9450602086013567ffffffffffffffff80821115612673578283fd5b61267f89838a01612566565b90965094506040880135915080821115612697578283fd5b506126a488828901612566565b969995985093965092949392505050565b600080604083850312156126c7578182fd5b6126d08361254a565b946020939093013593505050565b60008060008060008060c087890312156126f6578081fd5b6126ff8761254a565b95506020870135945060408701359350606087013560ff81168114612722578182fd5b9598949750929560808101359460a0909101359350915050565b6000806040838503121561274e578182fd5b6127578361254a565b9150602083013563ffffffff8116811461276f578182fd5b809150509250929050565b60006020828403121561278b578081fd5b5035919050565b600080604083850312156127a4578182fd5b823591506125f36020840161254a565b6000602082840312156127c5578081fd5b81356001600160e01b031981168114611310578182fd5b60008060008060008060a087890312156127f4578182fd5b863595506020870135945060408701359350606087013567ffffffffffffffff81111561281f578283fd5b61282b89828a01612566565b90945092505060808701358015158114612843578182fd5b809150509295509295509295565b7f416363657373436f6e74726f6c3a206163636f756e74200000000000000000008152600083516128898160178501602088016129fa565b7001034b99036b4b9b9b4b733903937b6329607d1b60179184019182015283516128ba8160288401602088016129fa565b01602801949350505050565b60208152600082518060208401526128e58160408501602087016129fa565b601f01601f19169190910160400192915050565b6020808252601d908201527f43616c6c6572206973206e6f74207468652077686974656c6973746572000000604082015260600190565b6000821982111561294357612943612a93565b500190565b600063ffffffff80831681851680830382111561296757612967612a93565b01949350505050565b600063ffffffff8084168061299357634e487b7160e01b83526012600452602483fd5b92169190910492915050565b60008160001904831182151516156129b9576129b9612a93565b500290565b6000828210156129d0576129d0612a93565b500390565b600063ffffffff838116908316818110156129f2576129f2612a93565b039392505050565b60005b83811015612a155781810151838201526020016129fd565b83811115611d905750506000910152565b600081612a3557612a35612a93565b506000190190565b600181811c90821680612a5157607f821691505b60208210811415612a7257634e487b7160e01b600052602260045260246000fd5b50919050565b6000600019821415612a8c57612a8c612a93565b5060010190565b634e487b7160e01b600052601160045260246000fdfe42455032303a207472616e7366657220616d6f756e74206578636565647320616c6c6f77616e636542455032303a207472616e7366657220616d6f756e7420657863656564732062616c616e636542455032303a2064656372656173656420616c6c6f77616e63652062656c6f77207a65726fa26469706673582212203e05ba47c9a0c2c8ce673518ce3173f408fd7cc2f35459c0b75494620399afe164736f6c63430008040033",
  "devdoc": {
    "kind": "dev",
    "methods": {
      "allowance(address,address)": {
        "details": "See {BEP20-allowance}."
      },
      "approve(address,uint256)": {
        "details": "See {BEP20-approve}. Requirements: - `spender` cannot be the zero address."
      },
      "balanceOf(address)": {
        "details": "See {BEP20-balanceOf}."
      },
      "cap()": {
        "details": "Returns the max cap of the token"
      },
      "decimals()": {
        "details": "Returns the token decimals."
      },
      "decreaseAllowance(address,uint256)": {
        "details": "Atomically decreases the allowance granted to `spender` by the caller. This is an alternative to {approve} that can be used as a mitigation for problems described in {BEP20-approve}. Emits an {Approval} event indicating the updated allowance. Requirements: - `spender` cannot be the zero address. - `spender` must have allowance for the caller of at least `subtractedValue`."
      },
      "delegate(address)": {
        "params": {
          "delegatee": "The address to delegate votes to"
        }
      },
      "delegateBySig(address,uint256,uint256,uint8,bytes32,bytes32)": {
        "params": {
          "delegatee": "The address to delegate votes to",
          "expiry": "The time at which to expire the signature",
          "nonce": "The contract state required to match the signature",
          "r": "Half of the ECDSA signature pair",
          "s": "Half of the ECDSA signature pair",
          "v": "The recovery byte of the signature"
        }
      },
      "delegates(address)": {
        "params": {
          "delegator": "The address to get delegatee for"
        }
      },
      "getCurrentVotes(address)": {
        "params": {
          "account": "The address to get votes balance"
        },
        "returns": {
          "_0": "The number of current votes for `account`"
        }
      },
      "getPriorVotes(address,uint256)": {
        "details": "Block number must be a finalized block or else this function will revert to prevent misinformation.",
        "params": {
          "account": "The address of the account to check",
          "blockNumber": "The block number to get the vote balance at"
        },
        "returns": {
          "_0": "The number of votes the account had as of the given block"
        }
      },
      "getRoleAdmin(bytes32)": {
        "details": "Returns the admin role that controls `role`. See {grantRole} and {revokeRole}. To change a role's admin, use {_setRoleAdmin}."
      },
      "grantRole(bytes32,address)": {
        "details": "Grants `role` to `account`. If `account` had not been already granted `role`, emits a {RoleGranted} event. Requirements: - the caller must have ``role``'s admin role."
      },
      "hasRole(bytes32,address)": {
        "details": "Returns `true` if `account` has been granted `role`."
      },
      "increaseAllowance(address,uint256)": {
        "details": "Atomically increases the allowance granted to `spender` by the caller. This is an alternative to {approve} that can be used as a mitigation for problems described in {BEP20-approve}. Emits an {Approval} event indicating the updated allowance. Requirements: - `spender` cannot be the zero address."
      },
      "name()": {
        "details": "Returns the token name."
      },
      "renounceRole(bytes32,address)": {
        "details": "Revokes `role` from the calling account. Roles are often managed via {grantRole} and {revokeRole}: this function's purpose is to provide a mechanism for accounts to lose their privileges if they are compromised (such as when a trusted device is misplaced). If the calling account had been revoked `role`, emits a {RoleRevoked} event. Requirements: - the caller must be `account`."
      },
      "revokeRole(bytes32,address)": {
        "details": "Revokes `role` from `account`. If `account` had been granted `role`, emits a {RoleRevoked} event. Requirements: - the caller must have ``role``'s admin role."
      },
      "supportsInterface(bytes4)": {
        "details": "See {IERC165-supportsInterface}."
      },
      "symbol()": {
        "details": "Returns the token symbol."
      },
      "totalSupply()": {
        "details": "See {BEP20-totalSupply}."
      },
      "transfer(address,uint256)": {
        "details": "See {BEP20-transfer}. Requirements: - `recipient` cannot be the zero address. - the caller must have a balance of at least `amount`."
      },
      "transferFrom(address,address,uint256)": {
        "details": "See {BEP20-transferFrom}. Emits an {Approval} event indicating the updated allowance. This is not required by the EIP. See the note at the beginning of {BEP20}; Requirements: - `sender` and `recipient` cannot be the zero address. - `sender` must have a balance of at least `amount`. - the caller must have allowance for `sender`'s tokens of at least `amount`."
      }
    },
    "stateVariables": {
      "_delegates": {
        "details": "A record of each accounts delegate"
      }
    },
    "version": 1
  },
  "userdoc": {
    "events": {
      "DelegateChanged(address,address,address)": {
        "notice": "An event thats emitted when an account changes its delegate"
      },
      "DelegateVotesChanged(address,uint256,uint256)": {
        "notice": "An event thats emitted when a delegate account's vote balance changes"
      }
    },
    "kind": "user",
    "methods": {
      "DELEGATION_TYPEHASH()": {
        "notice": "The EIP-712 typehash for the delegation struct used by the contract"
      },
      "DOMAIN_TYPEHASH()": {
        "notice": "The EIP-712 typehash for the contract's domain"
      },
      "checkpoints(address,uint32)": {
        "notice": "A record of votes checkpoints for each account, by index"
      },
      "delegate(address)": {
        "notice": "Delegate votes from `msg.sender` to `delegatee`"
      },
      "delegateBySig(address,uint256,uint256,uint8,bytes32,bytes32)": {
        "notice": "Delegates votes from signatory to `delegatee`"
      },
      "delegates(address)": {
        "notice": "Delegate votes from `msg.sender` to `delegatee`"
      },
      "getCurrentVotes(address)": {
        "notice": "Gets the current votes balance for `account`"
      },
      "getPriorVotes(address,uint256)": {
        "notice": "Determine the prior number of votes for an account as of a block number"
      },
      "nonces(address)": {
        "notice": "A record of states for signing / validating signatures"
      },
      "numCheckpoints(address)": {
        "notice": "The number of checkpoints for each account"
      }
    },
    "version": 1
  },
  "storageLayout": {
    "storage": [
      {
        "astId": 2704,
        "contract": "contracts/GalacticQuadrant.sol:GalacticQuadrant",
        "label": "_lgeWhitelistRounds",
        "offset": 0,
        "slot": "0",
        "type": "t_array(t_struct(WhitelistRound)2700_storage)dyn_storage"
      },
      {
        "astId": 2706,
        "contract": "contracts/GalacticQuadrant.sol:GalacticQuadrant",
        "label": "_lgeTimestamp",
        "offset": 0,
        "slot": "1",
        "type": "t_uint256"
      },
      {
        "astId": 2708,
        "contract": "contracts/GalacticQuadrant.sol:GalacticQuadrant",
        "label": "_lgePairAddress",
        "offset": 0,
        "slot": "2",
        "type": "t_address"
      },
      {
        "astId": 2710,
        "contract": "contracts/GalacticQuadrant.sol:GalacticQuadrant",
        "label": "_whitelister",
        "offset": 0,
        "slot": "3",
        "type": "t_address"
      },
      {
        "astId": 1377,
        "contract": "contracts/GalacticQuadrant.sol:GalacticQuadrant",
        "label": "_balances",
        "offset": 0,
        "slot": "4",
        "type": "t_mapping(t_address,t_uint256)"
      },
      {
        "astId": 1383,
        "contract": "contracts/GalacticQuadrant.sol:GalacticQuadrant",
        "label": "_allowances",
        "offset": 0,
        "slot": "5",
        "type": "t_mapping(t_address,t_mapping(t_address,t_uint256))"
      },
      {
        "astId": 1385,
        "contract": "contracts/GalacticQuadrant.sol:GalacticQuadrant",
        "label": "_totalSupply",
        "offset": 0,
        "slot": "6",
        "type": "t_uint256"
      },
      {
        "astId": 1387,
        "contract": "contracts/GalacticQuadrant.sol:GalacticQuadrant",
        "label": "_decimals",
        "offset": 0,
        "slot": "7",
        "type": "t_uint8"
      },
      {
        "astId": 1389,
        "contract": "contracts/GalacticQuadrant.sol:GalacticQuadrant",
        "label": "_symbol",
        "offset": 0,
        "slot": "8",
        "type": "t_string_storage"
      },
      {
        "astId": 1391,
        "contract": "contracts/GalacticQuadrant.sol:GalacticQuadrant",
        "label": "_name",
        "offset": 0,
        "slot": "9",
        "type": "t_string_storage"
      },
      {
        "astId": 24,
        "contract": "contracts/GalacticQuadrant.sol:GalacticQuadrant",
        "label": "_roles",
        "offset": 0,
        "slot": "10",
        "type": "t_mapping(t_bytes32,t_struct(RoleData)19_storage)"
      },
      {
        "astId": 1919,
        "contract": "contracts/GalacticQuadrant.sol:GalacticQuadrant",
        "label": "_delegates",
        "offset": 0,
        "slot": "11",
        "type": "t_mapping(t_address,t_address)"
      },
      {
        "astId": 1932,
        "contract": "contracts/GalacticQuadrant.sol:GalacticQuadrant",
        "label": "checkpoints",
        "offset": 0,
        "slot": "12",
        "type": "t_mapping(t_address,t_mapping(t_uint32,t_struct(Checkpoint)1924_storage))"
      },
      {
        "astId": 1937,
        "contract": "contracts/GalacticQuadrant.sol:GalacticQuadrant",
        "label": "numCheckpoints",
        "offset": 0,
        "slot": "13",
        "type": "t_mapping(t_address,t_uint32)"
      },
      {
        "astId": 1954,
        "contract": "contracts/GalacticQuadrant.sol:GalacticQuadrant",
        "label": "nonces",
        "offset": 0,
        "slot": "14",
        "type": "t_mapping(t_address,t_uint256)"
      }
    ],
    "types": {
      "t_address": {
        "encoding": "inplace",
        "label": "address",
        "numberOfBytes": "20"
      },
      "t_array(t_struct(WhitelistRound)2700_storage)dyn_storage": {
        "base": "t_struct(WhitelistRound)2700_storage",
        "encoding": "dynamic_array",
        "label": "struct LGEWhitelisted.WhitelistRound[]",
        "numberOfBytes": "32"
      },
      "t_bool": {
        "encoding": "inplace",
        "label": "bool",
        "numberOfBytes": "1"
      },
      "t_bytes32": {
        "encoding": "inplace",
        "label": "bytes32",
        "numberOfBytes": "32"
      },
      "t_mapping(t_address,t_address)": {
        "encoding": "mapping",
        "key": "t_address",
        "label": "mapping(address => address)",
        "numberOfBytes": "32",
        "value": "t_address"
      },
      "t_mapping(t_address,t_bool)": {
        "encoding": "mapping",
        "key": "t_address",
        "label": "mapping(address => bool)",
        "numberOfBytes": "32",
        "value": "t_bool"
      },
      "t_mapping(t_address,t_mapping(t_address,t_uint256))": {
        "encoding": "mapping",
        "key": "t_address",
        "label": "mapping(address => mapping(address => uint256))",
        "numberOfBytes": "32",
        "value": "t_mapping(t_address,t_uint256)"
      },
      "t_mapping(t_address,t_mapping(t_uint32,t_struct(Checkpoint)1924_storage))": {
        "encoding": "mapping",
        "key": "t_address",
        "label": "mapping(address => mapping(uint32 => struct GalacticQuadrant.Checkpoint))",
        "numberOfBytes": "32",
        "value": "t_mapping(t_uint32,t_struct(Checkpoint)1924_storage)"
      },
      "t_mapping(t_address,t_uint256)": {
        "encoding": "mapping",
        "key": "t_address",
        "label": "mapping(address => uint256)",
        "numberOfBytes": "32",
        "value": "t_uint256"
      },
      "t_mapping(t_address,t_uint32)": {
        "encoding": "mapping",
        "key": "t_address",
        "label": "mapping(address => uint32)",
        "numberOfBytes": "32",
        "value": "t_uint32"
      },
      "t_mapping(t_bytes32,t_struct(RoleData)19_storage)": {
        "encoding": "mapping",
        "key": "t_bytes32",
        "label": "mapping(bytes32 => struct AccessControl.RoleData)",
        "numberOfBytes": "32",
        "value": "t_struct(RoleData)19_storage"
      },
      "t_mapping(t_uint32,t_struct(Checkpoint)1924_storage)": {
        "encoding": "mapping",
        "key": "t_uint32",
        "label": "mapping(uint32 => struct GalacticQuadrant.Checkpoint)",
        "numberOfBytes": "32",
        "value": "t_struct(Checkpoint)1924_storage"
      },
      "t_string_storage": {
        "encoding": "bytes",
        "label": "string",
        "numberOfBytes": "32"
      },
      "t_struct(Checkpoint)1924_storage": {
        "encoding": "inplace",
        "label": "struct GalacticQuadrant.Checkpoint",
        "members": [
          {
            "astId": 1921,
            "contract": "contracts/GalacticQuadrant.sol:GalacticQuadrant",
            "label": "fromBlock",
            "offset": 0,
            "slot": "0",
            "type": "t_uint256"
          },
          {
            "astId": 1923,
            "contract": "contracts/GalacticQuadrant.sol:GalacticQuadrant",
            "label": "votes",
            "offset": 0,
            "slot": "1",
            "type": "t_uint256"
          }
        ],
        "numberOfBytes": "64"
      },
      "t_struct(RoleData)19_storage": {
        "encoding": "inplace",
        "label": "struct AccessControl.RoleData",
        "members": [
          {
            "astId": 16,
            "contract": "contracts/GalacticQuadrant.sol:GalacticQuadrant",
            "label": "members",
            "offset": 0,
            "slot": "0",
            "type": "t_mapping(t_address,t_bool)"
          },
          {
            "astId": 18,
            "contract": "contracts/GalacticQuadrant.sol:GalacticQuadrant",
            "label": "adminRole",
            "offset": 0,
            "slot": "1",
            "type": "t_bytes32"
          }
        ],
        "numberOfBytes": "64"
      },
      "t_struct(WhitelistRound)2700_storage": {
        "encoding": "inplace",
        "label": "struct LGEWhitelisted.WhitelistRound",
        "members": [
          {
            "astId": 2689,
            "contract": "contracts/GalacticQuadrant.sol:GalacticQuadrant",
            "label": "duration",
            "offset": 0,
            "slot": "0",
            "type": "t_uint256"
          },
          {
            "astId": 2691,
            "contract": "contracts/GalacticQuadrant.sol:GalacticQuadrant",
            "label": "amountMax",
            "offset": 0,
            "slot": "1",
            "type": "t_uint256"
          },
          {
            "astId": 2695,
            "contract": "contracts/GalacticQuadrant.sol:GalacticQuadrant",
            "label": "addresses",
            "offset": 0,
            "slot": "2",
            "type": "t_mapping(t_address,t_bool)"
          },
          {
            "astId": 2699,
            "contract": "contracts/GalacticQuadrant.sol:GalacticQuadrant",
            "label": "purchased",
            "offset": 0,
            "slot": "3",
            "type": "t_mapping(t_address,t_uint256)"
          }
        ],
        "numberOfBytes": "128"
      },
      "t_uint256": {
        "encoding": "inplace",
        "label": "uint256",
        "numberOfBytes": "32"
      },
      "t_uint32": {
        "encoding": "inplace",
        "label": "uint32",
        "numberOfBytes": "4"
      },
      "t_uint8": {
        "encoding": "inplace",
        "label": "uint8",
        "numberOfBytes": "1"
      }
    }
  }
}