{
  "address": "0x74FEd37eCAc899b505B9221DA1D6FAe3fe4AB8F1",
  "abi": [
    {
      "inputs": [],
      "stateMutability": "nonpayable",
      "type": "constructor"
    },
    {
      "anonymous": false,
      "inputs": [
        {
          "indexed": false,
          "internalType": "address",
          "name": "owner",
          "type": "address"
        }
      ],
      "name": "AddedOwner",
      "type": "event"
    },
    {
      "anonymous": false,
      "inputs": [
        {
          "indexed": true,
          "internalType": "bytes32",
          "name": "approvedHash",
          "type": "bytes32"
        },
        {
          "indexed": true,
          "internalType": "address",
          "name": "owner",
          "type": "address"
        }
      ],
      "name": "ApproveHash",
      "type": "event"
    },
    {
      "anonymous": false,
      "inputs": [
        {
          "indexed": false,
          "internalType": "address",
          "name": "handler",
          "type": "address"
        }
      ],
      "name": "ChangedFallbackHandler",
      "type": "event"
    },
    {
      "anonymous": false,
      "inputs": [
        {
          "indexed": false,
          "internalType": "address",
          "name": "guard",
          "type": "address"
        }
      ],
      "name": "ChangedGuard",
      "type": "event"
    },
    {
      "anonymous": false,
      "inputs": [
        {
          "indexed": false,
          "internalType": "uint256",
          "name": "threshold",
          "type": "uint256"
        }
      ],
      "name": "ChangedThreshold",
      "type": "event"
    },
    {
      "anonymous": false,
      "inputs": [
        {
          "indexed": false,
          "internalType": "address",
          "name": "module",
          "type": "address"
        }
      ],
      "name": "DisabledModule",
      "type": "event"
    },
    {
      "anonymous": false,
      "inputs": [
        {
          "indexed": false,
          "internalType": "address",
          "name": "module",
          "type": "address"
        }
      ],
      "name": "EnabledModule",
      "type": "event"
    },
    {
      "anonymous": false,
      "inputs": [
        {
          "indexed": false,
          "internalType": "bytes32",
          "name": "txHash",
          "type": "bytes32"
        },
        {
          "indexed": false,
          "internalType": "uint256",
          "name": "payment",
          "type": "uint256"
        }
      ],
      "name": "ExecutionFailure",
      "type": "event"
    },
    {
      "anonymous": false,
      "inputs": [
        {
          "indexed": true,
          "internalType": "address",
          "name": "module",
          "type": "address"
        }
      ],
      "name": "ExecutionFromModuleFailure",
      "type": "event"
    },
    {
      "anonymous": false,
      "inputs": [
        {
          "indexed": true,
          "internalType": "address",
          "name": "module",
          "type": "address"
        }
      ],
      "name": "ExecutionFromModuleSuccess",
      "type": "event"
    },
    {
      "anonymous": false,
      "inputs": [
        {
          "indexed": false,
          "internalType": "bytes32",
          "name": "txHash",
          "type": "bytes32"
        },
        {
          "indexed": false,
          "internalType": "uint256",
          "name": "payment",
          "type": "uint256"
        }
      ],
      "name": "ExecutionSuccess",
      "type": "event"
    },
    {
      "anonymous": false,
      "inputs": [
        {
          "indexed": false,
          "internalType": "address",
          "name": "owner",
          "type": "address"
        }
      ],
      "name": "RemovedOwner",
      "type": "event"
    },
    {
      "anonymous": false,
      "inputs": [
        {
          "indexed": true,
          "internalType": "address",
          "name": "sender",
          "type": "address"
        },
        {
          "indexed": false,
          "internalType": "uint256",
          "name": "value",
          "type": "uint256"
        }
      ],
      "name": "SafeReceived",
      "type": "event"
    },
    {
      "anonymous": false,
      "inputs": [
        {
          "indexed": true,
          "internalType": "address",
          "name": "initiator",
          "type": "address"
        },
        {
          "indexed": false,
          "internalType": "address[]",
          "name": "owners",
          "type": "address[]"
        },
        {
          "indexed": false,
          "internalType": "uint256",
          "name": "threshold",
          "type": "uint256"
        },
        {
          "indexed": false,
          "internalType": "address",
          "name": "initializer",
          "type": "address"
        },
        {
          "indexed": false,
          "internalType": "address",
          "name": "fallbackHandler",
          "type": "address"
        }
      ],
      "name": "SafeSetup",
      "type": "event"
    },
    {
      "anonymous": false,
      "inputs": [
        {
          "indexed": true,
          "internalType": "bytes32",
          "name": "msgHash",
          "type": "bytes32"
        }
      ],
      "name": "SignMsg",
      "type": "event"
    },
    {
      "stateMutability": "nonpayable",
      "type": "fallback"
    },
    {
      "inputs": [],
      "name": "VERSION",
      "outputs": [
        {
          "internalType": "string",
          "name": "",
          "type": "string"
        }
      ],
      "stateMutability": "view",
      "type": "function"
    },
    {
      "inputs": [
        {
          "internalType": "address",
          "name": "owner",
          "type": "address"
        },
        {
          "internalType": "uint256",
          "name": "_threshold",
          "type": "uint256"
        }
      ],
      "name": "addOwnerWithThreshold",
      "outputs": [],
      "stateMutability": "nonpayable",
      "type": "function"
    },
    {
      "inputs": [
        {
          "internalType": "bytes32",
          "name": "hashToApprove",
          "type": "bytes32"
        }
      ],
      "name": "approveHash",
      "outputs": [],
      "stateMutability": "nonpayable",
      "type": "function"
    },
    {
      "inputs": [
        {
          "internalType": "address",
          "name": "",
          "type": "address"
        },
        {
          "internalType": "bytes32",
          "name": "",
          "type": "bytes32"
        }
      ],
      "name": "approvedHashes",
      "outputs": [
        {
          "internalType": "uint256",
          "name": "",
          "type": "uint256"
        }
      ],
      "stateMutability": "view",
      "type": "function"
    },
    {
      "inputs": [
        {
          "internalType": "uint256",
          "name": "_threshold",
          "type": "uint256"
        }
      ],
      "name": "changeThreshold",
      "outputs": [],
      "stateMutability": "nonpayable",
      "type": "function"
    },
    {
      "inputs": [
        {
          "internalType": "bytes32",
          "name": "dataHash",
          "type": "bytes32"
        },
        {
          "internalType": "bytes",
          "name": "data",
          "type": "bytes"
        },
        {
          "internalType": "bytes",
          "name": "signatures",
          "type": "bytes"
        },
        {
          "internalType": "uint256",
          "name": "requiredSignatures",
          "type": "uint256"
        }
      ],
      "name": "checkNSignatures",
      "outputs": [],
      "stateMutability": "view",
      "type": "function"
    },
    {
      "inputs": [
        {
          "internalType": "bytes32",
          "name": "dataHash",
          "type": "bytes32"
        },
        {
          "internalType": "bytes",
          "name": "data",
          "type": "bytes"
        },
        {
          "internalType": "bytes",
          "name": "signatures",
          "type": "bytes"
        }
      ],
      "name": "checkSignatures",
      "outputs": [],
      "stateMutability": "view",
      "type": "function"
    },
    {
      "inputs": [
        {
          "internalType": "address",
          "name": "prevModule",
          "type": "address"
        },
        {
          "internalType": "address",
          "name": "module",
          "type": "address"
        }
      ],
      "name": "disableModule",
      "outputs": [],
      "stateMutability": "nonpayable",
      "type": "function"
    },
    {
      "inputs": [],
      "name": "domainSeparator",
      "outputs": [
        {
          "internalType": "bytes32",
          "name": "",
          "type": "bytes32"
        }
      ],
      "stateMutability": "view",
      "type": "function"
    },
    {
      "inputs": [
        {
          "internalType": "address",
          "name": "module",
          "type": "address"
        }
      ],
      "name": "enableModule",
      "outputs": [],
      "stateMutability": "nonpayable",
      "type": "function"
    },
    {
      "inputs": [
        {
          "internalType": "address",
          "name": "to",
          "type": "address"
        },
        {
          "internalType": "uint256",
          "name": "value",
          "type": "uint256"
        },
        {
          "internalType": "bytes",
          "name": "data",
          "type": "bytes"
        },
        {
          "internalType": "enum Enum.Operation",
          "name": "operation",
          "type": "uint8"
        },
        {
          "internalType": "uint256",
          "name": "safeTxGas",
          "type": "uint256"
        },
        {
          "internalType": "uint256",
          "name": "baseGas",
          "type": "uint256"
        },
        {
          "internalType": "uint256",
          "name": "gasPrice",
          "type": "uint256"
        },
        {
          "internalType": "address",
          "name": "gasToken",
          "type": "address"
        },
        {
          "internalType": "address",
          "name": "refundReceiver",
          "type": "address"
        },
        {
          "internalType": "uint256",
          "name": "_nonce",
          "type": "uint256"
        }
      ],
      "name": "encodeTransactionData",
      "outputs": [
        {
          "internalType": "bytes",
          "name": "",
          "type": "bytes"
        }
      ],
      "stateMutability": "view",
      "type": "function"
    },
    {
      "inputs": [
        {
          "internalType": "address",
          "name": "to",
          "type": "address"
        },
        {
          "internalType": "uint256",
          "name": "value",
          "type": "uint256"
        },
        {
          "internalType": "bytes",
          "name": "data",
          "type": "bytes"
        },
        {
          "internalType": "enum Enum.Operation",
          "name": "operation",
          "type": "uint8"
        },
        {
          "internalType": "uint256",
          "name": "safeTxGas",
          "type": "uint256"
        },
        {
          "internalType": "uint256",
          "name": "baseGas",
          "type": "uint256"
        },
        {
          "internalType": "uint256",
          "name": "gasPrice",
          "type": "uint256"
        },
        {
          "internalType": "address",
          "name": "gasToken",
          "type": "address"
        },
        {
          "internalType": "address payable",
          "name": "refundReceiver",
          "type": "address"
        },
        {
          "internalType": "bytes",
          "name": "signatures",
          "type": "bytes"
        }
      ],
      "name": "execTransaction",
      "outputs": [
        {
          "internalType": "bool",
          "name": "success",
          "type": "bool"
        }
      ],
      "stateMutability": "payable",
      "type": "function"
    },
    {
      "inputs": [
        {
          "internalType": "address",
          "name": "to",
          "type": "address"
        },
        {
          "internalType": "uint256",
          "name": "value",
          "type": "uint256"
        },
        {
          "internalType": "bytes",
          "name": "data",
          "type": "bytes"
        },
        {
          "internalType": "enum Enum.Operation",
          "name": "operation",
          "type": "uint8"
        }
      ],
      "name": "execTransactionFromModule",
      "outputs": [
        {
          "internalType": "bool",
          "name": "success",
          "type": "bool"
        }
      ],
      "stateMutability": "nonpayable",
      "type": "function"
    },
    {
      "inputs": [
        {
          "internalType": "address",
          "name": "to",
          "type": "address"
        },
        {
          "internalType": "uint256",
          "name": "value",
          "type": "uint256"
        },
        {
          "internalType": "bytes",
          "name": "data",
          "type": "bytes"
        },
        {
          "internalType": "enum Enum.Operation",
          "name": "operation",
          "type": "uint8"
        }
      ],
      "name": "execTransactionFromModuleReturnData",
      "outputs": [
        {
          "internalType": "bool",
          "name": "success",
          "type": "bool"
        },
        {
          "internalType": "bytes",
          "name": "returnData",
          "type": "bytes"
        }
      ],
      "stateMutability": "nonpayable",
      "type": "function"
    },
    {
      "inputs": [],
      "name": "getChainId",
      "outputs": [
        {
          "internalType": "uint256",
          "name": "",
          "type": "uint256"
        }
      ],
      "stateMutability": "view",
      "type": "function"
    },
    {
      "inputs": [
        {
          "internalType": "address",
          "name": "start",
          "type": "address"
        },
        {
          "internalType": "uint256",
          "name": "pageSize",
          "type": "uint256"
        }
      ],
      "name": "getModulesPaginated",
      "outputs": [
        {
          "internalType": "address[]",
          "name": "array",
          "type": "address[]"
        },
        {
          "internalType": "address",
          "name": "next",
          "type": "address"
        }
      ],
      "stateMutability": "view",
      "type": "function"
    },
    {
      "inputs": [],
      "name": "getOwners",
      "outputs": [
        {
          "internalType": "address[]",
          "name": "",
          "type": "address[]"
        }
      ],
      "stateMutability": "view",
      "type": "function"
    },
    {
      "inputs": [
        {
          "internalType": "uint256",
          "name": "offset",
          "type": "uint256"
        },
        {
          "internalType": "uint256",
          "name": "length",
          "type": "uint256"
        }
      ],
      "name": "getStorageAt",
      "outputs": [
        {
          "internalType": "bytes",
          "name": "",
          "type": "bytes"
        }
      ],
      "stateMutability": "view",
      "type": "function"
    },
    {
      "inputs": [],
      "name": "getThreshold",
      "outputs": [
        {
          "internalType": "uint256",
          "name": "",
          "type": "uint256"
        }
      ],
      "stateMutability": "view",
      "type": "function"
    },
    {
      "inputs": [
        {
          "internalType": "address",
          "name": "to",
          "type": "address"
        },
        {
          "internalType": "uint256",
          "name": "value",
          "type": "uint256"
        },
        {
          "internalType": "bytes",
          "name": "data",
          "type": "bytes"
        },
        {
          "internalType": "enum Enum.Operation",
          "name": "operation",
          "type": "uint8"
        },
        {
          "internalType": "uint256",
          "name": "safeTxGas",
          "type": "uint256"
        },
        {
          "internalType": "uint256",
          "name": "baseGas",
          "type": "uint256"
        },
        {
          "internalType": "uint256",
          "name": "gasPrice",
          "type": "uint256"
        },
        {
          "internalType": "address",
          "name": "gasToken",
          "type": "address"
        },
        {
          "internalType": "address",
          "name": "refundReceiver",
          "type": "address"
        },
        {
          "internalType": "uint256",
          "name": "_nonce",
          "type": "uint256"
        }
      ],
      "name": "getTransactionHash",
      "outputs": [
        {
          "internalType": "bytes32",
          "name": "",
          "type": "bytes32"
        }
      ],
      "stateMutability": "view",
      "type": "function"
    },
    {
      "inputs": [
        {
          "internalType": "address",
          "name": "module",
          "type": "address"
        }
      ],
      "name": "isModuleEnabled",
      "outputs": [
        {
          "internalType": "bool",
          "name": "",
          "type": "bool"
        }
      ],
      "stateMutability": "view",
      "type": "function"
    },
    {
      "inputs": [
        {
          "internalType": "address",
          "name": "owner",
          "type": "address"
        }
      ],
      "name": "isOwner",
      "outputs": [
        {
          "internalType": "bool",
          "name": "",
          "type": "bool"
        }
      ],
      "stateMutability": "view",
      "type": "function"
    },
    {
      "inputs": [],
      "name": "nonce",
      "outputs": [
        {
          "internalType": "uint256",
          "name": "",
          "type": "uint256"
        }
      ],
      "stateMutability": "view",
      "type": "function"
    },
    {
      "inputs": [
        {
          "internalType": "address",
          "name": "prevOwner",
          "type": "address"
        },
        {
          "internalType": "address",
          "name": "owner",
          "type": "address"
        },
        {
          "internalType": "uint256",
          "name": "_threshold",
          "type": "uint256"
        }
      ],
      "name": "removeOwner",
      "outputs": [],
      "stateMutability": "nonpayable",
      "type": "function"
    },
    {
      "inputs": [
        {
          "internalType": "address",
          "name": "to",
          "type": "address"
        },
        {
          "internalType": "uint256",
          "name": "value",
          "type": "uint256"
        },
        {
          "internalType": "bytes",
          "name": "data",
          "type": "bytes"
        },
        {
          "internalType": "enum Enum.Operation",
          "name": "operation",
          "type": "uint8"
        }
      ],
      "name": "requiredTxGas",
      "outputs": [
        {
          "internalType": "uint256",
          "name": "",
          "type": "uint256"
        }
      ],
      "stateMutability": "nonpayable",
      "type": "function"
    },
    {
      "inputs": [
        {
          "internalType": "address",
          "name": "handler",
          "type": "address"
        }
      ],
      "name": "setFallbackHandler",
      "outputs": [],
      "stateMutability": "nonpayable",
      "type": "function"
    },
    {
      "inputs": [
        {
          "internalType": "address",
          "name": "guard",
          "type": "address"
        }
      ],
      "name": "setGuard",
      "outputs": [],
      "stateMutability": "nonpayable",
      "type": "function"
    },
    {
      "inputs": [
        {
          "internalType": "address[]",
          "name": "_owners",
          "type": "address[]"
        },
        {
          "internalType": "uint256",
          "name": "_threshold",
          "type": "uint256"
        },
        {
          "internalType": "address",
          "name": "to",
          "type": "address"
        },
        {
          "internalType": "bytes",
          "name": "data",
          "type": "bytes"
        },
        {
          "internalType": "address",
          "name": "fallbackHandler",
          "type": "address"
        },
        {
          "internalType": "address",
          "name": "paymentToken",
          "type": "address"
        },
        {
          "internalType": "uint256",
          "name": "payment",
          "type": "uint256"
        },
        {
          "internalType": "address payable",
          "name": "paymentReceiver",
          "type": "address"
        }
      ],
      "name": "setup",
      "outputs": [],
      "stateMutability": "nonpayable",
      "type": "function"
    },
    {
      "inputs": [
        {
          "internalType": "bytes32",
          "name": "",
          "type": "bytes32"
        }
      ],
      "name": "signedMessages",
      "outputs": [
        {
          "internalType": "uint256",
          "name": "",
          "type": "uint256"
        }
      ],
      "stateMutability": "view",
      "type": "function"
    },
    {
      "inputs": [
        {
          "internalType": "address",
          "name": "targetContract",
          "type": "address"
        },
        {
          "internalType": "bytes",
          "name": "calldataPayload",
          "type": "bytes"
        }
      ],
      "name": "simulateAndRevert",
      "outputs": [],
      "stateMutability": "nonpayable",
      "type": "function"
    },
    {
      "inputs": [
        {
          "internalType": "address",
          "name": "prevOwner",
          "type": "address"
        },
        {
          "internalType": "address",
          "name": "oldOwner",
          "type": "address"
        },
        {
          "internalType": "address",
          "name": "newOwner",
          "type": "address"
        }
      ],
      "name": "swapOwner",
      "outputs": [],
      "stateMutability": "nonpayable",
      "type": "function"
    },
    {
      "stateMutability": "payable",
      "type": "receive"
    }
  ],
  "transactionHash": "0x6eb84f08b527d3964d1c4dc76fa6640401e764726de6739a9bf9f910fc3098c1",
  "args": [],
  "numDeployments": 1,
  "solcInputHash": "7dfd8bfbf5bb38371a63b87352888ca1",
  "bytecode": "0x608060405234801561001057600080fd5b506001600455613041806100256000396000f3fe6080604052600436106101dc5760003560e01c8063affed0e011610102578063e19a9dd911610095578063f08a032311610064578063f08a032314610620578063f698da2514610640578063f8dc5dd914610655578063ffa1ad741461067557610218565b8063e19a9dd9146105ab578063e318b52b146105cb578063e75235b8146105eb578063e86637db1461060057610218565b8063cc2f8452116100d1578063cc2f84521461051d578063d4d9bdcd1461054b578063d8d11f781461056b578063e009cfde1461058b57610218565b8063affed0e0146104a7578063b4faba09146104bd578063b63e800d146104dd578063c4ca3a9c146104fd57610218565b80635624b25b1161017a5780636a761202116101495780636a7612021461041a5780637d8329741461042d578063934f3a1114610465578063a0e67e2b1461048557610218565b80635624b25b146103805780635ae6bd37146103ad578063610b5925146103da578063694e80c3146103fa57610218565b80632f54bf6e116101b65780632f54bf6e146102f55780633408e47014610315578063468721a7146103325780635229073f1461035257610218565b80630d582f131461027e57806312fb68e0146102a05780632d9ad53d146102c057610218565b366102185760405134815233907f3d0ce9bfc3ed7d6862dbb28b2dea94561fe714a1b4d019aa8af39730d1ad7c3d9060200160405180910390a2005b34801561022457600080fd5b507f6c9a6c4a39284e37ed1cf53d337577d14212a4870fb976a4366c693b939918d580548061024f57005b36600080373360601b365260008060143601600080855af190503d6000803e80610278573d6000fd5b503d6000f35b34801561028a57600080fd5b5061029e6102993660046126af565b6106a6565b005b3480156102ac57600080fd5b5061029e6102bb366004612afe565b610806565b3480156102cc57600080fd5b506102e06102db3660046125d1565b610c7d565b60405190151581526020015b60405180910390f35b34801561030157600080fd5b506102e06103103660046125d1565b610cb8565b34801561032157600080fd5b50465b6040519081526020016102ec565b34801561033e57600080fd5b506102e061034d366004612928565b610cf0565b34801561035e57600080fd5b5061037261036d366004612928565b610dc7565b6040516102ec929190612de5565b34801561038c57600080fd5b506103a061039b366004612b97565b610dfd565b6040516102ec9190612e6f565b3480156103b957600080fd5b506103246103c8366004612a7d565b60076020526000908152604090205481565b3480156103e657600080fd5b5061029e6103f53660046125d1565b610e90565b34801561040657600080fd5b5061029e610415366004612a7d565b610fd2565b6102e0610428366004612795565b61106a565b34801561043957600080fd5b506103246104483660046126af565b600860209081526000928352604080842090915290825290205481565b34801561047157600080fd5b5061029e610480366004612a95565b6113b3565b34801561049157600080fd5b5061049a6113fd565b6040516102ec9190612da8565b3480156104b357600080fd5b5061032460055481565b3480156104c957600080fd5b5061029e6104d83660046126da565b611509565b3480156104e957600080fd5b5061029e6104f836600461298f565b61152c565b34801561050957600080fd5b50610324610518366004612727565b61164d565b34801561052957600080fd5b5061053d6105383660046126af565b6116e7565b6040516102ec929190612dbb565b34801561055757600080fd5b5061029e610566366004612a7d565b6117fc565b34801561057757600080fd5b5061032461058636600461286a565b611891565b34801561059757600080fd5b5061029e6105a63660046125ed565b6118be565b3480156105b757600080fd5b5061029e6105c63660046125d1565b6119ed565b3480156105d757600080fd5b5061029e6105e6366004612625565b611a52565b3480156105f757600080fd5b50600454610324565b34801561060c57600080fd5b506103a061061b36600461286a565b611c41565b34801561062c57600080fd5b5061029e61063b3660046125d1565b611d1a565b34801561064c57600080fd5b50610324611d83565b34801561066157600080fd5b5061029e61067036600461266f565b611dda565b34801561068157600080fd5b506103a0604051806040016040528060058152602001640312e332e360dc1b81525081565b6106ae611f4d565b6001600160a01b038216158015906106d057506001600160a01b038216600114155b80156106e557506001600160a01b0382163014155b61070a5760405162461bcd60e51b815260040161070190612ec6565b60405180910390fd5b6001600160a01b0382811660009081526002602052604090205416156107425760405162461bcd60e51b815260040161070190612ee5565b60026020527fe90b7bceb6e7df5418fb78d8ee546e97c83a08bbccc01a0644d599ccd2a7c2e080546001600160a01b038481166000818152604081208054939094166001600160a01b0319938416179093556001835283549091161790915560038054916107af83612fac565b90915550506040516001600160a01b03831681527f9465fa0c962cc76958e6373a993326400c1c94f8be2fe3a952adfa7f60b2ea269060200160405180910390a180600454146108025761080281610fd2565b5050565b610811816041611f86565b825110156108495760405162461bcd60e51b8152602060048201526005602482015264047533032360dc1b6044820152606401610701565b6000808060008060005b86811015610c71576041818102890160208101516040820151919092015160ff169550909350915083610a2f579193508391610890876041611f86565b8210156108c75760405162461bcd60e51b8152602060048201526005602482015264475330323160d81b6044820152606401610701565b87516108d4836020611fbf565b111561090a5760405162461bcd60e51b815260206004820152600560248201526423a998191960d91b6044820152606401610701565b60208289018101518951909161092d908390610927908790611fbf565b90611fbf565b11156109635760405162461bcd60e51b8152602060048201526005602482015264475330323360d81b6044820152606401610701565b6040516320c13b0b60e01b8082528a8501602001916001600160a01b038916906320c13b0b90610999908f908690600401612e82565b60206040518083038186803b1580156109b157600080fd5b505afa1580156109c5573d6000803e3d6000fd5b505050506040513d601f19601f820116820180604052508101906109e99190612b6f565b6001600160e01b03191614610a285760405162461bcd60e51b815260206004820152600560248201526411d4cc0c8d60da1b6044820152606401610701565b5050610bd7565b8360ff1660011415610ab2579193508391336001600160a01b0384161480610a7957506001600160a01b03851660009081526008602090815260408083208d845290915290205415155b610aad5760405162461bcd60e51b8152602060048201526005602482015264475330323560d81b6044820152606401610701565b610bd7565b601e8460ff161115610b77576040517f19457468657265756d205369676e6564204d6573736167653a0a3332000000006020820152603c81018b9052600190605c0160405160208183030381529060405280519060200120600486610b179190612f72565b6040805160008152602081018083529390935260ff90911690820152606081018590526080810184905260a0016020604051602081039080840390855afa158015610b66573d6000803e3d6000fd5b505050602060405103519450610bd7565b6040805160008152602081018083528c905260ff861691810191909152606081018490526080810183905260019060a0016020604051602081039080840390855afa158015610bca573d6000803e3d6000fd5b5050506020604051035194505b856001600160a01b0316856001600160a01b0316118015610c1157506001600160a01b038581166000908152600260205260409020541615155b8015610c2757506001600160a01b038516600114155b610c5b5760405162461bcd60e51b815260206004820152600560248201526423a998191b60d91b6044820152606401610701565b8495508080610c6990612fac565b915050610853565b50505050505050505050565b600060016001600160a01b03831614801590610cb257506001600160a01b038281166000908152600160205260409020541615155b92915050565b60006001600160a01b038216600114801590610cb25750506001600160a01b0390811660009081526002602052604090205416151590565b600033600114801590610d1a5750336000908152600160205260409020546001600160a01b031615155b610d4e5760405162461bcd60e51b815260206004820152600560248201526411d4cc4c0d60da1b6044820152606401610701565b610d5b858585855a611fdb565b90508015610d935760405133907f6895c13664aa4f67288b25d7a21d7aaa34916e355fb9b6fae0a139a9085becb890600090a2610dbf565b60405133907facd2c8702804128fdb0db2bb49f6d127dd0181c13fd45dbfe16de0930e2bd37590600090a25b949350505050565b60006060610dd786868686610cf0565b915060405160203d0181016040523d81523d6000602083013e8091505094509492505050565b60606000610e0c836020612f3c565b6001600160401b03811115610e3157634e487b7160e01b600052604160045260246000fd5b6040519080825280601f01601f191660200182016040528015610e5b576020820181803683370190505b50905060005b83811015610e88578481015460208083028401015280610e8081612fac565b915050610e61565b509392505050565b610e98611f4d565b6001600160a01b03811615801590610eba57506001600160a01b038116600114155b610eee5760405162461bcd60e51b8152602060048201526005602482015264475331303160d81b6044820152606401610701565b6001600160a01b038181166000908152600160205260409020541615610f3e5760405162461bcd60e51b815260206004820152600560248201526423a998981960d91b6044820152606401610701565b600160208181527fcc69885fda6bcc1a4ace058b4a62bf5e179ea78fd58a1ccd71c22cc9b688792f80546001600160a01b03858116600081815260408082208054949095166001600160a01b031994851617909455959095528254168417909155519182527fecdf3a3effea5783a3c4c2140e677577666428d44ed9d474a0b3a4c9943f844091015b60405180910390a150565b610fda611f4d565b600354811115610ffc5760405162461bcd60e51b815260040161070190612ea7565b60018110156110355760405162461bcd60e51b815260206004820152600560248201526423a999181960d91b6044820152606401610701565b60048190556040518181527f610f7ff2b304ae8903c3de74c60c6ab1f7d6226b3f52c5161905bb5ad4039c9390602001610fc7565b60008060006110848e8e8e8e8e8e8e8e8e8e600554611c41565b60058054919250600061109683612fac565b90915550508051602082012091506110af8282866113b3565b5060006110da7f4a204f620c8c5ccdca3fd54d003badd85ba500436a431f0cbda4f558c93c34c85490565b90506001600160a01b0381161561116057806001600160a01b03166375f0bb528f8f8f8f8f8f8f8f8f8f8f336040518d63ffffffff1660e01b815260040161112d9c9b9a99989796959493929190612c78565b600060405180830381600087803b15801561114757600080fd5b505af115801561115b573d6000803e3d6000fd5b505050505b61118c61116f8a6109c4612f04565b603f61117c8c6040612f3c565b6111869190612f1c565b90612031565b611198906101f4612f04565b5a10156111cf5760405162461bcd60e51b8152602060048201526005602482015264047533031360dc1b6044820152606401610701565b60005a90506112408f8f8f8f8080601f016020809104026020016040519081016040528093929190818152602001838380828437600081840152601f19601f820116905080830192505050505050508e8c60001461122d578e611fdb565b6109c45a61123b9190612f5b565b611fdb565b935061124d5a8290612048565b9050838061125a57508915155b8061126457508715155b6112985760405162461bcd60e51b8152602060048201526005602482015264475330313360d81b6044820152606401610701565b600088156112b0576112ad828b8b8b8b612063565b90505b84156112f45760408051858152602081018390527f442e715f626346e8c54381002da614f62bee8d27386535b2521ec8540898556e910160405180910390a161132e565b60408051858152602081018390527f23428b18acfb3ea64b08dc0c1d296ea9c09702c09083ca5272e64d115b687d23910160405180910390a15b50506001600160a01b038116156113a257604051631264e26d60e31b81526004810183905283151560248201526001600160a01b03821690639327136890604401600060405180830381600087803b15801561138957600080fd5b505af115801561139d573d6000803e3d6000fd5b505050505b50509b9a5050505050505050505050565b600454806113eb5760405162461bcd60e51b8152602060048201526005602482015264475330303160d81b6044820152606401610701565b6113f784848484610806565b50505050565b606060006003546001600160401b0381111561142957634e487b7160e01b600052604160045260246000fd5b604051908082528060200260200182016040528015611452578160200160208202803683370190505b506001600090815260026020527fe90b7bceb6e7df5418fb78d8ee546e97c83a08bbccc01a0644d599ccd2a7c2e054919250906001600160a01b03165b6001600160a01b03811660011461150157808383815181106114c157634e487b7160e01b600052603260045260246000fd5b6001600160a01b039283166020918202929092018101919091529181166000908152600290925260409091205416816114f981612fac565b92505061148f565b509092915050565b600080825160208401855af480600052503d6020523d600060403e60403d016000fd5b61156a8a8a808060200260200160405190810160405280939291908181526020018383602002808284376000920191909152508c9250612169915050565b6001600160a01b038416156115a1576115a1847f6c9a6c4a39284e37ed1cf53d337577d14212a4870fb976a4366c693b939918d555565b6115e18787878080601f01602080910402602001604051908101604052809392919081815260200183838082843760009201919091525061235d92505050565b81156115f8576115f682600060018685612063565b505b336001600160a01b03167f141df868a6331af528e38c83b7aa03edc19be66e37ae67f9285bf4f8e3c6a1a88b8b8b8b89604051611639959493929190612d3c565b60405180910390a250505050505050505050565b6000805a9050611696878787878080601f01602080910402602001604051908101604052809392919081815260200183838082843760009201919091525089925050505a611fdb565b61169f57600080fd5b60005a6116ac9083612f5b565b9050806040516020016116c191815260200190565b60408051601f198184030181529082905262461bcd60e51b825261070191600401612e6f565b60606000826001600160401b0381111561171157634e487b7160e01b600052604160045260246000fd5b60405190808252806020026020018201604052801561173a578160200160208202803683370190505b506001600160a01b0380861660009081526001602052604081205492945091165b6001600160a01b0381161580159061177d57506001600160a01b038116600114155b801561178857508482105b156117ee57808483815181106117ae57634e487b7160e01b600052603260045260246000fd5b6001600160a01b039283166020918202929092018101919091529181166000908152600190925260409091205416816117e681612fac565b92505061175b565b908352919491935090915050565b336000908152600260205260409020546001600160a01b03166118495760405162461bcd60e51b8152602060048201526005602482015264047533033360dc1b6044820152606401610701565b336000818152600860209081526040808320858452909152808220600190555183917ff2a0eb156472d1440255b0d7c1e19cc07115d1051fe605b0dce69acfec884d9c91a350565b60006118a68c8c8c8c8c8c8c8c8c8c8c611c41565b8051906020012090509b9a5050505050505050505050565b6118c6611f4d565b6001600160a01b038116158015906118e857506001600160a01b038116600114155b61191c5760405162461bcd60e51b8152602060048201526005602482015264475331303160d81b6044820152606401610701565b6001600160a01b038281166000908152600160205260409020548116908216146119705760405162461bcd60e51b8152602060048201526005602482015264475331303360d81b6044820152606401610701565b6001600160a01b038181166000818152600160209081526040808320805488871685528285208054919097166001600160a01b03199182161790965592849052825490941690915591519081527faab4fa2b463f581b2b32cb3b7e3b704b9ce37cc209b5fb4d77e593ace405427691015b60405180910390a15050565b6119f5611f4d565b7f4a204f620c8c5ccdca3fd54d003badd85ba500436a431f0cbda4f558c93c34c88181556040516001600160a01b03831681527f1151116914515bc0891ff9047a6cb32cf902546f83066499bcf8ba33d2353fa2906020016119e1565b611a5a611f4d565b6001600160a01b03811615801590611a7c57506001600160a01b038116600114155b8015611a9157506001600160a01b0381163014155b611aad5760405162461bcd60e51b815260040161070190612ec6565b6001600160a01b038181166000908152600260205260409020541615611ae55760405162461bcd60e51b815260040161070190612ee5565b6001600160a01b03821615801590611b0757506001600160a01b038216600114155b611b235760405162461bcd60e51b815260040161070190612ec6565b6001600160a01b03838116600090815260026020526040902054811690831614611b775760405162461bcd60e51b8152602060048201526005602482015264475332303560d81b6044820152606401610701565b6001600160a01b038281166000818152600260209081526040808320805487871680865283862080549289166001600160a01b0319938416179055968a1685528285208054821690971790965592849052825490941690915591519081527ff8d49fc529812e9a7c5c50e69c20f0dccc0db8fa95c98bc58cc9a4f1c1299eaf910160405180910390a16040516001600160a01b03821681527f9465fa0c962cc76958e6373a993326400c1c94f8be2fe3a952adfa7f60b2ea269060200160405180910390a1505050565b606060007fbb8310d486368db6bd6f849402fdd73ad53d316b5a4b2644ad6efe0f941286d860001b8d8d8d8d604051611c7b929190612c68565b604051908190038120611ca1949392918e908e908e908e908e908e908e90602001612e00565b60408051601f1981840301815291905280516020909101209050601960f81b600160f81b611ccd611d83565b6040516001600160f81b031993841660208201529290911660218301526022820152604281018290526062016040516020818303038152906040529150509b9a5050505050505050505050565b611d22611f4d565b611d4a817f6c9a6c4a39284e37ed1cf53d337577d14212a4870fb976a4366c693b939918d555565b6040516001600160a01b03821681527f5ac6c46c93c8d0e53714ba3b53db3e7c046da994313d7ed0d192028bc7c228b090602001610fc7565b60007f47e79534a245952e8b16893a336b85a3d9ea9fa8c573f3d803afb92a794692184660408051602081019390935282015230606082015260800160405160208183030381529060405280519060200120905090565b611de2611f4d565b806001600354611df29190612f5b565b1015611e105760405162461bcd60e51b815260040161070190612ea7565b6001600160a01b03821615801590611e3257506001600160a01b038216600114155b611e4e5760405162461bcd60e51b815260040161070190612ec6565b6001600160a01b03838116600090815260026020526040902054811690831614611ea25760405162461bcd60e51b8152602060048201526005602482015264475332303560d81b6044820152606401610701565b6001600160a01b03828116600081815260026020526040808220805488861684529183208054929095166001600160a01b03199283161790945591815282549091169091556003805491611ef583612f95565b90915550506040516001600160a01b03831681527ff8d49fc529812e9a7c5c50e69c20f0dccc0db8fa95c98bc58cc9a4f1c1299eaf9060200160405180910390a18060045414611f4857611f4881610fd2565b505050565b333014611f845760405162461bcd60e51b8152602060048201526005602482015264475330333160d81b6044820152606401610701565b565b600082611f9557506000610cb2565b6000611fa18385612f3c565b905082611fae8583612f1c565b14611fb857600080fd5b9392505050565b600080611fcc8385612f04565b905083811015611fb857600080fd5b60006001836001811115611fff57634e487b7160e01b600052602160045260246000fd5b1415612018576000808551602087018986f49050612028565b600080855160208701888a87f190505b95945050505050565b6000818310156120415781611fb8565b5090919050565b60008282111561205757600080fd5b6000610dbf8385612f5b565b6000806001600160a01b0383161561207b578261207d565b325b90506001600160a01b038416612110576120af3a861061209d573a61209f565b855b6120a98989611fbf565b90611f86565b6040519092506001600160a01b0382169083156108fc029084906000818181858888f1935050505061210b5760405162461bcd60e51b8152602060048201526005602482015264475330313160d81b6044820152606401610701565b61215f565b61211e856120a98989611fbf565b915061212b848284612457565b61215f5760405162461bcd60e51b815260206004820152600560248201526423a998189960d91b6044820152606401610701565b5095945050505050565b600454156121a15760405162461bcd60e51b8152602060048201526005602482015264047533230360dc1b6044820152606401610701565b81518111156121c25760405162461bcd60e51b815260040161070190612ea7565b60018110156121fb5760405162461bcd60e51b815260206004820152600560248201526423a999181960d91b6044820152606401610701565b600160005b835181101561232a57600084828151811061222b57634e487b7160e01b600052603260045260246000fd5b6020026020010151905060006001600160a01b0316816001600160a01b03161415801561226257506001600160a01b038116600114155b801561227757506001600160a01b0381163014155b80156122955750806001600160a01b0316836001600160a01b031614155b6122b15760405162461bcd60e51b815260040161070190612ec6565b6001600160a01b0381811660009081526002602052604090205416156122e95760405162461bcd60e51b815260040161070190612ee5565b6001600160a01b03928316600090815260026020526040902080546001600160a01b031916938216939093179092558061232281612fac565b915050612200565b506001600160a01b0316600090815260026020526040902080546001600160a01b03191660011790559051600355600455565b600160008190526020527fcc69885fda6bcc1a4ace058b4a62bf5e179ea78fd58a1ccd71c22cc9b688792f546001600160a01b0316156123c75760405162461bcd60e51b8152602060048201526005602482015264047533130360dc1b6044820152606401610701565b6001600081905260208190527fcc69885fda6bcc1a4ace058b4a62bf5e179ea78fd58a1ccd71c22cc9b688792f80546001600160a01b03191690911790556001600160a01b03821615610802576124238260008360015a611fdb565b6108025760405162461bcd60e51b8152602060048201526005602482015264047533030360dc1b6044820152606401610701565b604080516001600160a01b03841660248201526044808201849052825180830390910181526064909101909152602080820180516001600160e01b031663a9059cbb60e01b1781528251600093929184919082896127105a03f13d80156124c957602081146124d157600093506124dc565b8193506124dc565b600051158215171593505b5050509392505050565b80356124f181612ff3565b919050565b60008083601f840112612507578182fd5b5081356001600160401b0381111561251d578182fd5b60208301915083602082850101111561253557600080fd5b9250929050565b600082601f83011261254c578081fd5b81356001600160401b038082111561256657612566612fdd565b604051601f8301601f19908116603f0116810190828211818310171561258e5761258e612fdd565b816040528381528660208588010111156125a6578485fd5b8360208701602083013792830160200193909352509392505050565b8035600281106124f157600080fd5b6000602082840312156125e2578081fd5b8135611fb881612ff3565b600080604083850312156125ff578081fd5b823561260a81612ff3565b9150602083013561261a81612ff3565b809150509250929050565b600080600060608486031215612639578081fd5b833561264481612ff3565b9250602084013561265481612ff3565b9150604084013561266481612ff3565b809150509250925092565b600080600060608486031215612683578283fd5b833561268e81612ff3565b9250602084013561269e81612ff3565b929592945050506040919091013590565b600080604083850312156126c1578182fd5b82356126cc81612ff3565b946020939093013593505050565b600080604083850312156126ec578182fd5b82356126f781612ff3565b915060208301356001600160401b03811115612711578182fd5b61271d8582860161253c565b9150509250929050565b60008060008060006080868803121561273e578081fd5b853561274981612ff3565b94506020860135935060408601356001600160401b0381111561276a578182fd5b612776888289016124f6565b90945092506127899050606087016125c2565b90509295509295909350565b60008060008060008060008060008060006101408c8e0312156127b6578586fd5b6127bf8c6124e6565b9a5060208c013599506001600160401b038060408e013511156127e0578687fd5b6127f08e60408f01358f016124f6565b909a50985061280160608e016125c2565b975060808d0135965060a08d0135955060c08d0135945061282460e08e016124e6565b93506128336101008e016124e6565b9250806101208e01351115612846578182fd5b506128588d6101208e01358e0161253c565b90509295989b509295989b9093969950565b60008060008060008060008060008060006101408c8e03121561288b578485fd5b8b3561289681612ff3565b9a5060208c0135995060408c01356001600160401b038111156128b7578586fd5b6128c38e828f016124f6565b909a5098506128d6905060608d016125c2565b965060808c0135955060a08c0135945060c08c0135935060e08c01356128fb81612ff3565b92506101008c013561290c81612ff3565b809250506101208c013590509295989b509295989b9093969950565b6000806000806080858703121561293d578182fd5b843561294881612ff3565b93506020850135925060408501356001600160401b03811115612969578283fd5b6129758782880161253c565b925050612984606086016125c2565b905092959194509250565b6000806000806000806000806000806101008b8d0312156129ae578384fd5b8a356001600160401b03808211156129c4578586fd5b818d0191508d601f8301126129d7578586fd5b8135818111156129e5578687fd5b8e60208260051b85010111156129f9578687fd5b60208381019d50909b508d01359950612a1460408e016124e6565b985060608d0135915080821115612a29578586fd5b50612a368d828e016124f6565b9097509550612a49905060808c016124e6565b9350612a5760a08c016124e6565b925060c08b01359150612a6c60e08c016124e6565b90509295989b9194979a5092959850565b600060208284031215612a8e578081fd5b5035919050565b600080600060608486031215612aa9578081fd5b8335925060208401356001600160401b0380821115612ac6578283fd5b612ad28783880161253c565b93506040860135915080821115612ae7578283fd5b50612af48682870161253c565b9150509250925092565b60008060008060808587031215612b13578182fd5b8435935060208501356001600160401b0380821115612b30578384fd5b612b3c8883890161253c565b94506040870135915080821115612b51578384fd5b50612b5e8782880161253c565b949793965093946060013593505050565b600060208284031215612b80578081fd5b81516001600160e01b031981168114611fb8578182fd5b60008060408385031215612ba9578182fd5b50508035926020909101359150565b6000815180845260208085019450808401835b83811015612bf05781516001600160a01b031687529582019590820190600101612bcb565b509495945050505050565b60008151808452815b81811015612c2057602081850181015186830182015201612c04565b81811115612c315782602083870101525b50601f01601f19169290920160200192915050565b60028110612c6457634e487b7160e01b600052602160045260246000fd5b9052565b8183823760009101908152919050565b6001600160a01b038d168152602081018c90526101606040820181905281018a905260006101808b8d8285013781818d85010152601f19601f8d01168301612cc3606085018d612c46565b8a60808501528960a08501528860c0850152612cea60e08501896001600160a01b03169052565b6001600160a01b0387166101008501528184820301610120850152612d1182820187612bfb565b92505050612d2b6101408301846001600160a01b03169052565b9d9c50505050505050505050505050565b6080808252810185905260008660a08301825b88811015612d7f578235612d6281612ff3565b6001600160a01b0316825260209283019290910190600101612d4f565b50602084019690965250506001600160a01b039283166040820152911660609091015292915050565b602081526000611fb86020830184612bb8565b604081526000612dce6040830185612bb8565b905060018060a01b03831660208301529392505050565b8215158152604060208201526000610dbf6040830184612bfb565b8b81526001600160a01b038b81166020830152604082018b9052606082018a9052610160820190612e34608084018b612c46565b60a083019890985260c082019690965260e0810194909452918516610100840152909316610120820152610140019190915295945050505050565b602081526000611fb86020830184612bfb565b604081526000612e956040830185612bfb565b82810360208401526120288185612bfb565b602080825260059082015264475332303160d81b604082015260600190565b602080825260059082015264475332303360d81b604082015260600190565b60208082526005908201526411d4cc8c0d60da1b604082015260600190565b60008219821115612f1757612f17612fc7565b500190565b600082612f3757634e487b7160e01b81526012600452602481fd5b500490565b6000816000190483118215151615612f5657612f56612fc7565b500290565b600082821015612f6d57612f6d612fc7565b500390565b600060ff821660ff841680821015612f8c57612f8c612fc7565b90039392505050565b600081612fa457612fa4612fc7565b506000190190565b6000600019821415612fc057612fc0612fc7565b5060010190565b634e487b7160e01b600052601160045260246000fd5b634e487b7160e01b600052604160045260246000fd5b6001600160a01b038116811461300857600080fd5b5056fea264697066735822122062faa0e8e7265af7c4dd88dddc176843b3827ed219aad08b5bb37ee79fd068e464736f6c63430008040033",
  "devdoc": {
    "author": "Stefan George - <stefan@gnosis.io>Richard Meissner - <richard@gnosis.io>",
    "kind": "dev",
    "methods": {
      "addOwnerWithThreshold(address,uint256)": {
        "details": "Allows to add a new owner to the Safe and update the threshold at the same time.      This can only be done via a Safe transaction.",
        "params": {
          "_threshold": "New threshold.",
          "owner": "New owner address."
        }
      },
      "approveHash(bytes32)": {
        "details": "Marks a hash as approved. This can be used to validate a hash that is used by a signature.",
        "params": {
          "hashToApprove": "The hash that should be marked as approved for signatures that are verified by this contract."
        }
      },
      "changeThreshold(uint256)": {
        "details": "Allows to update the number of required confirmations by Safe owners.      This can only be done via a Safe transaction.",
        "params": {
          "_threshold": "New threshold."
        }
      },
      "checkNSignatures(bytes32,bytes,bytes,uint256)": {
        "details": "Checks whether the signature provided is valid for the provided data, hash. Will revert otherwise.",
        "params": {
          "data": "That should be signed (this is passed to an external validator contract)",
          "dataHash": "Hash of the data (could be either a message hash or transaction hash)",
          "requiredSignatures": "Amount of required valid signatures.",
          "signatures": "Signature data that should be verified. Can be ECDSA signature, contract signature (EIP-1271) or approved hash."
        }
      },
      "checkSignatures(bytes32,bytes,bytes)": {
        "details": "Checks whether the signature provided is valid for the provided data, hash. Will revert otherwise.",
        "params": {
          "data": "That should be signed (this is passed to an external validator contract)",
          "dataHash": "Hash of the data (could be either a message hash or transaction hash)",
          "signatures": "Signature data that should be verified. Can be ECDSA signature, contract signature (EIP-1271) or approved hash."
        }
      },
      "disableModule(address,address)": {
        "details": "Allows to remove a module from the whitelist.      This can only be done via a Safe transaction.",
        "params": {
          "module": "Module to be removed.",
          "prevModule": "Module that pointed to the module to be removed in the linked list"
        }
      },
      "enableModule(address)": {
        "details": "Allows to add a module to the whitelist.      This can only be done via a Safe transaction.",
        "params": {
          "module": "Module to be whitelisted."
        }
      },
      "encodeTransactionData(address,uint256,bytes,uint8,uint256,uint256,uint256,address,address,uint256)": {
        "details": "Returns the bytes that are hashed to be signed by owners.",
        "params": {
          "_nonce": "Transaction nonce.",
          "baseGas": "Gas costs for that are independent of the transaction execution(e.g. base transaction fee, signature check, payment of the refund)",
          "data": "Data payload.",
          "gasPrice": "Maximum gas price that should be used for this transaction.",
          "gasToken": "Token address (or 0 if ETH) that is used for the payment.",
          "operation": "Operation type.",
          "refundReceiver": "Address of receiver of gas payment (or 0 if tx.origin).",
          "safeTxGas": "Gas that should be used for the safe transaction.",
          "to": "Destination address.",
          "value": "Ether value."
        },
        "returns": {
          "_0": "Transaction hash bytes."
        }
      },
      "execTransaction(address,uint256,bytes,uint8,uint256,uint256,uint256,address,address,bytes)": {
        "details": "Allows to execute a Safe transaction confirmed by required number of owners and then pays the account that submitted the transaction.      Note: The fees are always transferred, even if the user transaction fails.",
        "params": {
          "baseGas": "Gas costs that are independent of the transaction execution(e.g. base transaction fee, signature check, payment of the refund)",
          "data": "Data payload of Safe transaction.",
          "gasPrice": "Gas price that should be used for the payment calculation.",
          "gasToken": "Token address (or 0 if ETH) that is used for the payment.",
          "operation": "Operation type of Safe transaction.",
          "refundReceiver": "Address of receiver of gas payment (or 0 if tx.origin).",
          "safeTxGas": "Gas that should be used for the Safe transaction.",
          "signatures": "Packed signature data ({bytes32 r}{bytes32 s}{uint8 v})",
          "to": "Destination address of Safe transaction.",
          "value": "Ether value of Safe transaction."
        }
      },
      "execTransactionFromModule(address,uint256,bytes,uint8)": {
        "details": "Allows a Module to execute a Safe transaction without any further confirmations.",
        "params": {
          "data": "Data payload of module transaction.",
          "operation": "Operation type of module transaction.",
          "to": "Destination address of module transaction.",
          "value": "Ether value of module transaction."
        }
      },
      "execTransactionFromModuleReturnData(address,uint256,bytes,uint8)": {
        "details": "Allows a Module to execute a Safe transaction without any further confirmations and return data",
        "params": {
          "data": "Data payload of module transaction.",
          "operation": "Operation type of module transaction.",
          "to": "Destination address of module transaction.",
          "value": "Ether value of module transaction."
        }
      },
      "getChainId()": {
        "details": "Returns the chain id used by this contract."
      },
      "getModulesPaginated(address,uint256)": {
        "details": "Returns array of modules.",
        "params": {
          "pageSize": "Maximum number of modules that should be returned.",
          "start": "Start of the page."
        },
        "returns": {
          "array": "Array of modules.",
          "next": "Start of the next page."
        }
      },
      "getOwners()": {
        "details": "Returns array of owners.",
        "returns": {
          "_0": "Array of Safe owners."
        }
      },
      "getStorageAt(uint256,uint256)": {
        "details": "Reads `length` bytes of storage in the currents contract",
        "params": {
          "length": "- the number of words (32 bytes) of data to read",
          "offset": "- the offset in the current contract's storage in words to start reading from"
        },
        "returns": {
          "_0": "the bytes that were read."
        }
      },
      "getTransactionHash(address,uint256,bytes,uint8,uint256,uint256,uint256,address,address,uint256)": {
        "details": "Returns hash to be signed by owners.",
        "params": {
          "_nonce": "Transaction nonce.",
          "baseGas": "Gas costs for data used to trigger the safe transaction.",
          "data": "Data payload.",
          "gasPrice": "Maximum gas price that should be used for this transaction.",
          "gasToken": "Token address (or 0 if ETH) that is used for the payment.",
          "operation": "Operation type.",
          "refundReceiver": "Address of receiver of gas payment (or 0 if tx.origin).",
          "safeTxGas": "Fas that should be used for the safe transaction.",
          "to": "Destination address.",
          "value": "Ether value."
        },
        "returns": {
          "_0": "Transaction hash."
        }
      },
      "isModuleEnabled(address)": {
        "details": "Returns if an module is enabled",
        "returns": {
          "_0": "True if the module is enabled"
        }
      },
      "removeOwner(address,address,uint256)": {
        "details": "Allows to remove an owner from the Safe and update the threshold at the same time.      This can only be done via a Safe transaction.",
        "params": {
          "_threshold": "New threshold.",
          "owner": "Owner address to be removed.",
          "prevOwner": "Owner that pointed to the owner to be removed in the linked list"
        }
      },
      "requiredTxGas(address,uint256,bytes,uint8)": {
        "details": "Allows to estimate a Safe transaction.      This method is only meant for estimation purpose, therefore the call will always revert and encode the result in the revert data.      Since the `estimateGas` function includes refunds, call this method to get an estimated of the costs that are deducted from the safe with `execTransaction`",
        "params": {
          "data": "Data payload of Safe transaction.",
          "operation": "Operation type of Safe transaction.",
          "to": "Destination address of Safe transaction.",
          "value": "Ether value of Safe transaction."
        },
        "returns": {
          "_0": "Estimate without refunds and overhead fees (base transaction and payload data gas costs)."
        }
      },
      "setFallbackHandler(address)": {
        "details": "Allows to add a contract to handle fallback calls.      Only fallback calls without value and with data will be forwarded.      This can only be done via a Safe transaction.",
        "params": {
          "handler": "contract to handle fallbacks calls."
        }
      },
      "setGuard(address)": {
        "details": "Set a guard that checks transactions before execution",
        "params": {
          "guard": "The address of the guard to be used or the 0 address to disable the guard"
        }
      },
      "setup(address[],uint256,address,bytes,address,address,uint256,address)": {
        "details": "Setup function sets initial storage of contract.",
        "params": {
          "_owners": "List of Safe owners.",
          "_threshold": "Number of required confirmations for a Safe transaction.",
          "data": "Data payload for optional delegate call.",
          "fallbackHandler": "Handler for fallback calls to this contract",
          "payment": "Value that should be paid",
          "paymentReceiver": "Adddress that should receive the payment (or 0 if tx.origin)",
          "paymentToken": "Token that should be used for the payment (0 is ETH)",
          "to": "Contract address for optional delegate call."
        }
      },
      "simulateAndRevert(address,bytes)": {
        "details": "Performs a delegetecall on a targetContract in the context of self. Internally reverts execution to avoid side effects (making it static). This method reverts with data equal to `abi.encode(bool(success), bytes(response))`. Specifically, the `returndata` after a call to this method will be: `success:bool || response.length:uint256 || response:bytes`.",
        "params": {
          "calldataPayload": "Calldata that should be sent to the target contract (encoded method name and arguments).",
          "targetContract": "Address of the contract containing the code to execute."
        }
      },
      "swapOwner(address,address,address)": {
        "details": "Allows to swap/replace an owner from the Safe with another address.      This can only be done via a Safe transaction.",
        "params": {
          "newOwner": "New owner address.",
          "oldOwner": "Owner address to be replaced.",
          "prevOwner": "Owner that pointed to the owner to be replaced in the linked list"
        }
      }
    },
    "title": "Gnosis Safe - A multisignature wallet with support for confirmations using signed messages based on ERC191.",
    "version": 1
  },
  "userdoc": {
    "kind": "user",
    "methods": {
      "addOwnerWithThreshold(address,uint256)": {
        "notice": "Adds the owner `owner` to the Safe and updates the threshold to `_threshold`."
      },
      "changeThreshold(uint256)": {
        "notice": "Changes the threshold of the Safe to `_threshold`."
      },
      "disableModule(address,address)": {
        "notice": "Disables the module `module` for the Safe."
      },
      "enableModule(address)": {
        "notice": "Enables the module `module` for the Safe."
      },
      "removeOwner(address,address,uint256)": {
        "notice": "Removes the owner `owner` from the Safe and updates the threshold to `_threshold`."
      },
      "requiredTxGas(address,uint256,bytes,uint8)": {
        "notice": "Deprecated in favor of common/StorageAccessible.sol and will be removed in next version."
      },
      "swapOwner(address,address,address)": {
        "notice": "Replaces the owner `oldOwner` in the Safe with `newOwner`."
      }
    },
    "version": 1
  },
  "storageLayout": {
    "storage": [
      {
        "astId": 2329,
        "contract": "contracts/multisig/GnosisSafe.sol:GnosisSafe",
        "label": "singleton",
        "offset": 0,
        "slot": "0",
        "type": "t_address"
      },
      {
        "astId": 1380,
        "contract": "contracts/multisig/GnosisSafe.sol:GnosisSafe",
        "label": "modules",
        "offset": 0,
        "slot": "1",
        "type": "t_mapping(t_address,t_address)"
      },
      {
        "astId": 1739,
        "contract": "contracts/multisig/GnosisSafe.sol:GnosisSafe",
        "label": "owners",
        "offset": 0,
        "slot": "2",
        "type": "t_mapping(t_address,t_address)"
      },
      {
        "astId": 1741,
        "contract": "contracts/multisig/GnosisSafe.sol:GnosisSafe",
        "label": "ownerCount",
        "offset": 0,
        "slot": "3",
        "type": "t_uint256"
      },
      {
        "astId": 1743,
        "contract": "contracts/multisig/GnosisSafe.sol:GnosisSafe",
        "label": "threshold",
        "offset": 0,
        "slot": "4",
        "type": "t_uint256"
      },
      {
        "astId": 82,
        "contract": "contracts/multisig/GnosisSafe.sol:GnosisSafe",
        "label": "nonce",
        "offset": 0,
        "slot": "5",
        "type": "t_uint256"
      },
      {
        "astId": 84,
        "contract": "contracts/multisig/GnosisSafe.sol:GnosisSafe",
        "label": "_deprecatedDomainSeparator",
        "offset": 0,
        "slot": "6",
        "type": "t_bytes32"
      },
      {
        "astId": 88,
        "contract": "contracts/multisig/GnosisSafe.sol:GnosisSafe",
        "label": "signedMessages",
        "offset": 0,
        "slot": "7",
        "type": "t_mapping(t_bytes32,t_uint256)"
      },
      {
        "astId": 94,
        "contract": "contracts/multisig/GnosisSafe.sol:GnosisSafe",
        "label": "approvedHashes",
        "offset": 0,
        "slot": "8",
        "type": "t_mapping(t_address,t_mapping(t_bytes32,t_uint256))"
      }
    ],
    "types": {
      "t_address": {
        "encoding": "inplace",
        "label": "address",
        "numberOfBytes": "20"
      },
      "t_bytes32": {
        "encoding": "inplace",
        "label": "bytes32",
        "numberOfBytes": "32"
      },
      "t_mapping(t_address,t_address)": {
        "encoding": "mapping",
        "key": "t_address",
        "label": "mapping(address => address)",
        "numberOfBytes": "32",
        "value": "t_address"
      },
      "t_mapping(t_address,t_mapping(t_bytes32,t_uint256))": {
        "encoding": "mapping",
        "key": "t_address",
        "label": "mapping(address => mapping(bytes32 => uint256))",
        "numberOfBytes": "32",
        "value": "t_mapping(t_bytes32,t_uint256)"
      },
      "t_mapping(t_bytes32,t_uint256)": {
        "encoding": "mapping",
        "key": "t_bytes32",
        "label": "mapping(bytes32 => uint256)",
        "numberOfBytes": "32",
        "value": "t_uint256"
      },
      "t_uint256": {
        "encoding": "inplace",
        "label": "uint256",
        "numberOfBytes": "32"
      }
    }
  }
}