{
  "address": "0x5FbDB2315678afecb367f032d93F642f64180aa3",
  "abi": [
    {
      "inputs": [],
      "stateMutability": "nonpayable",
      "type": "constructor"
    },
    {
      "anonymous": false,
      "inputs": [
        {
          "indexed": true,
          "internalType": "address",
          "name": "owner",
          "type": "address"
        },
        {
          "indexed": true,
          "internalType": "address",
          "name": "spender",
          "type": "address"
        },
        {
          "indexed": false,
          "internalType": "uint256",
          "name": "value",
          "type": "uint256"
        }
      ],
      "name": "Approval",
      "type": "event"
    },
    {
      "anonymous": false,
      "inputs": [
        {
          "indexed": true,
          "internalType": "address",
          "name": "burner",
          "type": "address"
        },
        {
          "indexed": false,
          "internalType": "uint256",
          "name": "burnAmount",
          "type": "uint256"
        }
      ],
      "name": "Burned",
      "type": "event"
    },
    {
      "anonymous": false,
      "inputs": [
        {
          "indexed": true,
          "internalType": "address",
          "name": "delegator",
          "type": "address"
        },
        {
          "indexed": true,
          "internalType": "address",
          "name": "fromDelegate",
          "type": "address"
        },
        {
          "indexed": true,
          "internalType": "address",
          "name": "toDelegate",
          "type": "address"
        }
      ],
      "name": "DelegateChanged",
      "type": "event"
    },
    {
      "anonymous": false,
      "inputs": [
        {
          "indexed": true,
          "internalType": "address",
          "name": "delegate",
          "type": "address"
        },
        {
          "indexed": false,
          "internalType": "uint256",
          "name": "previousBalance",
          "type": "uint256"
        },
        {
          "indexed": false,
          "internalType": "uint256",
          "name": "newBalance",
          "type": "uint256"
        }
      ],
      "name": "DelegateVotesChanged",
      "type": "event"
    },
    {
      "anonymous": false,
      "inputs": [
        {
          "indexed": true,
          "internalType": "address",
          "name": "minter",
          "type": "address"
        },
        {
          "indexed": true,
          "internalType": "address",
          "name": "receiver",
          "type": "address"
        },
        {
          "indexed": false,
          "internalType": "uint256",
          "name": "mintAmount",
          "type": "uint256"
        }
      ],
      "name": "Minted",
      "type": "event"
    },
    {
      "anonymous": false,
      "inputs": [
        {
          "indexed": true,
          "internalType": "bytes32",
          "name": "role",
          "type": "bytes32"
        },
        {
          "indexed": true,
          "internalType": "bytes32",
          "name": "previousAdminRole",
          "type": "bytes32"
        },
        {
          "indexed": true,
          "internalType": "bytes32",
          "name": "newAdminRole",
          "type": "bytes32"
        }
      ],
      "name": "RoleAdminChanged",
      "type": "event"
    },
    {
      "anonymous": false,
      "inputs": [
        {
          "indexed": true,
          "internalType": "bytes32",
          "name": "role",
          "type": "bytes32"
        },
        {
          "indexed": true,
          "internalType": "address",
          "name": "account",
          "type": "address"
        },
        {
          "indexed": true,
          "internalType": "address",
          "name": "sender",
          "type": "address"
        }
      ],
      "name": "RoleGranted",
      "type": "event"
    },
    {
      "anonymous": false,
      "inputs": [
        {
          "indexed": true,
          "internalType": "bytes32",
          "name": "role",
          "type": "bytes32"
        },
        {
          "indexed": true,
          "internalType": "address",
          "name": "account",
          "type": "address"
        },
        {
          "indexed": true,
          "internalType": "address",
          "name": "sender",
          "type": "address"
        }
      ],
      "name": "RoleRevoked",
      "type": "event"
    },
    {
      "anonymous": false,
      "inputs": [
        {
          "indexed": true,
          "internalType": "address",
          "name": "from",
          "type": "address"
        },
        {
          "indexed": true,
          "internalType": "address",
          "name": "to",
          "type": "address"
        },
        {
          "indexed": false,
          "internalType": "uint256",
          "name": "value",
          "type": "uint256"
        }
      ],
      "name": "Transfer",
      "type": "event"
    },
    {
      "anonymous": false,
      "inputs": [
        {
          "indexed": true,
          "internalType": "address",
          "name": "previousWhitelister",
          "type": "address"
        },
        {
          "indexed": true,
          "internalType": "address",
          "name": "newWhitelister",
          "type": "address"
        }
      ],
      "name": "WhitelisterTransferred",
      "type": "event"
    },
    {
      "inputs": [],
      "name": "DEFAULT_ADMIN_ROLE",
      "outputs": [
        {
          "internalType": "bytes32",
          "name": "",
          "type": "bytes32"
        }
      ],
      "stateMutability": "view",
      "type": "function"
    },
    {
      "inputs": [],
      "name": "DELEGATION_TYPEHASH",
      "outputs": [
        {
          "internalType": "bytes32",
          "name": "",
          "type": "bytes32"
        }
      ],
      "stateMutability": "view",
      "type": "function"
    },
    {
      "inputs": [],
      "name": "DOMAIN_TYPEHASH",
      "outputs": [
        {
          "internalType": "bytes32",
          "name": "",
          "type": "bytes32"
        }
      ],
      "stateMutability": "view",
      "type": "function"
    },
    {
      "inputs": [],
      "name": "MINTER_ROLE",
      "outputs": [
        {
          "internalType": "bytes32",
          "name": "",
          "type": "bytes32"
        }
      ],
      "stateMutability": "view",
      "type": "function"
    },
    {
      "inputs": [],
      "name": "_lgePairAddress",
      "outputs": [
        {
          "internalType": "address",
          "name": "",
          "type": "address"
        }
      ],
      "stateMutability": "view",
      "type": "function"
    },
    {
      "inputs": [],
      "name": "_lgeTimestamp",
      "outputs": [
        {
          "internalType": "uint256",
          "name": "",
          "type": "uint256"
        }
      ],
      "stateMutability": "view",
      "type": "function"
    },
    {
      "inputs": [
        {
          "internalType": "uint256",
          "name": "",
          "type": "uint256"
        }
      ],
      "name": "_lgeWhitelistRounds",
      "outputs": [
        {
          "internalType": "uint256",
          "name": "duration",
          "type": "uint256"
        },
        {
          "internalType": "uint256",
          "name": "amountMax",
          "type": "uint256"
        }
      ],
      "stateMutability": "view",
      "type": "function"
    },
    {
      "inputs": [],
      "name": "_whitelister",
      "outputs": [
        {
          "internalType": "address",
          "name": "",
          "type": "address"
        }
      ],
      "stateMutability": "view",
      "type": "function"
    },
    {
      "inputs": [
        {
          "internalType": "address",
          "name": "owner",
          "type": "address"
        },
        {
          "internalType": "address",
          "name": "spender",
          "type": "address"
        }
      ],
      "name": "allowance",
      "outputs": [
        {
          "internalType": "uint256",
          "name": "",
          "type": "uint256"
        }
      ],
      "stateMutability": "view",
      "type": "function"
    },
    {
      "inputs": [
        {
          "internalType": "address",
          "name": "spender",
          "type": "address"
        },
        {
          "internalType": "uint256",
          "name": "amount",
          "type": "uint256"
        }
      ],
      "name": "approve",
      "outputs": [
        {
          "internalType": "bool",
          "name": "",
          "type": "bool"
        }
      ],
      "stateMutability": "nonpayable",
      "type": "function"
    },
    {
      "inputs": [
        {
          "internalType": "address",
          "name": "account",
          "type": "address"
        }
      ],
      "name": "balanceOf",
      "outputs": [
        {
          "internalType": "uint256",
          "name": "",
          "type": "uint256"
        }
      ],
      "stateMutability": "view",
      "type": "function"
    },
    {
      "inputs": [
        {
          "internalType": "uint256",
          "name": "_amount",
          "type": "uint256"
        }
      ],
      "name": "burn",
      "outputs": [],
      "stateMutability": "nonpayable",
      "type": "function"
    },
    {
      "inputs": [],
      "name": "cap",
      "outputs": [
        {
          "internalType": "uint256",
          "name": "",
          "type": "uint256"
        }
      ],
      "stateMutability": "view",
      "type": "function"
    },
    {
      "inputs": [
        {
          "internalType": "address",
          "name": "",
          "type": "address"
        },
        {
          "internalType": "uint32",
          "name": "",
          "type": "uint32"
        }
      ],
      "name": "checkpoints",
      "outputs": [
        {
          "internalType": "uint256",
          "name": "fromBlock",
          "type": "uint256"
        },
        {
          "internalType": "uint256",
          "name": "votes",
          "type": "uint256"
        }
      ],
      "stateMutability": "view",
      "type": "function"
    },
    {
      "inputs": [
        {
          "internalType": "address",
          "name": "pairAddress",
          "type": "address"
        },
        {
          "internalType": "uint256[]",
          "name": "durations",
          "type": "uint256[]"
        },
        {
          "internalType": "uint256[]",
          "name": "amountsMax",
          "type": "uint256[]"
        }
      ],
      "name": "createLGEWhitelist",
      "outputs": [],
      "stateMutability": "nonpayable",
      "type": "function"
    },
    {
      "inputs": [],
      "name": "decimals",
      "outputs": [
        {
          "internalType": "uint8",
          "name": "",
          "type": "uint8"
        }
      ],
      "stateMutability": "view",
      "type": "function"
    },
    {
      "inputs": [
        {
          "internalType": "address",
          "name": "spender",
          "type": "address"
        },
        {
          "internalType": "uint256",
          "name": "subtractedValue",
          "type": "uint256"
        }
      ],
      "name": "decreaseAllowance",
      "outputs": [
        {
          "internalType": "bool",
          "name": "",
          "type": "bool"
        }
      ],
      "stateMutability": "nonpayable",
      "type": "function"
    },
    {
      "inputs": [
        {
          "internalType": "address",
          "name": "delegatee",
          "type": "address"
        }
      ],
      "name": "delegate",
      "outputs": [],
      "stateMutability": "nonpayable",
      "type": "function"
    },
    {
      "inputs": [
        {
          "internalType": "address",
          "name": "delegatee",
          "type": "address"
        },
        {
          "internalType": "uint256",
          "name": "nonce",
          "type": "uint256"
        },
        {
          "internalType": "uint256",
          "name": "expiry",
          "type": "uint256"
        },
        {
          "internalType": "uint8",
          "name": "v",
          "type": "uint8"
        },
        {
          "internalType": "bytes32",
          "name": "r",
          "type": "bytes32"
        },
        {
          "internalType": "bytes32",
          "name": "s",
          "type": "bytes32"
        }
      ],
      "name": "delegateBySig",
      "outputs": [],
      "stateMutability": "nonpayable",
      "type": "function"
    },
    {
      "inputs": [
        {
          "internalType": "address",
          "name": "delegator",
          "type": "address"
        }
      ],
      "name": "delegates",
      "outputs": [
        {
          "internalType": "address",
          "name": "",
          "type": "address"
        }
      ],
      "stateMutability": "view",
      "type": "function"
    },
    {
      "inputs": [
        {
          "internalType": "address",
          "name": "account",
          "type": "address"
        }
      ],
      "name": "getCurrentVotes",
      "outputs": [
        {
          "internalType": "uint256",
          "name": "",
          "type": "uint256"
        }
      ],
      "stateMutability": "view",
      "type": "function"
    },
    {
      "inputs": [],
      "name": "getLGEWhitelistRound",
      "outputs": [
        {
          "internalType": "uint256",
          "name": "",
          "type": "uint256"
        },
        {
          "internalType": "uint256",
          "name": "",
          "type": "uint256"
        },
        {
          "internalType": "uint256",
          "name": "",
          "type": "uint256"
        },
        {
          "internalType": "uint256",
          "name": "",
          "type": "uint256"
        },
        {
          "internalType": "bool",
          "name": "",
          "type": "bool"
        },
        {
          "internalType": "uint256",
          "name": "",
          "type": "uint256"
        }
      ],
      "stateMutability": "view",
      "type": "function"
    },
    {
      "inputs": [
        {
          "internalType": "address",
          "name": "account",
          "type": "address"
        },
        {
          "internalType": "uint256",
          "name": "blockNumber",
          "type": "uint256"
        }
      ],
      "name": "getPriorVotes",
      "outputs": [
        {
          "internalType": "uint256",
          "name": "",
          "type": "uint256"
        }
      ],
      "stateMutability": "view",
      "type": "function"
    },
    {
      "inputs": [
        {
          "internalType": "bytes32",
          "name": "role",
          "type": "bytes32"
        }
      ],
      "name": "getRoleAdmin",
      "outputs": [
        {
          "internalType": "bytes32",
          "name": "",
          "type": "bytes32"
        }
      ],
      "stateMutability": "view",
      "type": "function"
    },
    {
      "inputs": [
        {
          "internalType": "bytes32",
          "name": "role",
          "type": "bytes32"
        },
        {
          "internalType": "address",
          "name": "account",
          "type": "address"
        }
      ],
      "name": "grantRole",
      "outputs": [],
      "stateMutability": "nonpayable",
      "type": "function"
    },
    {
      "inputs": [
        {
          "internalType": "bytes32",
          "name": "role",
          "type": "bytes32"
        },
        {
          "internalType": "address",
          "name": "account",
          "type": "address"
        }
      ],
      "name": "hasRole",
      "outputs": [
        {
          "internalType": "bool",
          "name": "",
          "type": "bool"
        }
      ],
      "stateMutability": "view",
      "type": "function"
    },
    {
      "inputs": [
        {
          "internalType": "address",
          "name": "spender",
          "type": "address"
        },
        {
          "internalType": "uint256",
          "name": "addedValue",
          "type": "uint256"
        }
      ],
      "name": "increaseAllowance",
      "outputs": [
        {
          "internalType": "bool",
          "name": "",
          "type": "bool"
        }
      ],
      "stateMutability": "nonpayable",
      "type": "function"
    },
    {
      "inputs": [
        {
          "internalType": "address",
          "name": "_to",
          "type": "address"
        },
        {
          "internalType": "uint256",
          "name": "_amount",
          "type": "uint256"
        }
      ],
      "name": "mint",
      "outputs": [],
      "stateMutability": "nonpayable",
      "type": "function"
    },
    {
      "inputs": [
        {
          "internalType": "uint256",
          "name": "index",
          "type": "uint256"
        },
        {
          "internalType": "uint256",
          "name": "duration",
          "type": "uint256"
        },
        {
          "internalType": "uint256",
          "name": "amountMax",
          "type": "uint256"
        },
        {
          "internalType": "address[]",
          "name": "addresses",
          "type": "address[]"
        },
        {
          "internalType": "bool",
          "name": "enabled",
          "type": "bool"
        }
      ],
      "name": "modifyLGEWhitelist",
      "outputs": [],
      "stateMutability": "nonpayable",
      "type": "function"
    },
    {
      "inputs": [],
      "name": "name",
      "outputs": [
        {
          "internalType": "string",
          "name": "",
          "type": "string"
        }
      ],
      "stateMutability": "view",
      "type": "function"
    },
    {
      "inputs": [
        {
          "internalType": "address",
          "name": "",
          "type": "address"
        }
      ],
      "name": "nonces",
      "outputs": [
        {
          "internalType": "uint256",
          "name": "",
          "type": "uint256"
        }
      ],
      "stateMutability": "view",
      "type": "function"
    },
    {
      "inputs": [
        {
          "internalType": "address",
          "name": "",
          "type": "address"
        }
      ],
      "name": "numCheckpoints",
      "outputs": [
        {
          "internalType": "uint32",
          "name": "",
          "type": "uint32"
        }
      ],
      "stateMutability": "view",
      "type": "function"
    },
    {
      "inputs": [
        {
          "internalType": "bytes32",
          "name": "role",
          "type": "bytes32"
        },
        {
          "internalType": "address",
          "name": "account",
          "type": "address"
        }
      ],
      "name": "renounceRole",
      "outputs": [],
      "stateMutability": "nonpayable",
      "type": "function"
    },
    {
      "inputs": [],
      "name": "renounceWhitelister",
      "outputs": [],
      "stateMutability": "nonpayable",
      "type": "function"
    },
    {
      "inputs": [
        {
          "internalType": "bytes32",
          "name": "role",
          "type": "bytes32"
        },
        {
          "internalType": "address",
          "name": "account",
          "type": "address"
        }
      ],
      "name": "revokeRole",
      "outputs": [],
      "stateMutability": "nonpayable",
      "type": "function"
    },
    {
      "inputs": [
        {
          "internalType": "bytes4",
          "name": "interfaceId",
          "type": "bytes4"
        }
      ],
      "name": "supportsInterface",
      "outputs": [
        {
          "internalType": "bool",
          "name": "",
          "type": "bool"
        }
      ],
      "stateMutability": "view",
      "type": "function"
    },
    {
      "inputs": [],
      "name": "symbol",
      "outputs": [
        {
          "internalType": "string",
          "name": "",
          "type": "string"
        }
      ],
      "stateMutability": "view",
      "type": "function"
    },
    {
      "inputs": [],
      "name": "totalSupply",
      "outputs": [
        {
          "internalType": "uint256",
          "name": "",
          "type": "uint256"
        }
      ],
      "stateMutability": "view",
      "type": "function"
    },
    {
      "inputs": [
        {
          "internalType": "address",
          "name": "recipient",
          "type": "address"
        },
        {
          "internalType": "uint256",
          "name": "amount",
          "type": "uint256"
        }
      ],
      "name": "transfer",
      "outputs": [
        {
          "internalType": "bool",
          "name": "",
          "type": "bool"
        }
      ],
      "stateMutability": "nonpayable",
      "type": "function"
    },
    {
      "inputs": [
        {
          "internalType": "address",
          "name": "sender",
          "type": "address"
        },
        {
          "internalType": "address",
          "name": "recipient",
          "type": "address"
        },
        {
          "internalType": "uint256",
          "name": "amount",
          "type": "uint256"
        }
      ],
      "name": "transferFrom",
      "outputs": [
        {
          "internalType": "bool",
          "name": "",
          "type": "bool"
        }
      ],
      "stateMutability": "nonpayable",
      "type": "function"
    },
    {
      "inputs": [
        {
          "internalType": "address",
          "name": "newWhitelister",
          "type": "address"
        }
      ],
      "name": "transferWhitelister",
      "outputs": [],
      "stateMutability": "nonpayable",
      "type": "function"
    }
  ],
  "transactionHash": "0xb3d84068e6fe4d9730757355a65538323fe61e3ce453ea786b5722b31c893b7b",
  "args": [],
  "numDeployments": 1,
  "solcInputHash": "b4ceea4130d52522561410116c93f3b5",
  "bytecode": "0x60a06040523480156200001157600080fd5b506040518060400160405280601181526020017011d85b1858dd1a58c8145d58591c985b9d607a1b81525060405180604001604052806002815260200161475160f01b815250620000676200015c60201b60201c565b600380546001600160a01b0319166001600160a01b039290921691909117905581516200009c9060099060208501906200066e565b508051620000b29060089060208401906200066e565b50506007805460ff1916601217905550620000cf60003362000160565b620000fb7f9f2df0fed2c77648de5860a4cc508cd0818c85b8b8a1ab4ceeef8d981c8956a63362000160565b60075460ff166200010e90600a620007a3565b6200011f906402540be40062000862565b60805262000156336200013460075460ff1690565b6200014190600a620007a3565b6200015090620f424062000862565b620001eb565b62000919565b3390565b6200016c8282620002e1565b620001e7576000828152600a602090815260408083206001600160a01b03851684529091529020805460ff19166001179055620001a63390565b6001600160a01b0316816001600160a01b0316837f2f8788117e7eff1d82e926ec794901d17c78024a50270940304540a733656f0d60405160405180910390a45b5050565b6001600160a01b038216620002465760405162461bcd60e51b815260206004820152601f60248201527f42455032303a206d696e7420746f20746865207a65726f206164647265737300604482015260640160405180910390fd5b62000254600083836200030e565b806006600082825462000268919062000714565b90915550506001600160a01b038216600090815260046020526040812080548392906200029790849062000714565b90915550506040518181526001600160a01b038316906000907fddf252ad1be2c89b69c2b068fc378daa952ba7f163c4a11628f55a4df523b3ef9060200160405180910390a35050565b6000828152600a602090815260408083206001600160a01b038516845290915290205460ff165b92915050565b6001600160a01b038084166000908152600b6020526040808220548584168352912054620003429291821691168362000347565b505050565b816001600160a01b0316836001600160a01b0316141580156200036a5750600081115b1562000342576001600160a01b0383161562000425576001600160a01b0383166000908152600d602052604081205463ffffffff169081620003ae576000620003f3565b6001600160a01b0385166000908152600c6020526040812090620003d46001856200089e565b63ffffffff1663ffffffff168152602001908152602001600020600101545b90506000620004118483620004de60201b620015bc1790919060201c565b90506200042186848484620004f3565b5050505b6001600160a01b0382161562000342576001600160a01b0382166000908152600d602052604081205463ffffffff16908162000463576000620004a8565b6001600160a01b0384166000908152600c6020526040812090620004896001856200089e565b63ffffffff1663ffffffff168152602001908152602001600020600101545b90506000620004c684836200066060201b620015c81790919060201c565b9050620004d685848484620004f3565b505050505050565b6000620004ec828462000884565b9392505050565b4363ffffffff8416158015906200054557506001600160a01b0385166000908152600c6020526040812082916200052c6001886200089e565b63ffffffff168152602081019190915260400160002054145b1562000592576001600160a01b0385166000908152600c602052604081208391620005726001886200089e565b63ffffffff16815260208101919091526040016000206001015562000615565b60408051808201825282815260208082018581526001600160a01b0389166000908152600c835284812063ffffffff8a168252909252929020905181559051600191820155620005e49085906200072f565b6001600160a01b0386166000908152600d60205260409020805463ffffffff191663ffffffff929092169190911790555b60408051848152602081018490526001600160a01b038716917fdec2bacdd2f05b59de34da9b523dff8be42e5e38e818c82fdb0bae774387a724910160405180910390a25050505050565b6000620004ec828462000714565b8280546200067c90620008c6565b90600052602060002090601f016020900481019282620006a05760008555620006eb565b82601f10620006bb57805160ff1916838001178555620006eb565b82800160010185558215620006eb579182015b82811115620006eb578251825591602001919060010190620006ce565b50620006f9929150620006fd565b5090565b5b80821115620006f95760008155600101620006fe565b600082198211156200072a576200072a62000903565b500190565b600063ffffffff80831681851680830382111562000751576200075162000903565b01949350505050565b600181815b808511156200079b5781600019048211156200077f576200077f62000903565b808516156200078d57918102915b93841c93908002906200075f565b509250929050565b6000620004ec60ff841683600082620007bf5750600162000308565b81620007ce5750600062000308565b8160018114620007e75760028114620007f25762000812565b600191505062000308565b60ff84111562000806576200080662000903565b50506001821b62000308565b5060208310610133831016604e8410600b841016171562000837575081810a62000308565b6200084383836200075a565b80600019048211156200085a576200085a62000903565b029392505050565b60008160001904831182151516156200087f576200087f62000903565b500290565b60008282101562000899576200089962000903565b500390565b600063ffffffff83811690831681811015620008be57620008be62000903565b039392505050565b600181811c90821680620008db57607f821691505b60208210811415620008fd57634e487b7160e01b600052602260045260246000fd5b50919050565b634e487b7160e01b600052601160045260246000fd5b608051612afb6200093c6000396000818161038d0152610a2b0152612afb6000f3fe608060405234801561001057600080fd5b50600436106102535760003560e01c80635c19a95c11610146578063a77cac7a116100c3578063d539139311610087578063d5391393146105d6578063d547741f146105fd578063da91b76e14610610578063dd62ed3e14610619578063e7a324dc14610652578063f1127ed81461067957600080fd5b8063a77cac7a14610562578063a9059cbb1461058a578063b4b5ea571461059d578063c3cda520146105b0578063d5215d11146105c357600080fd5b806391d148541161010a57806391d148541461052457806395d89b41146105375780639ad3a7ba1461053f578063a217fddf14610547578063a457c2d71461054f57600080fd5b80635c19a95c1461047a5780636fcfff451461048d57806370a08231146104c8578063782d6fe1146104f15780637ecebe001461050457600080fd5b8063313ce567116101d457806342966c681161019857806342966c68146103ea57806344ade3c5146103fd5780634944889814610410578063532f1fed1461043b578063587cde1e1461044e57600080fd5b8063313ce56714610376578063355274ea1461038b57806336568abe146103b157806339509351146103c457806340c10f19146103d757600080fd5b806320606b701161021b57806320606b70146102f157806323b872dd14610318578063248a9ca31461032b5780632e15e5c71461034e5780632f2ff15d1461036357600080fd5b806301ffc9a71461025857806306fdde0314610280578063095ea7b31461029557806318160ddd146102a85780631b29b0cd146102ba575b600080fd5b61026b61026636600461275d565b6106ab565b60405190151581526020015b60405180910390f35b6102886106e2565b604051610277919061286f565b61026b6102a336600461265e565b610774565b6006545b604051908152602001610277565b6102c261078a565b6040805196875260208701959095529385019290925260608401521515608083015260a082015260c001610277565b6102ac7f8cad95687ba82c2ce50e74f7b754645e5117c3a5bec8151c0726d5857980a86681565b61026b6103263660046125a5565b610877565b6102ac610339366004612723565b6000908152600a602052604090206001015490565b61036161035c366004612559565b6108e0565b005b61036161037136600461273b565b61091f565b60075460405160ff9091168152602001610277565b7f00000000000000000000000000000000000000000000000000000000000000006102ac565b6103616103bf36600461273b565b61094a565b61026b6103d236600461265e565b6109c8565b6103616103e536600461265e565b6109fe565b6103616103f8366004612723565b610afc565b61036161040b366004612785565b610b3e565b600254610423906001600160a01b031681565b6040516001600160a01b039091168152602001610277565b6103616104493660046125e0565b610d83565b61042361045c366004612559565b6001600160a01b039081166000908152600b60205260409020541690565b610361610488366004612559565b610ed3565b6104b361049b366004612559565b600d6020526000908152604090205463ffffffff1681565b60405163ffffffff9091168152602001610277565b6102ac6104d6366004612559565b6001600160a01b031660009081526004602052604090205490565b6102ac6104ff36600461265e565b610edd565b6102ac610512366004612559565b600e6020526000908152604090205481565b61026b61053236600461273b565b61112d565b610288611158565b610361611167565b6102ac600081565b61026b61055d36600461265e565b6111db565b610575610570366004612723565b61122a565b60408051928352602083019190915201610277565b61026b61059836600461265e565b611258565b6102ac6105ab366004612559565b611265565b6103616105be366004612687565b6112da565b600354610423906001600160a01b031681565b6102ac7f9f2df0fed2c77648de5860a4cc508cd0818c85b8b8a1ab4ceeef8d981c8956a681565b61036161060b36600461273b565b611596565b6102ac60015481565b6102ac610627366004612573565b6001600160a01b03918216600090815260056020908152604080832093909416825291909152205490565b6102ac7fe48329057bfd03d55e49b547132e39cffd9c1820ad7b9d4c5307691425d15adf81565b6105756106873660046126e5565b600c6020908152600092835260408084209091529082529020805460019091015482565b60006001600160e01b03198216637965db0b60e01b14806106dc57506301ffc9a760e01b6001600160e01b03198316145b92915050565b6060600980546106f1906129e6565b80601f016020809104026020016040519081016040528092919081815260200182805461071d906129e6565b801561076a5780601f1061073f5761010080835404028352916020019161076a565b820191906000526020600020905b81548152906001019060200180831161074d57829003601f168201915b5050505050905090565b60006107813384846115d4565b50600192915050565b6000806000806000806000600154111561085c5760015460005b6000548110156108595760008082815481106107d057634e487b7160e01b600052603260045260246000fd5b906000526020600020906004020190508060000154836107f091906128d9565b9250824211610846576108048260016128d9565b815460018301543360009081526002850160209081526040808320546003909701909152902054929b5090995093975092955060ff16935090915061086f9050565b508061085181612a21565b9150506107a4565b50505b5060009450849350839250829150819050805b909192939495565b60006108848484846116f0565b6108d684336108d185604051806060016040528060288152602001612a53602891396001600160a01b038a166000908152600560209081526040808320338452909152902054919061188c565b6115d4565b5060019392505050565b6003546001600160a01b031633146109135760405162461bcd60e51b815260040161090a906128a2565b60405180910390fd5b61091c816118b8565b50565b6000828152600a602052604090206001015461093b8133611976565b61094583836119da565b505050565b6001600160a01b03811633146109ba5760405162461bcd60e51b815260206004820152602f60248201527f416363657373436f6e74726f6c3a2063616e206f6e6c792072656e6f756e636560448201526e103937b632b9903337b91039b2b63360891b606482015260840161090a565b6109c48282611a60565b5050565b3360008181526005602090815260408083206001600160a01b038716845290915281205490916107819185906108d190866115c8565b7f9f2df0fed2c77648de5860a4cc508cd0818c85b8b8a1ab4ceeef8d981c8956a6610a298133611976565b7f000000000000000000000000000000000000000000000000000000000000000082610a5460065490565b610a5e91906128d9565b1115610aac5760405162461bcd60e51b815260206004820152601960248201527f42455032304361707065643a2043617020657863656564656400000000000000604482015260640161090a565b610ab68383611ac7565b6040518281526001600160a01b0384169033907f9d228d69b5fdb8d273a2336f8fb8612d039631024ea9bf09c424a9503aa078f0906020015b60405180910390a3505050565b610b063382611bb2565b60405181815233907f696de425f79f4a40bc6d2122ca50507f0efbeabbff86a84871b7196ab8ea8df79060200160405180910390a250565b6003546001600160a01b03163314610b685760405162461bcd60e51b815260040161090a906128a2565b6000548610610ba95760405162461bcd60e51b815260206004820152600d60248201526c092dcecc2d8d2c840d2dcc8caf609b1b604482015260640161090a565b60008411610bed5760405162461bcd60e51b8152602060048201526011602482015270092dcecc2d8d2c840c2dadeeadce89ac2f607b1b604482015260640161090a565b60008681548110610c0e57634e487b7160e01b600052603260045260246000fd5b9060005260206000209060040201600001548514610c5a578460008781548110610c4857634e487b7160e01b600052603260045260246000fd5b60009182526020909120600490910201555b60008681548110610c7b57634e487b7160e01b600052603260045260246000fd5b9060005260206000209060040201600101548414610ccb578360008781548110610cb557634e487b7160e01b600052603260045260246000fd5b9060005260206000209060040201600101819055505b60005b82811015610d7a578160008881548110610cf857634e487b7160e01b600052603260045260246000fd5b90600052602060002090600402016002016000868685818110610d2b57634e487b7160e01b600052603260045260246000fd5b9050602002016020810190610d409190612559565b6001600160a01b031681526020810191909152604001600020805460ff191691151591909117905580610d7281612a21565b915050610cce565b50505050505050565b6003546001600160a01b03163314610dad5760405162461bcd60e51b815260040161090a906128a2565b828114610df35760405162461bcd60e51b8152602060048201526014602482015273496e76616c69642077686974656c69737428732960601b604482015260640161090a565b600280546001600160a01b0319166001600160a01b0387161790558215610ecc57610e1f6000806124b8565b60005b83811015610eca57600080546001810182559080526004027f290decd9548b62a8d60345a988386fc84ba6bc95484008f6362f93160ef3e56301858583818110610e7c57634e487b7160e01b600052603260045260246000fd5b6020029190910135825550838383818110610ea757634e487b7160e01b600052603260045260246000fd5b905060200201358160010181905550508080610ec290612a21565b915050610e22565b505b5050505050565b61091c3382611d04565b6000438210610f3c5760405162461bcd60e51b815260206004820152602560248201527f47513a3a6765745072696f72566f7465733a206e6f74207965742064657465726044820152641b5a5b995960da1b606482015260840161090a565b6001600160a01b0383166000908152600d602052604090205463ffffffff1680610f6a5760009150506106dc565b6001600160a01b0384166000908152600c602052604081208491610f8f60018561297e565b63ffffffff16815260208101919091526040016000205411610ff5576001600160a01b0384166000908152600c6020526040812090610fcf60018461297e565b63ffffffff1663ffffffff168152602001908152602001600020600101549150506106dc565b6001600160a01b0384166000908152600c6020908152604080832083805290915290205483101561102a5760009150506106dc565b60008061103860018461297e565b90505b8163ffffffff168163ffffffff1611156110f6576000600261105d848461297e565b6110679190612919565b611071908361297e565b6001600160a01b0388166000908152600c6020908152604080832063ffffffff851684528252918290208251808401909352805480845260019091015491830191909152919250908714156110d0576020015194506106dc9350505050565b80518711156110e1578193506110ef565b6110ec60018361297e565b92505b505061103b565b506001600160a01b0385166000908152600c6020908152604080832063ffffffff9094168352929052206001015491505092915050565b6000918252600a602090815260408084206001600160a01b0393909316845291905290205460ff1690565b6060600880546106f1906129e6565b6003546001600160a01b031633146111915760405162461bcd60e51b815260040161090a906128a2565b6003546040516000916001600160a01b0316907f4e78506f3260e366dc9440ee0b4eca2d03aa91536b7605deb90e873d3fc4e5b4908390a3600380546001600160a01b0319169055565b600061078133846108d185604051806060016040528060258152602001612aa1602591393360009081526005602090815260408083206001600160a01b038d168452909152902054919061188c565b6000818154811061123a57600080fd5b60009182526020909120600490910201805460019091015490915082565b60006107813384846116f0565b6001600160a01b0381166000908152600d602052604081205463ffffffff16806112905760006112d3565b6001600160a01b0383166000908152600c60205260408120906112b460018461297e565b63ffffffff1663ffffffff168152602001908152602001600020600101545b9392505050565b60007f8cad95687ba82c2ce50e74f7b754645e5117c3a5bec8151c0726d5857980a8666113056106e2565b805190602001206113134690565b60408051602080820195909552808201939093526060830191909152306080808401919091528151808403909101815260a0830182528051908401207fe48329057bfd03d55e49b547132e39cffd9c1820ad7b9d4c5307691425d15adf60c08401526001600160a01b038b1660e084015261010083018a90526101208084018a90528251808503909101815261014084019092528151919093012061190160f01b610160830152610162820183905261018282018190529192506000906101a20160408051601f198184030181528282528051602091820120600080855291840180845281905260ff8a169284019290925260608301889052608083018790529092509060019060a0016020604051602081039080840390855afa15801561143f573d6000803e3d6000fd5b5050604051601f1901519150506001600160a01b0381166114ae5760405162461bcd60e51b8152602060048201526024808201527f47513a3a64656c656761746542795369673a20696e76616c6964207369676e616044820152637475726560e01b606482015260840161090a565b6001600160a01b0381166000908152600e602052604081208054916114d283612a21565b9190505589146115245760405162461bcd60e51b815260206004820181905260248201527f47513a3a64656c656761746542795369673a20696e76616c6964206e6f6e6365604482015260640161090a565b874211156115805760405162461bcd60e51b8152602060048201526024808201527f47513a3a64656c656761746542795369673a207369676e6174757265206578706044820152631a5c995960e21b606482015260840161090a565b61158a818b611d04565b50505050505050505050565b6000828152600a60205260409020600101546115b28133611976565b6109458383611a60565b60006112d38284612967565b60006112d382846128d9565b6001600160a01b0383166116365760405162461bcd60e51b8152602060048201526024808201527f42455032303a20617070726f76652066726f6d20746865207a65726f206164646044820152637265737360e01b606482015260840161090a565b6001600160a01b0382166116975760405162461bcd60e51b815260206004820152602260248201527f42455032303a20617070726f766520746f20746865207a65726f206164647265604482015261737360f01b606482015260840161090a565b6001600160a01b0383811660008181526005602090815260408083209487168084529482529182902085905590518481527f8c5be1e5ebec7d5bd14f71427d1e84f3dd0314c0f7b2291e5b200ac8c7c3b9259101610aef565b6001600160a01b0383166117545760405162461bcd60e51b815260206004820152602560248201527f42455032303a207472616e736665722066726f6d20746865207a65726f206164604482015264647265737360d81b606482015260840161090a565b6001600160a01b0382166117b65760405162461bcd60e51b815260206004820152602360248201527f42455032303a207472616e7366657220746f20746865207a65726f206164647260448201526265737360e81b606482015260840161090a565b6117c1838383611d84565b6117cc838383611fe5565b61180981604051806060016040528060268152602001612a7b602691396001600160a01b038616600090815260046020526040902054919061188c565b6001600160a01b03808516600090815260046020526040808220939093559084168152205461183890826115c8565b6001600160a01b0380841660008181526004602052604090819020939093559151908516907fddf252ad1be2c89b69c2b068fc378daa952ba7f163c4a11628f55a4df523b3ef90610aef9085815260200190565b600081848411156118b05760405162461bcd60e51b815260040161090a919061286f565b505050900390565b6001600160a01b03811661191a5760405162461bcd60e51b815260206004820152602360248201527f4e65772077686974656c697374657220697320746865207a65726f206164647260448201526265737360e81b606482015260840161090a565b6003546040516001600160a01b038084169216907f4e78506f3260e366dc9440ee0b4eca2d03aa91536b7605deb90e873d3fc4e5b490600090a3600380546001600160a01b0319166001600160a01b0392909216919091179055565b611980828261112d565b6109c457611998816001600160a01b03166014612017565b6119a3836020612017565b6040516020016119b49291906127fa565b60408051601f198184030181529082905262461bcd60e51b825261090a9160040161286f565b6119e4828261112d565b6109c4576000828152600a602090815260408083206001600160a01b03851684529091529020805460ff19166001179055611a1c3390565b6001600160a01b0316816001600160a01b0316837f2f8788117e7eff1d82e926ec794901d17c78024a50270940304540a733656f0d60405160405180910390a45050565b611a6a828261112d565b156109c4576000828152600a602090815260408083206001600160a01b0385168085529252808320805460ff1916905551339285917ff6391f5c32d9c69d2a47ea670b442974b53935d1edc7fd64eb21e047a839171b9190a45050565b6001600160a01b038216611b1d5760405162461bcd60e51b815260206004820152601f60248201527f42455032303a206d696e7420746f20746865207a65726f206164647265737300604482015260640161090a565b611b2960008383611fe5565b8060066000828254611b3b91906128d9565b90915550506001600160a01b03821660009081526004602052604081208054839290611b689084906128d9565b90915550506040518181526001600160a01b038316906000907fddf252ad1be2c89b69c2b068fc378daa952ba7f163c4a11628f55a4df523b3ef9060200160405180910390a35050565b6001600160a01b038216611c125760405162461bcd60e51b815260206004820152602160248201527f42455032303a206275726e2066726f6d20746865207a65726f206164647265736044820152607360f81b606482015260840161090a565b611c1e82600083611fe5565b6001600160a01b03821660009081526004602052604090205481811015611c925760405162461bcd60e51b815260206004820152602260248201527f42455032303a206275726e20616d6f756e7420657863656564732062616c616e604482015261636560f01b606482015260840161090a565b6001600160a01b0383166000908152600460205260408120838303905560068054849290611cc1908490612967565b90915550506040518281526000906001600160a01b038516907fddf252ad1be2c89b69c2b068fc378daa952ba7f163c4a11628f55a4df523b3ef90602001610aef565b6001600160a01b038281166000818152600b6020818152604080842080546004845282862054949093528787166001600160a01b03198416811790915590519190951694919391928592917f3134e8a2e6d97e929a7e54011ea5485d7d196dd5f0ba4d4ef95803e8e3fc257f9190a4611d7e8284836121f9565b50505050565b6002546001600160a01b03161580611d9c5750600054155b15611da657505050565b600154158015611dc457506002546001600160a01b03848116911614155b8015611ddd57506002546001600160a01b038381169116145b8015611de95750600081115b15611df357426001555b6002546001600160a01b038481169116148015611e1e57506002546001600160a01b03838116911614155b15610945576000611e2d61078a565b505050505090506000811115611d7e57600080611e4b600184612967565b81548110611e6957634e487b7160e01b600052603260045260246000fd5b600091825260208083206001600160a01b03881684526002600490930201918201905260409091205490915060ff16611ee45760405162461bcd60e51b815260206004820152601e60248201527f4c4745202d204275796572206973206e6f742077686974656c69737465640000604482015260640161090a565b60018101546001600160a01b038516600090815260038301602052604081205490911115611f39576001600160a01b03851660009081526003830160205260409020546001830154611f369190612967565b90505b80841115611f985760405162461bcd60e51b815260206004820152602660248201527f4c4745202d20416d6f756e7420657863656564732077686974656c697374206d6044820152656178696d756d60d01b606482015260840161090a565b6001600160a01b0385166000908152600383016020526040902054611fbe9085906128d9565b6001600160a01b038616600090815260039093016020526040909220919091555050505050565b6001600160a01b038084166000908152600b6020526040808220548584168352912054610945929182169116836121f9565b60606000612026836002612948565b6120319060026128d9565b67ffffffffffffffff81111561205757634e487b7160e01b600052604160045260246000fd5b6040519080825280601f01601f191660200182016040528015612081576020820181803683370190505b509050600360fc1b816000815181106120aa57634e487b7160e01b600052603260045260246000fd5b60200101906001600160f81b031916908160001a905350600f60fb1b816001815181106120e757634e487b7160e01b600052603260045260246000fd5b60200101906001600160f81b031916908160001a905350600061210b846002612948565b6121169060016128d9565b90505b60018111156121aa576f181899199a1a9b1b9c1cb0b131b232b360811b85600f166010811061215857634e487b7160e01b600052603260045260246000fd5b1a60f81b82828151811061217c57634e487b7160e01b600052603260045260246000fd5b60200101906001600160f81b031916908160001a90535060049490941c936121a3816129cf565b9050612119565b5083156112d35760405162461bcd60e51b815260206004820181905260248201527f537472696e67733a20686578206c656e67746820696e73756666696369656e74604482015260640161090a565b816001600160a01b0316836001600160a01b03161415801561221b5750600081115b15610945576001600160a01b038316156122be576001600160a01b0383166000908152600d602052604081205463ffffffff16908161225b57600061229e565b6001600160a01b0385166000908152600c602052604081209061227f60018561297e565b63ffffffff1663ffffffff168152602001908152602001600020600101545b905060006122ac82856115bc565b90506122ba86848484612354565b5050505b6001600160a01b03821615610945576001600160a01b0382166000908152600d602052604081205463ffffffff1690816122f957600061233c565b6001600160a01b0384166000908152600c602052604081209061231d60018561297e565b63ffffffff1663ffffffff168152602001908152602001600020600101545b9050600061234a82856115c8565b9050610eca858484845b4363ffffffff8416158015906123a357506001600160a01b0385166000908152600c60205260408120829161238a60018861297e565b63ffffffff168152602081019190915260400160002054145b156123ec576001600160a01b0385166000908152600c6020526040812083916123cd60018861297e565b63ffffffff16815260208101919091526040016000206001015561246d565b60408051808201825282815260208082018581526001600160a01b0389166000908152600c835284812063ffffffff8a16825290925292902090518155905160019182015561243c9085906128f1565b6001600160a01b0386166000908152600d60205260409020805463ffffffff191663ffffffff929092169190911790555b60408051848152602081018490526001600160a01b038716917fdec2bacdd2f05b59de34da9b523dff8be42e5e38e818c82fdb0bae774387a724910160405180910390a25050505050565b508054600082556004029060005260206000209081019061091c91905b808211156124ef57600080825560018201556004016124d5565b5090565b80356001600160a01b038116811461250a57600080fd5b919050565b60008083601f840112612520578182fd5b50813567ffffffffffffffff811115612537578182fd5b6020830191508360208260051b850101111561255257600080fd5b9250929050565b60006020828403121561256a578081fd5b6112d3826124f3565b60008060408385031215612585578081fd5b61258e836124f3565b915061259c602084016124f3565b90509250929050565b6000806000606084860312156125b9578081fd5b6125c2846124f3565b92506125d0602085016124f3565b9150604084013590509250925092565b6000806000806000606086880312156125f7578081fd5b612600866124f3565b9450602086013567ffffffffffffffff8082111561261c578283fd5b61262889838a0161250f565b90965094506040880135915080821115612640578283fd5b5061264d8882890161250f565b969995985093965092949392505050565b60008060408385031215612670578182fd5b612679836124f3565b946020939093013593505050565b60008060008060008060c0878903121561269f578081fd5b6126a8876124f3565b95506020870135945060408701359350606087013560ff811681146126cb578182fd5b9598949750929560808101359460a0909101359350915050565b600080604083850312156126f7578182fd5b612700836124f3565b9150602083013563ffffffff81168114612718578182fd5b809150509250929050565b600060208284031215612734578081fd5b5035919050565b6000806040838503121561274d578182fd5b8235915061259c602084016124f3565b60006020828403121561276e578081fd5b81356001600160e01b0319811681146112d3578182fd5b60008060008060008060a0878903121561279d578182fd5b863595506020870135945060408701359350606087013567ffffffffffffffff8111156127c8578283fd5b6127d489828a0161250f565b909450925050608087013580151581146127ec578182fd5b809150509295509295509295565b7f416363657373436f6e74726f6c3a206163636f756e74200000000000000000008152600083516128328160178501602088016129a3565b7001034b99036b4b9b9b4b733903937b6329607d1b60179184019182015283516128638160288401602088016129a3565b01602801949350505050565b602081526000825180602084015261288e8160408501602087016129a3565b601f01601f19169190910160400192915050565b6020808252601d908201527f43616c6c6572206973206e6f74207468652077686974656c6973746572000000604082015260600190565b600082198211156128ec576128ec612a3c565b500190565b600063ffffffff80831681851680830382111561291057612910612a3c565b01949350505050565b600063ffffffff8084168061293c57634e487b7160e01b83526012600452602483fd5b92169190910492915050565b600081600019048311821515161561296257612962612a3c565b500290565b60008282101561297957612979612a3c565b500390565b600063ffffffff8381169083168181101561299b5761299b612a3c565b039392505050565b60005b838110156129be5781810151838201526020016129a6565b83811115611d7e5750506000910152565b6000816129de576129de612a3c565b506000190190565b600181811c908216806129fa57607f821691505b60208210811415612a1b57634e487b7160e01b600052602260045260246000fd5b50919050565b6000600019821415612a3557612a35612a3c565b5060010190565b634e487b7160e01b600052601160045260246000fdfe42455032303a207472616e7366657220616d6f756e74206578636565647320616c6c6f77616e636542455032303a207472616e7366657220616d6f756e7420657863656564732062616c616e636542455032303a2064656372656173656420616c6c6f77616e63652062656c6f77207a65726fa2646970667358221220ee5167df76f78582d811e0183791f70663f0ce52569072089a7ef81a1a50b14164736f6c63430008040033",
  "devdoc": {
    "kind": "dev",
    "methods": {
      "allowance(address,address)": {
        "details": "See {BEP20-allowance}."
      },
      "approve(address,uint256)": {
        "details": "See {BEP20-approve}. Requirements: - `spender` cannot be the zero address."
      },
      "balanceOf(address)": {
        "details": "See {BEP20-balanceOf}."
      },
      "cap()": {
        "details": "Returns the max cap of the token"
      },
      "decimals()": {
        "details": "Returns the token decimals."
      },
      "decreaseAllowance(address,uint256)": {
        "details": "Atomically decreases the allowance granted to `spender` by the caller. This is an alternative to {approve} that can be used as a mitigation for problems described in {BEP20-approve}. Emits an {Approval} event indicating the updated allowance. Requirements: - `spender` cannot be the zero address. - `spender` must have allowance for the caller of at least `subtractedValue`."
      },
      "delegate(address)": {
        "params": {
          "delegatee": "The address to delegate votes to"
        }
      },
      "delegateBySig(address,uint256,uint256,uint8,bytes32,bytes32)": {
        "params": {
          "delegatee": "The address to delegate votes to",
          "expiry": "The time at which to expire the signature",
          "nonce": "The contract state required to match the signature",
          "r": "Half of the ECDSA signature pair",
          "s": "Half of the ECDSA signature pair",
          "v": "The recovery byte of the signature"
        }
      },
      "delegates(address)": {
        "params": {
          "delegator": "The address to get delegatee for"
        }
      },
      "getCurrentVotes(address)": {
        "params": {
          "account": "The address to get votes balance"
        },
        "returns": {
          "_0": "The number of current votes for `account`"
        }
      },
      "getPriorVotes(address,uint256)": {
        "details": "Block number must be a finalized block or else this function will revert to prevent misinformation.",
        "params": {
          "account": "The address of the account to check",
          "blockNumber": "The block number to get the vote balance at"
        },
        "returns": {
          "_0": "The number of votes the account had as of the given block"
        }
      },
      "getRoleAdmin(bytes32)": {
        "details": "Returns the admin role that controls `role`. See {grantRole} and {revokeRole}. To change a role's admin, use {_setRoleAdmin}."
      },
      "grantRole(bytes32,address)": {
        "details": "Grants `role` to `account`. If `account` had not been already granted `role`, emits a {RoleGranted} event. Requirements: - the caller must have ``role``'s admin role."
      },
      "hasRole(bytes32,address)": {
        "details": "Returns `true` if `account` has been granted `role`."
      },
      "increaseAllowance(address,uint256)": {
        "details": "Atomically increases the allowance granted to `spender` by the caller. This is an alternative to {approve} that can be used as a mitigation for problems described in {BEP20-approve}. Emits an {Approval} event indicating the updated allowance. Requirements: - `spender` cannot be the zero address."
      },
      "name()": {
        "details": "Returns the token name."
      },
      "renounceRole(bytes32,address)": {
        "details": "Revokes `role` from the calling account. Roles are often managed via {grantRole} and {revokeRole}: this function's purpose is to provide a mechanism for accounts to lose their privileges if they are compromised (such as when a trusted device is misplaced). If the calling account had been revoked `role`, emits a {RoleRevoked} event. Requirements: - the caller must be `account`."
      },
      "revokeRole(bytes32,address)": {
        "details": "Revokes `role` from `account`. If `account` had been granted `role`, emits a {RoleRevoked} event. Requirements: - the caller must have ``role``'s admin role."
      },
      "supportsInterface(bytes4)": {
        "details": "See {IERC165-supportsInterface}."
      },
      "symbol()": {
        "details": "Returns the token symbol."
      },
      "totalSupply()": {
        "details": "See {BEP20-totalSupply}."
      },
      "transfer(address,uint256)": {
        "details": "See {BEP20-transfer}. Requirements: - `recipient` cannot be the zero address. - the caller must have a balance of at least `amount`."
      },
      "transferFrom(address,address,uint256)": {
        "details": "See {BEP20-transferFrom}. Emits an {Approval} event indicating the updated allowance. This is not required by the EIP. See the note at the beginning of {BEP20}; Requirements: - `sender` and `recipient` cannot be the zero address. - `sender` must have a balance of at least `amount`. - the caller must have allowance for `sender`'s tokens of at least `amount`."
      }
    },
    "stateVariables": {
      "_delegates": {
        "details": "A record of each accounts delegate"
      }
    },
    "version": 1
  },
  "userdoc": {
    "events": {
      "DelegateChanged(address,address,address)": {
        "notice": "An event thats emitted when an account changes its delegate"
      },
      "DelegateVotesChanged(address,uint256,uint256)": {
        "notice": "An event thats emitted when a delegate account's vote balance changes"
      }
    },
    "kind": "user",
    "methods": {
      "DELEGATION_TYPEHASH()": {
        "notice": "The EIP-712 typehash for the delegation struct used by the contract"
      },
      "DOMAIN_TYPEHASH()": {
        "notice": "The EIP-712 typehash for the contract's domain"
      },
      "checkpoints(address,uint32)": {
        "notice": "A record of votes checkpoints for each account, by index"
      },
      "delegate(address)": {
        "notice": "Delegate votes from `msg.sender` to `delegatee`"
      },
      "delegateBySig(address,uint256,uint256,uint8,bytes32,bytes32)": {
        "notice": "Delegates votes from signatory to `delegatee`"
      },
      "delegates(address)": {
        "notice": "Delegate votes from `msg.sender` to `delegatee`"
      },
      "getCurrentVotes(address)": {
        "notice": "Gets the current votes balance for `account`"
      },
      "getPriorVotes(address,uint256)": {
        "notice": "Determine the prior number of votes for an account as of a block number"
      },
      "nonces(address)": {
        "notice": "A record of states for signing / validating signatures"
      },
      "numCheckpoints(address)": {
        "notice": "The number of checkpoints for each account"
      }
    },
    "version": 1
  },
  "storageLayout": {
    "storage": [
      {
        "astId": 2649,
        "contract": "contracts/GalacticQuadrant.sol:GalacticQuadrant",
        "label": "_lgeWhitelistRounds",
        "offset": 0,
        "slot": "0",
        "type": "t_array(t_struct(WhitelistRound)2645_storage)dyn_storage"
      },
      {
        "astId": 2651,
        "contract": "contracts/GalacticQuadrant.sol:GalacticQuadrant",
        "label": "_lgeTimestamp",
        "offset": 0,
        "slot": "1",
        "type": "t_uint256"
      },
      {
        "astId": 2653,
        "contract": "contracts/GalacticQuadrant.sol:GalacticQuadrant",
        "label": "_lgePairAddress",
        "offset": 0,
        "slot": "2",
        "type": "t_address"
      },
      {
        "astId": 2655,
        "contract": "contracts/GalacticQuadrant.sol:GalacticQuadrant",
        "label": "_whitelister",
        "offset": 0,
        "slot": "3",
        "type": "t_address"
      },
      {
        "astId": 1377,
        "contract": "contracts/GalacticQuadrant.sol:GalacticQuadrant",
        "label": "_balances",
        "offset": 0,
        "slot": "4",
        "type": "t_mapping(t_address,t_uint256)"
      },
      {
        "astId": 1383,
        "contract": "contracts/GalacticQuadrant.sol:GalacticQuadrant",
        "label": "_allowances",
        "offset": 0,
        "slot": "5",
        "type": "t_mapping(t_address,t_mapping(t_address,t_uint256))"
      },
      {
        "astId": 1385,
        "contract": "contracts/GalacticQuadrant.sol:GalacticQuadrant",
        "label": "_totalSupply",
        "offset": 0,
        "slot": "6",
        "type": "t_uint256"
      },
      {
        "astId": 1387,
        "contract": "contracts/GalacticQuadrant.sol:GalacticQuadrant",
        "label": "_decimals",
        "offset": 0,
        "slot": "7",
        "type": "t_uint8"
      },
      {
        "astId": 1389,
        "contract": "contracts/GalacticQuadrant.sol:GalacticQuadrant",
        "label": "_symbol",
        "offset": 0,
        "slot": "8",
        "type": "t_string_storage"
      },
      {
        "astId": 1391,
        "contract": "contracts/GalacticQuadrant.sol:GalacticQuadrant",
        "label": "_name",
        "offset": 0,
        "slot": "9",
        "type": "t_string_storage"
      },
      {
        "astId": 24,
        "contract": "contracts/GalacticQuadrant.sol:GalacticQuadrant",
        "label": "_roles",
        "offset": 0,
        "slot": "10",
        "type": "t_mapping(t_bytes32,t_struct(RoleData)19_storage)"
      },
      {
        "astId": 1919,
        "contract": "contracts/GalacticQuadrant.sol:GalacticQuadrant",
        "label": "_delegates",
        "offset": 0,
        "slot": "11",
        "type": "t_mapping(t_address,t_address)"
      },
      {
        "astId": 1932,
        "contract": "contracts/GalacticQuadrant.sol:GalacticQuadrant",
        "label": "checkpoints",
        "offset": 0,
        "slot": "12",
        "type": "t_mapping(t_address,t_mapping(t_uint32,t_struct(Checkpoint)1924_storage))"
      },
      {
        "astId": 1937,
        "contract": "contracts/GalacticQuadrant.sol:GalacticQuadrant",
        "label": "numCheckpoints",
        "offset": 0,
        "slot": "13",
        "type": "t_mapping(t_address,t_uint32)"
      },
      {
        "astId": 1954,
        "contract": "contracts/GalacticQuadrant.sol:GalacticQuadrant",
        "label": "nonces",
        "offset": 0,
        "slot": "14",
        "type": "t_mapping(t_address,t_uint256)"
      }
    ],
    "types": {
      "t_address": {
        "encoding": "inplace",
        "label": "address",
        "numberOfBytes": "20"
      },
      "t_array(t_struct(WhitelistRound)2645_storage)dyn_storage": {
        "base": "t_struct(WhitelistRound)2645_storage",
        "encoding": "dynamic_array",
        "label": "struct LGEWhitelisted.WhitelistRound[]",
        "numberOfBytes": "32"
      },
      "t_bool": {
        "encoding": "inplace",
        "label": "bool",
        "numberOfBytes": "1"
      },
      "t_bytes32": {
        "encoding": "inplace",
        "label": "bytes32",
        "numberOfBytes": "32"
      },
      "t_mapping(t_address,t_address)": {
        "encoding": "mapping",
        "key": "t_address",
        "label": "mapping(address => address)",
        "numberOfBytes": "32",
        "value": "t_address"
      },
      "t_mapping(t_address,t_bool)": {
        "encoding": "mapping",
        "key": "t_address",
        "label": "mapping(address => bool)",
        "numberOfBytes": "32",
        "value": "t_bool"
      },
      "t_mapping(t_address,t_mapping(t_address,t_uint256))": {
        "encoding": "mapping",
        "key": "t_address",
        "label": "mapping(address => mapping(address => uint256))",
        "numberOfBytes": "32",
        "value": "t_mapping(t_address,t_uint256)"
      },
      "t_mapping(t_address,t_mapping(t_uint32,t_struct(Checkpoint)1924_storage))": {
        "encoding": "mapping",
        "key": "t_address",
        "label": "mapping(address => mapping(uint32 => struct GalacticQuadrant.Checkpoint))",
        "numberOfBytes": "32",
        "value": "t_mapping(t_uint32,t_struct(Checkpoint)1924_storage)"
      },
      "t_mapping(t_address,t_uint256)": {
        "encoding": "mapping",
        "key": "t_address",
        "label": "mapping(address => uint256)",
        "numberOfBytes": "32",
        "value": "t_uint256"
      },
      "t_mapping(t_address,t_uint32)": {
        "encoding": "mapping",
        "key": "t_address",
        "label": "mapping(address => uint32)",
        "numberOfBytes": "32",
        "value": "t_uint32"
      },
      "t_mapping(t_bytes32,t_struct(RoleData)19_storage)": {
        "encoding": "mapping",
        "key": "t_bytes32",
        "label": "mapping(bytes32 => struct AccessControl.RoleData)",
        "numberOfBytes": "32",
        "value": "t_struct(RoleData)19_storage"
      },
      "t_mapping(t_uint32,t_struct(Checkpoint)1924_storage)": {
        "encoding": "mapping",
        "key": "t_uint32",
        "label": "mapping(uint32 => struct GalacticQuadrant.Checkpoint)",
        "numberOfBytes": "32",
        "value": "t_struct(Checkpoint)1924_storage"
      },
      "t_string_storage": {
        "encoding": "bytes",
        "label": "string",
        "numberOfBytes": "32"
      },
      "t_struct(Checkpoint)1924_storage": {
        "encoding": "inplace",
        "label": "struct GalacticQuadrant.Checkpoint",
        "members": [
          {
            "astId": 1921,
            "contract": "contracts/GalacticQuadrant.sol:GalacticQuadrant",
            "label": "fromBlock",
            "offset": 0,
            "slot": "0",
            "type": "t_uint256"
          },
          {
            "astId": 1923,
            "contract": "contracts/GalacticQuadrant.sol:GalacticQuadrant",
            "label": "votes",
            "offset": 0,
            "slot": "1",
            "type": "t_uint256"
          }
        ],
        "numberOfBytes": "64"
      },
      "t_struct(RoleData)19_storage": {
        "encoding": "inplace",
        "label": "struct AccessControl.RoleData",
        "members": [
          {
            "astId": 16,
            "contract": "contracts/GalacticQuadrant.sol:GalacticQuadrant",
            "label": "members",
            "offset": 0,
            "slot": "0",
            "type": "t_mapping(t_address,t_bool)"
          },
          {
            "astId": 18,
            "contract": "contracts/GalacticQuadrant.sol:GalacticQuadrant",
            "label": "adminRole",
            "offset": 0,
            "slot": "1",
            "type": "t_bytes32"
          }
        ],
        "numberOfBytes": "64"
      },
      "t_struct(WhitelistRound)2645_storage": {
        "encoding": "inplace",
        "label": "struct LGEWhitelisted.WhitelistRound",
        "members": [
          {
            "astId": 2634,
            "contract": "contracts/GalacticQuadrant.sol:GalacticQuadrant",
            "label": "duration",
            "offset": 0,
            "slot": "0",
            "type": "t_uint256"
          },
          {
            "astId": 2636,
            "contract": "contracts/GalacticQuadrant.sol:GalacticQuadrant",
            "label": "amountMax",
            "offset": 0,
            "slot": "1",
            "type": "t_uint256"
          },
          {
            "astId": 2640,
            "contract": "contracts/GalacticQuadrant.sol:GalacticQuadrant",
            "label": "addresses",
            "offset": 0,
            "slot": "2",
            "type": "t_mapping(t_address,t_bool)"
          },
          {
            "astId": 2644,
            "contract": "contracts/GalacticQuadrant.sol:GalacticQuadrant",
            "label": "purchased",
            "offset": 0,
            "slot": "3",
            "type": "t_mapping(t_address,t_uint256)"
          }
        ],
        "numberOfBytes": "128"
      },
      "t_uint256": {
        "encoding": "inplace",
        "label": "uint256",
        "numberOfBytes": "32"
      },
      "t_uint32": {
        "encoding": "inplace",
        "label": "uint32",
        "numberOfBytes": "4"
      },
      "t_uint8": {
        "encoding": "inplace",
        "label": "uint8",
        "numberOfBytes": "1"
      }
    }
  }
}